:020000040800F2
:1000000048070020A101000867270008891F000891
:10001000652700083F14000841290008000000007F
:10002000000000000000000000000000DB280008C5
:100030004114000800000000D9280008DD2800084D
:10004000BB010008BB010008BB010008BB010008A0
:10005000BB010008BB010008BB010008BB01000890
:10006000BB010008BB010008BB010008BB01000880
:10007000BB010008BB010008BB010008BB01000870
:10008000BB010008BB010008BB010008BB01000860
:10009000BB010008BB010008BB010008BB01000850
:1000A000BB010008BB010008BB010008BB01000840
:1000B000BB010008BB010008BB010008BB01000830
:1000C000BB010008BB010008BB010008BB01000820
:1000D000BB010008BB010008BB010008BB01000810
:1000E000BB010008BB010008BB01000800F002F8DA
:1000F00000F047F80AA090E8000C82448344AAF17B
:100100000107DA4501D100F03CF8AFF2090EBAE878
:100110000F0013F0010F18BFFB1A43F0010318473B
:10012000AC770000CC770000103A24BF78C878C1C3
:10013000FAD8520724BF30C830C144BF04680C60ED
:10014000704700000023002400250026103A28BF35
:1001500078C1FBD8520728BF30C148BF0B60704739
:10016000662905F03287002070471FB500F026FC95
:1001700004000020002104F0FFFEE0601FBD10B568
:1001800010BD00F01FFD1146FFF7EFFF03F0EAFE80
:1001900000F03DFD03B4FFF7F2FF03BC00F080FD6B
:1001A0000948804709480047FEE7FEE7FEE7FEE70B
:1001B000FEE7FEE7FEE7FEE7FEE7FEE70448054947
:1001C000054A064B704700003F290008ED00000873
:1001D0004801002048070020480300204803002071
:1001E00010B54C1084EA530404D54042C1F100011B
:1001F00038BF491E1B4204D55242C3F1000338BF29
:100200005B1E00F00AF914F0804F04D04042C1F1A7
:10021000000138BF491E14F0004F04D05242C3F110
:10022000000338BF5B1E10BD0FB41CB5074B06AAF8
:100230007B4469460090059800F085FB00206946E4
:1002400000F094FB1CBC5DF814FB000039070000B3
:100250002DE9F0474FF0000A89460446C0F820A077
:100260002046E1688847002876D0252806D0D4E9C2
:1002700001219047206A401C2062F1E7E168204696
:1002800000258847C4F81CA006460027C4F818A01B
:100290002A2E09D0304602F0FBFB38B304EB870866
:1002A000303EC8F8186019E059F8041B204604EBEA
:1002B00087029161E1688847012F064618D1E069FD
:1002C000002820DA25F020051DE0D8F8180000EB02
:1002D000800006EB40003038C8F818002046E1687E
:1002E0008847064602F0D4FB0028EED1012F0AD041
:1002F0002E2E08D12046E16888477F1C0646022F33
:1003000045F02005C4DBA069002803DA404245F02F
:100310000105A061E80701D025F01005B6B1A6F1EE
:100320004100192802D8203645F400654A46314676
:10033000204625604D46FFF713FF58B1012806D02F
:10034000ED1D25F0070000F1080989E704E005F13B
:10035000040985E730468AE7206ABDE8F08740EA6D
:10036000010310B59B070FD1042A0DD310C808C98B
:10037000121F9C42F8D020BA19BA884201D9012034
:1003800010BD4FF0FF3010BD1AB1D30703D0521C7F
:1003900007E0002010BD10F8013B11F8014B1B1BBA
:1003A00007D110F8013B11F8014B1B1B01D1921E24
:1003B000F1D1184610BD02F0FF0343EA032242EADE
:1003C000024200F0DABA4FF0000200B5134694463C
:1003D0009646203922BFA0E80C50A0E80C50B1F19D
:1003E0002001BFF4F7AF090728BFA0E80C5048BFB1
:1003F0000CC05DF804EB890028BF40F8042B08BF4F
:10040000704748BF20F8022B11F0804F18BF00F84A
:10041000012B704770477047704753EA020C00F099
:1004200069802DE9F04B4FF00006002B1FBFB3FA97
:1004300083F503FA05F424FA05F65E4012BF16436D
:10044000B2FA82F502FA05F4C5F120051EBF22FAC0
:1004500005FC44EA0C04203556EA044C4FEA1444E7
:1004600018BF641C4FF000084FF00009904271EB78
:10047000030C39D3002919BFB1FA81F701FA07F645
:10048000B0FA80F700FA07F6C7F120071EBF20FA7E
:1004900007FC46EA0C062037B6FBF4FCA7EB050781
:1004A000103F07F01F0BCBF120060CFA0BFB2CFAC8
:1004B00006F644BFB3460026202FA4BF5E464FF089
:1004C000000B5BEA060C08BF4FF0010B19EB0B09A0
:1004D000ABFB027C48EB0608C01B06FB02CC0BFB07
:1004E00003CC71EB0C01C1E70B460246414648467E
:1004F000BDE8F08B13B54FF000004FF00001AFF3F3
:100500000080BDE81C40704710B500F05BFA006841
:1005100010BD10B5044600F055FA046010BD7047D8
:100520002DE9FF4F0C461E464FF0FF378BB0D2E946
:100530000001DDF860800A908A46C1F30A5505B9CA
:100540003D46002108464FF00000BAF1000F00F4CC
:10055000400005DA00EB80004FF4400101EA500052
:100560004FEA9059B9F1010F00DDB9460A9850EAF7
:100570004A000ED044F61050A5F2FF3545432F1423
:10058000B8F1000F1ED07542291E1EDDC9F1000210
:100590001CE0B8F1010F4FF0000001D0302103E062
:1005A000F24305E02154401CB042FBDB3046002200
:1005B000002121540B99C1F80880C1E900200FB037
:1005C000BDE8F08FBD1B6D1CDEE74A4600DA6942CC
:1005D00006A800F081FA06AB93E8070003AB83E8B6
:1005E000070050460A9900F062FB8DE80700A0F56D
:1005F00000501F3800900398002D0ADD42F21F01C1
:100600004A460844002303A90390684600F0CBFD46
:1006100009E0A0F500504A461F38002303A90390C3
:10062000684600F0D5FD8DE807000004000C03D0FB
:100630004FF0FF30410800E01046B8F1000F03D042
:100640000022009215461EE0751E05D400F0BEF98A
:10065000303262556D1EF9D5B3460122084302D0EF
:1006600000227F1C04E02078302801D100227F1E68
:10067000002A099784D01DE0112D07DA00F0A6F9B1
:10068000303262556D1C50EA0102F5D1084302D0A8
:100690000098C8B10EE00021681E05E0235C625C92
:1006A00063542254401E491C8142F7DBAB46A81B11
:1006B000401E0990002004F80B000B98099AC0F81E
:1006C0000880C0E9002B7AE711264FF0000857E7B1
:1006D0002DE9F04F88460446D21D22F0070191B063
:1006E000D1E90001CDE90A0102F046F902460B9872
:1006F000C00F01D02D2007E02068810701D52B20F5
:1007000002E0202101EAC000032A099001D0072A53
:1007100005DB03464146204600F09EF90BE12078B8
:10072000800601D5E06900E00620B8F1650F81463A
:1007300006D0B8F1660F18D0B8F1670F70D131E06C
:100740000020B9F1110F009001DB112301E009F144
:1007500001030AAA01A90CA8FFF7E2FEDDE90C706B
:10076000002609F10105834647E001204B46009031
:100770004FF000470AAA01A90CA8FFF7D1FEDDE956
:100780000DB00C995D46002610B909F101000D1855
:10079000B9EB050003D4C0F1FF3609F10105A5EB63
:1007A00009002BE0B9F1010F01DA4FF00109002037
:1007B000B9F1110F0090484601DD112300E0034616
:1007C0000AAA01A90CA8FFF7ABFEDDE90C704D46A3
:1007D00000268346207800070AD4AB4500DA5D4640
:1007E00001A8012D04DD411911F8011C302907D0A1
:1007F0004F4502DA17F1040F04DA012082460FE0B8
:100800006D1EEEE7002F02DCED1B3E4403E0781C7A
:10081000A84200DD7D1CB81B00F1010A4FF0004723
:100820002078000703D4AA4501DB4FF0FF3A0021EE
:10083000B7F1004F0DF143088DF8431024D002208A
:100840002B23002F01DA7F422D230A21021EA0F163
:10085000010000DC5FB197FBF1FC97FBF1F201FBBB
:100860001C7C17460CF1300C08F801CDEEE7A8F11E
:10087000010003702188090501D5452100E06521AB
:10088000A0F1010800F8011C09980FA9A1EB0807C5
:10089000FF1D00B10120411901EBEA70A169384444
:1008A000081A401EA0612078C00602D42046AFF38B
:1008B0000080099828B1D4E901219047206A401CA2
:1008C00020622078C00622D52046AFF300801EE0CB
:1008D000002E04DBB34502DD01A8805D00E030207E
:1008E000D4E901219047206A401C2062761CAAF1BD
:1008F00001005FEA000A0AD100F060F8C0680168F0
:10090000405CD4E901219047206A401C2062281EE7
:10091000A5F10105DCDC07E0D4E9012118F8010BA1
:100920009047206A401C2062381EA7F10107F3DCC3
:100930002046AFF30080032011B041E601694A1C54
:1009400002610878704700B58FB0CDE90131002110
:10095000059105497944CDE9031011466846FFF732
:1009600077FC0FB000BD0000E5FFFFFF0A6802F84A
:10097000010B0A6070474FF000020429C0F012809A
:1009800010F0030C3FF421ADCCF1040CBCF1020FCC
:1009900018BF00F8012BA8BF20F8022BA1EB0C0117
:1009A000FFF713BD5FEAC17C24BF00F8012B00F8FC
:1009B000012B48BF00F8012B70470000004870472A
:1009C0000801002000487047E800002030B5B0F171
:1009D0000A024FEA900E71F100034EEA817EB0EBFD
:1009E0000E0061EB91014FEA101E4EEA017E10EB02
:1009F0000E0041EB11114FEA102E4EEA016E10EB82
:100A00000E0041EB11214FEA104E4EEA014E10EB61
:100A10000E0041EB1141401841F100014FEAD000B6
:100A200040EA41704FEAD10110EB80054FEA8104A2
:100A300044EA907444EB01046D1944EB0404521B26
:100A4000A3414FF0000348BF0A3200D530BD401C1F
:100A500041F1000130BD00002DE9F0411F46044680
:100A600003260168072A01F4006004DB08B116A51B
:100A700005E016A503E008B115A500E015A521F0D5
:100A800010002060A069C01EA0610FB1401EA061CF
:100A90002046AFF300804FB1D4E90121384690479A
:100AA000206A401C2062C01C206206E0206AFAE72F
:100AB000D4E9012115F8010B9047761EF8D22046A3
:100AC000AFF30080BDE8F0814E414E006E616E00D4
:100AD000494E4600696E66002DE9F047814616468C
:100AE0008AB0354878440DC88DE80D003248784406
:100AF000801C03AC0DC884E80D0041F69B3008440F
:100B0000372190FBF1F290FBF1F5A5F1800501FB97
:100B100012041B3C02D56442012000E00020DFF8F3
:100B200098A080460027FA44AAF1BE0A0EE0E0072A
:100B30000AD03246684607EB470101230AEB8101E0
:100B400000F046FB8DE8070064107F1C002CEED1FE
:100B5000194F7F44AE3F19E0E80715D007EB0410AA
:100B60000DF1180A90E80E008AE80E00C068F04205
:100B700001D1981908903246012306A903A800F074
:100B800027FB03AB83E807006D10641C002DE3D145
:100B90004FF0010332466946B8F1000F03A802D0B6
:100BA00000F001FB01E000F013FBC9E90001C9F806
:100BB00008200AB0BDE8F087CC6D000000487047FF
:100BC000E80000207546FFF7F9FFAE4605006946CC
:100BD000534620F00700854618B020B5FFF7EEFA1F
:100BE000BDE820404FF000064FF000074FF000082E
:100BF0004FF0000B21F00701AC46ACE8C009ACE8AF
:100C0000C009ACE8C009ACE8C0098D46704710B512
:100C10000446AFF300802046BDE81040FFF7BABAA3
:100C20004FF0013C50F8042B51F8043B9A4221D17B
:100C3000A2EB0C03934313EACC1317D150F8042B07
:100C400051F8043B9A4215D1A2EB0C03934313EAEB
:100C5000CC130BD150F8042B51F8043B9A4209D124
:100C6000A2EB0C03934313EACC13DBD04FF000004C
:100C7000704700BFD01A01BAB1FA81F101F0180132
:100C800022FA01F0CB40C1F12001DBB2C0B2C01AA0
:100C90002CFA01F3D11A914311EAC311E6D170473E
:100CA00001491820ABBEFEE72600020070475FEA4C
:100CB000400C08BF91F0000F4FEA8C234FEAC1228D
:100CC00043EA51514FEA1C5018BF00F5F0404FEA7B
:100CD000300018BF41F000415FEA6C5C00F02980F1
:100CE000BCF1FF3F08BF40F080407047130C06BFC7
:100CF00012044FF0100C4FF0000C130E04BF120240
:100D00000CF1080C130F04BF12010CF1040C930F2B
:100D100004BF92000CF1020CD30F04BF52000CF17F
:100D2000010C11464FF00002A0F11F00A0EB0C00D7
:100D3000704711F0004F08BF704731F000413FF499
:100D4000D5AF0B0C06BF09044FF0100C4FF0000C90
:100D50000B0E04BF09020CF1080C0B0F04BF0901B4
:100D60000CF1040C8B0F04BF89000CF1020CCB0FAB
:100D700004BF49000CF1010CCCF12003A0EB0C00E6
:100D800022FA03F302FA0CF241EA030100F1010036
:100D9000704720F07F4C80EA030023F07F47ACEBE4
:100DA000070303F57C5300F0004003F1FF032DE936
:100DB00080494FEA154B09B44FEA144325EA0B4E1C
:100DC00024EA03480FF2042606EB132749083E786D
:100DD0005FEA320203FB0667C7F5000707FB06F66A
:100DE0004FEA54374FEAD64606F1020607FB066C77
:100DF000CCF1005C4FEA1C472CEA074C07FB06F4D9
:100E00000CFB06F504EB15464FEA961634BF00209E
:100E10004FF000404FEAD13706FB07FC4FEA1C4C6D
:100E20000CFB0BF7D21B03FB0CF761EB07010CFB70
:100E30000EF7B0EB074072EB17420CFB08F734BF1C
:100E4000A2EB0742B2EB074261EB17414FEA0C44B9
:100E50004FEA910706FB07FC4FEA1C4C0CFB0BF713
:100E6000B0EBC74072EB573203FB0CF734BFA2EB79
:100E7000C742B2EBC74261EB57310CFB0EF7B0EB48
:100E8000C70072EB57720CFB08F734BFA2EBC70226
:100E9000B2EBC70261EB5771039F4FEA816141EAF0
:100EA000921104EBCC044FEAD1374FEA826206FB81
:100EB00007FC42EA90124FEA80604FEA1C4C0CFBA0
:100EC0000BF7D21B03FB0CF761EB07010CFB0EF7D2
:100ED000B0EB074072EB17420CFB08F734BFA2EBF4
:100EE0000742B2EB074261EB17414FEA8C554FEADC
:100EF000910704EB9C2406FB07FC4FEA1C4C0CFBFF
:100F00000BF7B0EBC74072EB573203FB0CF734BF63
:100F1000A2EBC742B2EBC74261EB57310CFB0EF7B5
:100F2000B0EBC70072EB57720CFB08F734BFA2EBB3
:100F3000C702B2EBC70261EB577115EB4C254FEAC4
:100F4000816141EA92114FEA82624FEAD13742EA67
:100F5000901206FB07FC44F100044FEA80604FEA60
:100F60001C4C0CFB0BF7D21B03FB0CF761EB0701CE
:100F70000CFB0EF7B0EB074072EB17420CFB08F7C7
:100F800034BFA2EB0742B2EB074261EB174115EB0E
:100F90001C154FEA813141EA92414FEA823242EA1E
:100FA00090424FEA80304FEA0C7644F1000448EA60
:100FB00003434EEA0B484FF0000EB2EB080C71EB06
:100FC000030724BF624639464EEB0E0E4FF0000B6E
:100FD0000018524149414BEB0B0BB2EB080C71EB83
:100FE00003077BF1000B24BF624639464EEB0E0E21
:100FF0004FF0000B0018524149414BEB0B0BB2EB89
:10100000080C71EB03077BF1000B24BF62463946E5
:101010004EEB0E0E51EA020718BF46F0010616EB22
:101020000E7655F1000254F1000103D5BDE88901A7
:10103000BDE80088BDE88901BDE80048B619524105
:1010400041EB0101A3F10103704780807F7E7D7C2D
:101050007B7A7978777676757473727171706F6E4A
:101060006E6D6C6C6B6A6A696868676666656464F5
:10107000636362616160605F5F5E5E5D5D5C5C5B7F
:101080005B5A5A59595858575756565555555454EE
:10109000535352525251515050504F4F4F4E4E4D4C
:1010A0004D4D4C4C4C4B4B4B4A4A4A494949484898
:1010B00048474747474646464545454444444443D8
:1010C00043434342424242414141002B9C4630D47B
:1010D00077002BD01CB54FEA370703B44FF0100050
:1010E0004FF01001BAF1000F06D0BCF1000FDCBFC9
:1010F00040F0080040F008014FF000000FBCBDE8D0
:1011000010400BF1010BBBF1010F08BF5FEA17079D
:1011100022BF12F1010211F101014FF0004143F130
:10112000000300F0004043EA00007047F9D357087D
:10113000D0E746EA064613F1400F4FEA16461FDD98
:1011400013F1200FDFBF16430A46002120335B4214
:10115000BED0C3F1200746EA064602FA07F74FEA77
:10116000164646EA0706C3F1200722FA03F201FAFF
:1011700007F721FA03F14FF0000342EA0702A7E75D
:1011800046EA020646EA06464FEA164646EA0106DF
:10119000BCBF46EA0646360C4FF000034FF0000293
:1011A0004FF0000194E72DE9804C9A46934670B4C5
:1011B00091E8380007C831EA400C48BF34EA430CD4
:1011C00003D5FFF7E6FDFFF780FFF0BCBDE8008C1C
:1011D0002DE9804C9A46934670B491E8380007C8D0
:1011E00010F0804F08BF13F0804F03D100F005F8D6
:1011F000FFF76BFFF0BCBDE8008C20F07F4780EA72
:10120000030023F07F4C07EB0C03A3F57C5300F0A5
:101210000040A3F1FE0392F0000F00F0B38095F0C0
:10122000000F00F077802DE901494FEA11404FEAA5
:10123000144621EA004800FB06FC24EA064708FBA6
:1012400006F607FB08F800FB07F718EB06484CEB1F
:10125000164C4FEA124B18EB07484FEA15464CEB79
:10126000174022EA0B4E0BFB06FC25EA06470EFB55
:1012700006F607FB0EFE0BFB07F71EEB064E4CEBCC
:10128000164C4FF000061EEB074E4CEB174B18EBBD
:101290000B0840F1000018EB0E0B58EB000840F172
:1012A00000008F1A4FF000013CBFC943661B14BFFA
:1012B000B5EB040C00213CBFC943F61B4FEA1744B1
:1012C0004EEA8E0E27EA04454FEA1C4704FB0762EC
:1012D0002CEA074C05FB07F70CFB05F604FB0CFC9E
:1012E00016EB074642EB174216EB0C4642EB1C424C
:1012F0001BEB060658EB0202414146EA9E0601D569
:10130000BDE80189B619524141EB0101A3F1010386
:10131000BDE801894FEA14454FEA114724EA054622
:1013200021EA074C05FB07F406FB07F70CFB06F167
:1013300005FB0CFC11EB074144EB17444FEA124745
:1013400011EB0C4144EB1C4422EA074C05FB07F26D
:1013500006FB07F70CFB06F605FB0CFC16EB074635
:1013600042EB174216EB0C4642EB1C456A1854F14F
:10137000000148BF7047B619524141EB0101A3F18A
:101380000103704795F0000F37D04FEA11424FEA42
:10139000144721EA024624EA074C02FB07F106FB48
:1013A00007F70CFB06F402FB0CFC14EB074441EBC3
:1013B00017414FEA154714EB0C4441EB1C4125EA59
:1013C000074C02FB07F506FB07F70CFB06F602FBD2
:1013D0000CFC16EB074645EB174516EB0C4645EBA8
:1013E0001C42121951F1000148BF7047B619524111
:1013F00041EB0101A3F1010370474FEA14454FEAA5
:10140000114724EA054621EA074C05FB07F106FBD4
:1014100007F70CFB06F24FF0000605FB0CFC12EB85
:10142000074241EB174112EB0C4251EB1C4148BF04
:101430007047921841EB0101A3F101037047FEE7E9
:10144000704772B6FEE7000070B5044600F008F978
:101450000546601C02D004480078044400F000F9FE
:10146000401BA042FAD370BD600000202DE9F84F68
:10147000DFF8B8910024A9F1040B23460F2709F1E6
:10148000040AABF1040EC9E00125A5402A40AA4296
:101490007DD1674ED1F804C0ACEB0608B44532D01C
:1014A00014DCBCF1030F3AD009DCBCF1000F2AD0E8
:1014B000BCF1010F1CD0BCF1020F31D11DE0BCF119
:1014C000110F17D0BCF1120F2AD119E0B8F5881FFF
:1014D00019D006DCB8F5803F15D0B8F5801F1FD1B4
:1014E00011E0B8F5001F0ED0B8F5041F18D10AE0BE
:1014F000CB6815E0CB681B1D12E0CB6808330FE00A
:10150000CB680C330CE08B682BB1012B4FF0080338
:1015100003D0456104E0042302E0056100E00023FC
:10152000FF2A01D8064601E000F104064FEA8405CF
:1015300001D9A5F12005D6F8008007FA05FC28EAB4
:101540000C0803FA05F548EA0508C6F800804D685E
:10155000ED0062D5374DAE6946F00106AE61AD696A
:1015600024F0030605F001050095334D06EB050C4C
:10157000DCF80850A607360F07FA06F825EA080532
:10158000DFF8B880404503D14FF0000817E044E091
:10159000DFF8AC80404502D14FF001080FE0DFF8E2
:1015A000A480404502D14FF0020808E0DFF898809F
:1015B000404502D14FF0030801E04FF0040808FA5B
:1015C00006F848EA0508CCF808804D68D9F80060AC
:1015D000ED024D4601D5164300E096432E604D685E
:1015E000DAF80060AD02554601D5164300E0964397
:1015F0002E604D68DBF80060AD035D4601D51643F3
:1016000000E096432E604D68DEF80060ED037546FD
:1016100001D5164300E096432E60641C0D682A46EF
:10162000E5407FF431AFBDE8F88F000008040140C9
:1016300000001110001002400000014000080140AD
:10164000000C014000100140001401408068084077
:1016500000D0012070470AB1016170470904FBE71F
:1016600001488068704700006000002070B50400E9
:1016700025D094F83D00002520B984F83C50204640
:1016800000F050F9242084F83D002068016821F022
:10169000010101602068016841F400410160206897
:1016A000016821F40041016000F094FA4D4A61683C
:1016B000914201D84C4900E04C49884201D20120B6
:1016C00070BD4B492368B0FBF1F15E6826F03F0620
:1016D0000E435E606368934206D94FF49673594394
:1016E0004FF47A73B1FBF3F12368491C1E6A26F0AC
:1016F0003F06314319626168914210D84900401E8B
:10170000B0FBF1F2521CC2F30B02042A01D20420F6
:1017100022E0B0FBF1F0401CC0F30B001CE0A2681B
:10172000F2B301EBC10303EB0116431EB3FBF6F367
:101730005B1C43F480431B0549D092B301EBC1020B
:1017400002EB0111401EB0FBF1F0401CC0F30B0096
:1017500040F4804040F400402168CA694CF6FF73B1
:101760009A431043C861D4E9071001432068026816
:1017700022F0C00211430160D4E903010143206853
:10178000826848F2FF339A4311438160D4E905012E
:1017900008432168CA6822F0FF021043C86001E0D4
:1017A0000EE016E02068016841F001010160256447
:1017B000202084F83D00256384F83E50002070BD51
:1017C00001EB4106431EB3FBF6F35B1CB3E70120BC
:1017D000C2E701EB4101401EB0FBF1F0401CC0F339
:1017E0000B00B7E7A086010080841E0000093D00C1
:1017F00040420F002DE9FF4F83B09A46DDE9119773
:1018000093460446DDF84080FFF72AFF054694F82A
:101810003D0020287FD11923012240492046009510
:1018200000F04AFC002876D194F83C00012872D0E0
:10183000012084F83C0020680168C90703D10168D1
:1018400041F0010101602068016821F4006101603C
:10185000212084F83D00402084F83E0000262664C4
:10186000C4F82480A4F82A90608D20852C48E0627A
:10187000CDE9007553465A462046049900F09CFB7A
:1018800070B930E02A463946204600F0BBFC58B11A
:10189000206C042804D12068016841F400710160C3
:1018A000012007B0BDE8F08F606A21680078086108
:1018B000606A401C6062218D491E89B22185628D5B
:1018C000521E628522685369DB435B070BD469B102
:1018D00000781061606A401C6062208D401E208587
:1018E000608D401E6085208D0028CBD12A46394668
:1018F000204600F0B5FB0028CAD154F83D0B016822
:1019000041F400710160202004F81E09E677667733
:101910000020C6E7FFE70220C3E700000200100036
:101920000000FFFF10B586B00021009101910291E7
:10193000039100681349884222D1134CA06940F0FA
:101940000800A061A069694600F0080004904FF407
:101950004070009012200190032003900B48FFF785
:1019600085FD0B48416841F0E06141F002014160B2
:10197000E06940F40010E061E06900F400100490B8
:1019800006B010BD0054004000100240000C0140A1
:10199000000001400248816802781144816070476C
:1019A00060000020074810B5016841F01001016097
:1019B000032000F067F80F2000F006F800F024F88C
:1019C000002010BD0020024070B50D4D04464FF4BC
:1019D0007A712878B1FBF0F00A490968B1FBF0F0A0
:1019E00000F0BEFA48B9102C07D200222146501E42
:1019F00000F028F800206C6070BD012070BD000070
:101A0000600000206C0000200C4808B5816941F09E
:101A100001018161816901F001010091C16941F019
:101A20008051C161C06900F0805000900448416855
:101A300021F0E06141F00071416008BD00100240FA
:101A400000000140F0B40E4B1B680C46C3F30223A8
:101A5000C3F10705042D00D90425191D072901D25A
:101A6000002300E0DB1E012606FA05F1491E214095
:101A700099409E40761E16403143F0BC00F090BF66
:101A80000CED00E0064900F0070208684FF6FF037E
:101A9000184040EA0220034A1043086070470000E3
:101AA0000CED00E00000FA052DE9F0470F460500B7
:101AB00061D0434E306800F00700B84209D2306868
:101AC00020F0070038433060306800F00700B8426B
:101AD00051D128683B4C810712D5400703D5606877
:101AE00040F4E06060602878000703D5606840F447
:101AF000605060606068A96820F0F0000843606092
:101B00002878C00728D06868012810D021680228EA
:101B100010D0890700292EDA616821F00301014302
:101B20006160FFF79DFD804641F288390DE0216834
:101B30008903EFE78901EDE7FFF792FDA0EB0801CC
:101B4000494502D90320BDE8F0876068696800F064
:101B50000C00B0EB810FEFD1306800F00700B84205
:101B60000BD9306820F0070038433060306800F04F
:101B70000700B84201D00120E5E72878400705D5E5
:101B80006068E96820F4E060084360602878000736
:101B900006D56068296920F4605040EAC1006060A1
:101BA00000F028F86168084AC1F30311515CC8408D
:101BB0000649086006480068FFF706FF0020C2E7F4
:101BC00000200240001002402C7700086C0000202A
:101BD000640000200448054900684968044AC1F3CC
:101BE0000221515CC84070476C0000200010024088
:101BF0003C7700080E4A51680E4801F00C03042B94
:101C000011D0082B0FD10C48C1F38343C903C05C2A
:101C10000AD55168084AC1F34041921E515C054AF9
:101C20005043B0FBF1F0704704494843704700004F
:101C30000010024000127A001C77000800093D00E5
:101C40002DE9F84F040070D02078C04DC00749D06E
:101C50006868C0F38100012807D06868C0F381007C
:101C6000022809D16868C00306D52868800339D5E1
:101C700060680028E7D035E06068B0F5803F0BD0A1
:101C800010B1B0F5A02F11D0286820F48030286062
:101C9000286820F4802002E0286840F48030286022
:101CA000606890B1FFF7DCFC06460AE0286840F463
:101CB00080202860F0E700BFFFF7D2FC801B64287B
:101CC00073D828688003F7D50CE0FFF7C9FC0646F7
:101CD00005E000BFFFF7C4FC801B6428F0D828682B
:101CE0008003F7D420789A4E80074FF001094FF017
:101CF000000839D5686810F00C0F07D06868C0F389
:101D00008100022809D16868C00306D428688007CA
:101D100014D52069012808D110E02069B0B1C6F8B7
:101D20000090FFF79DFC074605E00AE1FFF798FCED
:101D3000C01B0228C4D828688007F7D528686169C5
:101D400020F0F80040EAC10028600DE0C6F80080ED
:101D5000FFF786FC074604E0FFF782FCC01B022861
:101D600023D828688007F7D4207800072CD5794835
:101D7000A169D9B1C0F80090FFF772FC074604E0F2
:101D8000FFF76EFCC01B02280FD8686A8007F7D5E2
:101D900071484FF4FA510068B0FBF1F0009000BFB9
:101DA0000098411E0091FAD20EE080E0C0F8008059
:101DB000FFF756FC074604E0FFF752FCC01B022861
:101DC00075D8686A8007F7D42078400760D5E8693D
:101DD0000027C00008D4E86940F08050E861E86955
:101DE000012700F0805000905C480168C90513D4B9
:101DF0000168834641F480710160FFF731FC82463F
:101E000006E000BFFFF72CFCA0EB0A0064284ED8C8
:101E1000DBF80000C005F5D5E06801280AD008B15C
:101E2000052813D0286A20F001002862286A20F0D3
:101E3000040002E0286A40F001002862E06841F2F4
:101E4000883B98B1FFF70CFC82460BE0286A40F013
:101E500004002862EEE700BFFFF702FCA0EB0A01D6
:101E600059455AD8286A8007F6D50CE0FFF7F8FBE9
:101E7000824605E0FFF7F4FBA0EB0A0159454CD878
:101E8000286A8007F6D41FB1E86920F08050E86125
:101E9000E06988B36968C1F38101022944D002284E
:101EA000C6F8608004D0FFF7DBFB044638E034E07E
:101EB000FFF7D6FB074604E0FFF7D2FBC01B022862
:101EC0002BD828688001F7D4206AB0F5803F05D16F
:101ED0006868A16820F4003008436860D4E908010C
:101EE0000843696821F4741108436860C6F860907B
:101EF000FFF7B6FB044606E025E000BFFFF7B0FBA6
:101F0000001B022809D828688001F7D51BE000BF14
:101F1000FFF7A6FB001B022802D90320BDE8F88FBB
:101F200028688001F4D40EE00128F7D06868226A9E
:101F300000F48031914204D1616A00F4701088424B
:101F400001D00120EAE70020E8E70000001002408D
:101F500000004242800442426C00002000700040B9
:101F600010B5401EB0F1807F01D3012010BD4FF0AD
:101F7000E02460610F21601700F012FD0020A061D5
:101F800007202061002010BDFEE701684A69D243A6
:101F900052050FD46FF480624A61002140F8301F6F
:101FA000202242738173026942F0040202610173CC
:101FB00001207047002070472DE9F843044600686F
:101FC0000D46DDE9089701689846164641F4807190
:101FD00001604B4600224FF001112046009700F0AF
:101FE0006BF848B120680068C00502D54FF4007056
:101FF00020640320BDE8F883216805F0FE00086135
:102000003B464A461549204600F09EF888B92068AC
:102010004169806900903A464946204600F0F2F84E
:1020200048B1206C042804D12068016841F4007193
:1020300001600120DEE7F5B2B8F1010F09D0216897
:10204000300A08613A464946204600F0DBF800288D
:10205000E7D1206805610020CCE700000200010004
:1020600070B516460D4604461EE02046FFF78DFF6C
:1020700008B1012070BD681C16D0FFF7F1FA801B73
:10208000A84200D885B920684069C04340070BD5F5
:10209000002044F8300F20216173A073216941F0C2
:1020A000200121612073E4E720684069C0434007B4
:1020B000DBD4002070BD00002DE9F047984617469C
:1020C0000D460446C1F30746DDF820902AE000BF24
:1020D000B8F1FF3F26D0FFF7C3FAA0EB0901414555
:1020E00002D8B8F1000F1DD12068012E16D08069EA
:1020F00025EA00000004000C12D00020B84211D1E3
:10210000002044F8300F20216173A073216941F051
:102110002001216120730120BDE8F0874069E7E7D5
:102120000120EBE72068012E0AD0806925EA000033
:102130000004000C06D00020B842C9D00020EBE714
:102140004069F3E70120F7E72DE9F0479846164686
:102150000D4604464FF000094FF0200AC1F307472F
:1021600023E020684069C043400515D42068016819
:1021700041F40071016021686FF480604861C4F827
:10218000309084F83DA084F83E90216C41F0040129
:10219000216484F83C9021E0701C06D0FFF760FABF
:1021A000A0EB0800B04203D816B1012F1FD021E0E8
:1021B0002068012F15D0806925EA00000004000C7A
:1021C00018D000BF44F8309F84F80DA084F80E901A
:1021D000216941F02001216184F80C900120BDE8C3
:1021E000F087406925EA00000004000CEAD120686D
:1021F000406901E02068806925EA00000004000CC5
:10220000AFD1ECE770B516460D4604461EE02046F9
:10221000FFF7BBFE08B1012070BD681C16D0FFF7A8
:102220001FFA801BA84200D885B920684069C043C6
:1022300000060BD5002044F8300F20216173A073F5
:10224000216941F0200121612073E4E720684069A1
:10225000C0430006DBD4002070BD000010B50E4C5A
:10226000002208212046FFF7F6F900F017F80122B6
:1022700010212046FFF7EFF900F010F8002210219E
:102280002046FFF7E8F900F009F820460122BDE8F2
:1022900010400821FFF7DFB9000C01400020401C6E
:1022A000C0B20A28FBD370470C4800B5816985B0DD
:1022B00041F0080181618069694600F008000490DE
:1022C0001820009003200390112001900448FFF78C
:1022D000CDF800F09DF805B000BD000000100240F0
:1022E000000C014010B50C4C012208212046FFF7DC
:1022F000B2F9FFF7D3FF012210212046FFF7ABF917
:10230000FFF7CCFF002210212046FFF7A4F9BDE81B
:102310001040FFF7C3BF0000000C01402DE9F04161
:102320000024134E074625466006040E01221021A4
:102330003046FFF790F9FFF7B1FF08213046FFF76D
:1023400085F908B1641CE4B2002210213046FFF781
:1023500082F9FFF7A3FF6D1CEDB2082DE4D327B17E
:10236000FFF77CFF2046BDE8F081FFF7BBFFF9E7F0
:10237000000C014070B5154E05460024280601D515
:10238000012200E0002208213046FFF764F9FFF740
:1023900085FF012210213046FFF75DF9FFF77EFF30
:1023A000002210213046FFF756F9072C04D10122F4
:1023B00008213046FFF74FF96806050EFFF76EFF5C
:1023C000641CE4B2082CD9D370BD0000000C01409D
:1023D00010B50E4C012208212046FFF73CF90122DE
:1023E00010212046FFF737F9FFF758FF0022082198
:1023F0002046FFF730F9FFF751FF00221021204659
:10240000FFF729F9BDE81040FFF748BF000C014075
:1024100010B50A4C002208212046FFF71CF90122C2
:1024200010212046FFF717F9FFF738FF2046012259
:10243000BDE810400821FFF70EB90000000C014074
:1024400070B5104D012208212846FFF704F9FFF767
:1024500025FF012210212846FFF7FDF8FFF71EFF98
:1024600008212846FFF7F2F808B1012400E0002413
:10247000002210212846FFF7EEF8FFF70FFF204655
:1024800070BD0000000C014010B5FFF70DFF80216A
:102490006B2000F0C0F86420FEF7D6FF00216B200F
:1024A00000F0B9F8032000F082F8002000F07AF87C
:1024B000322000F099F80021382000F0ACF800211B
:1024C0006A2000F0A8F80021232000F0A4F8802161
:1024D000372000F0A0F8752000F011F8682801D02E
:1024E000012010BD01216B2000F095F800216C2027
:1024F00000F091F8322000F077F8002010BD10B500
:102500000446FFF765FFD020FFF734FFFFF798FF81
:102510002046FFF72FFFFFF793FFFFF759FFD1206A
:10252000FFF728FFFFF78CFF0020FFF7F7FE0446B8
:10253000FFF76EFF204610BD2DE9F0411D46144601
:102540000F460646FFF744FF7006000EFFF712FF26
:10255000FFF776FF20B1FFF75BFF0120BDE8F081B8
:102560003846FFF707FFFFF76BFFFFF731FF01204A
:1025700000EB4600C0B2FFF7FDFEFFF761FF09E088
:10258000012C0DD05FF00100FFF7C8FE641E05F8B6
:10259000010BE4B2002CF3D1FFF73AFF0020DDE796
:1025A0000020F1E7C006010E1C2000F034B8C00680
:1025B000010E1B2000F02FB8BC2801D3012110E030
:1025C000622801D302210CE02A2801D3032108E06C
:1025D000142801D3042104E00A2801D3052100E0D6
:1025E00006211A2000F017B810B504464FF47A708F
:1025F000844201D9044602E0042C00D20424B0FB3A
:10260000F4F0401EC1B2192000F005F86008BDE8E2
:102610001040FFF7D1BF70B50C460546FFF7D8FE56
:10262000D020FFF7A7FEFFF70BFF50B92846FFF7B2
:10263000A1FEFFF705FF2046FFF79CFEFFF700FF16
:1026400018B1FFF7E5FE012070BDFFF7E1FE0020A5
:1026500070BD2DE9F0411E4615460F460446FFF7B2
:10266000B7FE6006000EFFF785FEFFF7E9FE60B9D2
:102670003846FFF77FFEFFF7E3FE00240CE0305DF5
:10268000FFF778FEFFF7DCFE20B1FFF7C1FE012067
:10269000BDE8F081641CE4B2AC42F0D3FFF7B8FEB1
:1026A0000020F5E730B585B000241C480094019463
:1026B00002940394816941F010018161816901F004
:1026C00010010491816941F020018161816901F06B
:1026D00020010491816941F004018161816901F067
:1026E00004010491816941F00801816180690C4D08
:1026F00000F008000490002218212846FEF7ABFFE6
:10270000182000900120CDE90104022003906946C1
:102710002846FEF7ABFE05B030BD000000100240B9
:10272000000C01400D4810B50B4901600C49416097
:1027300000214FF480428160C0E903124161816150
:10274000C1610162FEF792FF002803D0BDE810408E
:10275000FEF777BE10BD000000540040940000203A
:10276000A0860100FEE7FEE770B5002404F1B0008A
:10277000C0B200F08DF8002000F08AF8102000F0C0
:1027800087F80025002000F095F86D1CEDB2802D33
:10279000F8D3641CE4B2082CE8D370BD10B5C8208F
:1027A000FEF752FEBDE8104000F0CCB810B504466C
:1027B000B031C8B200F06CF8102040EA141000F0FC
:1027C00067F804F00F00BDE8104000F061B80000A9
:1027D0002DE9F041203A00240D468046D6B27F28EC
:1027E00003D900208D1C8046EDB2102B29460FD056
:1027F000FFF7DCFF164906EB460001EB4005285DBC
:1028000000F058F8641CE4B2062CF8D3BDE8F0815F
:10281000FFF7CCFF0F4F00BF04EB0610385C00F051
:1028200049F8641CE4B2082CF6D36D1CE9B24046AA
:10283000FFF7BCFF5FF0000404EB06103844007A99
:1028400000F038F8641CE4B2082CF5D3DEE7000091
:102850000A610008326300082DE9F04198461746E6
:102860000E46044600250DE0434631462046FFF75C
:10287000AFFF0834E4B2782C02D90024B61CF6B2BB
:102880006D1CEDB27A5D002AEED1BDE8F08100004A
:1028900001B584B001214FF4807204A88DE80700CF
:1028A0000B46002278210248FEF7A4FF05B000BDC8
:1028B0009400002001B584B001214FF4807204A877
:1028C0008DE807000B46402278210248FEF792FF70
:1028D00005B000BD9400002070477047FFF75AB85C
:1028E00030B58FB028216846FDF76DFD14210AA888
:1028F000FDF769FD01210804CDE9001000240294D0
:1029000002250491CDE907504FF4E0100990684684
:10291000FFF796F908B172B6FEE70F20CDE90A0578
:102920004FF48060CDE90C4002210AA80E94FFF715
:10293000BBF8002801D072B6FEE70FB030BD70477B
:10294000FEE70000FEB50024094F4FF48075012614
:102950003819CDE9000601230022782102950548A7
:10296000FEF748FF641CE4B21B2CF1D3FEBD00004F
:102970000000002094000020490050EAC12018BF48
:1029800004204A0D18BF40F0010040F2FF72B2EB84
:10299000515F08BF40F00200012808BF05207047C2
:1029A0000907090E002804DB00F1E02080F800147C
:1029B000704700F00F0000F1E02080F8141D704710
:1029C0002DE9F0414F1E00EBC7010446D1E900019B
:1029D00015461E4637F006020DD02A46334602F051
:1029E0001BFD7F1E04EBC703D3E9002302F00CFBA1
:1029F00037F00602F1D1022F25D0042F13D0062F75
:102A000018BFBDE8F0812A46334602F005FDD4E93F
:102A10000A2302F0F9FA2A46334602F0FDFCD4E913
:102A2000082302F0F1FA2A46334602F0F5FCD4E915
:102A3000062302F0E9FA2A46334602F0EDFCD4E917
:102A4000042302F0E1FA2A46334602F0E5FCD4E919
:102A5000022302F0D9FA2A46334602F0DDFCD4E91B
:102A60000023BDE8F04102F0CFBA012203F0E1BA41
:102A700002F0CABA002213461046114602F074BB97
:102A8000024A0020110703F0D4BA000001FDFFFF45
:102A900030380A2801D2012070470020704700001A
:102AA0002DE9FE4F07460E460025684600F0DAFF86
:102AB00000246FF00F0AE8464FF0010957F8240090
:102AC00056F82410401A00D5404203F011F951463F
:102AD00003F0DDFA58F8241011F0FF4F0BD003F08B
:102AE00009F84FF07E5103F0FBF90A4920F000404D
:102AF000884205DC07E0084908440849884202D3B7
:102B000009FA04F00543641C032CD7DB2846BDE812
:102B1000FE8F0000295C0F3E666666C19A99D90057
:102B20002DE9F04D8D4F21F0004A86B005460C4648
:102B3000BA452ADBAAEB070028430AD08848824519
:102B400001DC1AD1CDB106B02846BDE8F04DFFF743
:102B50008CBF844A844B284602F05EFC07460E4632
:102B6000824A834B2846214602F056FC06B03A467C
:102B70003346BDE8F04D02F047BA0120FDF7C9FC2D
:102B800006B0BDE8F04DFFF775BF7A48824542DADE
:102B9000BAF1795F0BDA2846FFF7EEFE042808BF8A
:102BA000FFF76EFF284606B02146BDE8F08D2A46A5
:102BB0000B46104602F030FC834602466E480E4635
:102BC0000B4606217844FFF7FBFE5A46334602F0D7
:102BD00023FC804669488A465A4633460421784495
:102BE000FFF7EEFE5A46334602F016FC00223B4643
:102BF00002F00AFA02460B464046514602F0B4FA89
:102C00002A46234602F008FC06B02A462346BDE8C1
:102C1000F04D02F0F9B9284624F0004100223D466B
:102C20003B4602F0F7FC4FF0FF3203F002FA064693
:102C3000024653480F460B4606217844FFF7C0FE74
:102C400032463B4602F0E8FBCDE900014D483246F2
:102C50003B4604217844FFF7B3FE32463B4602F080
:102C6000DBFB00222B4602F0CFF98346029130466F
:102C7000394602F05BF9804643480D46504517DC63
:102C8000DDE900015A46029B02F06EFA42462B46ED
:102C900002F0C2FB42462B4602F0B6F9012203F0D5
:102CA000C8F9304A304B02F0A7FD304A304B4CE0B7
:102CB0004FF0000A52460B46404602F0A5F9CDE916
:102CC000031052462B461046194602F0A5FB324629
:102CD0003B4602F09FFCDDE9033202F045FA06466E
:102CE0000F46DDE900015A46029B02F03DFA834699
:102CF000009101223046394603F09BF9194A1A4BDC
:102D000002F088FC06460F4601224046294603F0A1
:102D100090F95A46009B02F07FFB32463B4602F098
:102D20006BFD06460F4601225046294603F081F905
:102D30000E4DDFF858802A46434602F06BFC3246BF
:102D40003B4602F067FC2A46434602F063FC002C37
:102D5000D8BF81F0004106B0BDE8F08D0000F03F23
:102D60000000F07F075C143326A6913C182D4454D4
:102D7000FB21F93F0000E03F804B0000964B000034
:102D80000A4B0000204B00003333EF3FFB21E93FAB
:102D90002DE9F84F04460D4621F00040009173499B
:102DA000814211DC7249884201DC06D12CB12046F7
:102DB0002946BDE8F84FFFF758BE6E48002DCCBF3E
:102DC0006D496E49BDE8F88F6D49814211DD6D494D
:102DD0008142D8BF4FF0FF366DDD20462946FFF710
:102DE000CBFD042808BFFFF74BFE20462946BDE86F
:102DF000F88F6549654F25F00045814233DD644910
:102E0000814219DD002632464FF080432046294694
:102E100002F0FAF880468A4601222046294603F04D
:102E200008F900223B4602F0E7FC4246534602F016
:102E30009BF904460D463EE001260022BA463B4679
:102E40002046294602F0E0F880460F46002253460D
:102E50002046294602F0D0FC42463B4602F084F967
:102E600004460D4627E04B4981421BDDDFF828A1CF
:102E70000226002253462046294602F0CDFA0022BF
:102E80003B4602F0C1F880460F46002253462046DA
:102E9000294602F0B1FC42463B4602F065F9044681
:102EA0000D4608E0032622462B4600203B4902F04F
:102EB0005BF904460D4622462B461046194602F0A1
:102EC000ABFA8B46824602460B4602F0A5FA07464D
:102ED0000246334888460B4606217844FFF770FDCA
:102EE00052465B4602F098FA82462E488B463A4696
:102EF000434605217844FFF763FD3A46434602F016
:102F00008BFA02460B46002E504659460CDA02F068
:102F10007BF822462B4602F07FFA01B022462B4670
:102F2000BDE8F04F02F076BB02F06EF822462B4669
:102F300002F072FA1C4A7A4402EBC603D3E900237A
:102F400002F05AFC22462B4602F056FC174A7A44FD
:102F500002EBC603D3E9002302F05CFB009A002ACF
:102F6000B8BF81F00041BDE8F88F000000001044B8
:102F70000000F07F182D4454FB21F93FFB21F9BFDD
:102F80000000DC3F0000203E0000F33F0000F03F67
:102F90000000E63F008003400000F83F0000F0BF63
:102FA00022490000E04800007E480000464800003A
:102FB0002DE9F04D9446CCF1000423F000464CEA94
:102FC0000404524F46EAD4749A46884621F00042DF
:102FD000BC4206D8454240EA050442EAD474BC42E9
:102FE00004D9BDE8F04D6246FFF742BDAAF1405555
:102FF000A5F17F6555EA0C040BD0022404EAAA74FB
:10300000434DDFF810E144EAD87452EA000B04D0D3
:103010000CE0BDE8F04DFFF7BBBE002C14BF012C47
:10302000BDE8F08D022C30D0032C32D056EA0C0BC8
:103030000AD0BE4220D1BA4209D126F0804622F001
:1030400080423346114617E000291ADB25E0DFF8FD
:10305000C8B0FB44002C04BFDBE90001BDE8F08DE3
:10306000012C02BFDBE9000181F00041BDE8F08DD9
:10307000022C0AD0032C0CD0BA4212D1B8F1000FA6
:103080000BDA23482549BDE8F08D28462449BDE8E0
:10309000F08D28467146BDE8F08D1D482149BDE8F8
:1030A000F08D921B12153C2AC4BF19481D490EDC35
:1030B000BAF1000FBEBF12F13C0F0020014606DB43
:1030C000624602F051F821F00041FFF761FE002C4A
:1030D00008BFBDE8F08D012C04BF81F00041BDE8C0
:1030E000F08D114A114B022C07D002F085FB2A46C5
:1030F000BDE8F04D0A4B02F07FBB02F07DFB2A4693
:10310000BDE8F04D064B02F085BA00000000F07FEC
:10311000182D4454FB2109C0DA470000FB21F9BFF8
:10312000FB210940FB21F93F075C143326A6A13C93
:1031300008B560B120208DF8000028208DF801002E
:1031400030208DF8020038208DF8030004E0A3221F
:1031500004216846FDF72FF96A46042140F69E20B7
:1031600001F04EFE01F00CFB08BD00003EB5044628
:1031700002208DF80000CA208DF80100E3208DF8B0
:10318000020009208DF803006A460421682001F03E
:1031900037FEA3208DF80000610609D5C0218DF807
:1031A0000110C8218DF80210C2218DF8031005E02E
:1031B0008DF801008DF802008DF8030014F4C07F33
:1031C00009D0C4218DF80410CC218DF80510C6213A
:1031D0008DF8061005E08DF804008DF805008DF8D7
:1031E00006008DF808008DF807008DF809006A4682
:1031F0000A2140F6A72001F003FEA0074FF0D805F2
:1032000003D020208DF8000001E08DF800506A46C0
:10321000012140F6B62001F0F3FDA00601D5012002
:1032200000E0002000F08EF814F4C07F1ED0E0050E
:103230000AD5B2208DF800008B208DF80100B62051
:103240008DF802009B2009E0B0208DF8000080205E
:103250008DF80100B4208DF8020090208DF8030055
:103260006A46042140F6A22001F0CAFDE1074FF4AE
:103270000B6022D0F8218DF800106A46012101F080
:10328000BFFDFA21072000F039FB072000F004FB06
:10329000012000F021FB642000F0C4FB4FF4FA7021
:1032A00000F0D0FBC821254800F0BEFA282000F02D
:1032B000D3FA0A2000F0E0FA05E08DF800506A46E3
:1032C000012101F09DFDA00703D5D9208DF8000054
:1032D00001E08DF800506A46012140F23D7001F096
:1032E0008FFD600701D5012000E0002000F048F8C4
:1032F000E00601D5012000E00020FFF719FF104D86
:1033000044F00800688101F03BFA0020A8736006D1
:1033100001D50620A87314F4C07F02D0A87B801DBD
:10332000A87314F0140F02D0A87B1030A873A00764
:1033300002D0A87B001DA87300203EBD09E3CA028D
:10334000700000200EB54FF4976310B106A107C9B5
:1033500001E008A207CA8DE807006A46092118465D
:1033600001F04EFD0EBD0000B8AAB38DB4980D3526
:103370005D000000B8AAAAAAB088C3C5C7000000B3
:1033800008B560B1C0208DF80000C2208DF80100A2
:10339000C4208DF80200C6208DF8030004E08B22C3
:1033A00004216846FDF707F86A46042140F6982094
:1033B00001F026FD01F0E4F908BD0000C8234FF438
:1033C0008062024940F6F63001F0BCB8246B000878
:1033D0002DE9FF4F89B01746DDE9165200244C4E07
:1033E000884681462C80A246B07B694601F056F99A
:1033F0004FF0FF3B18B158460DB0BDE8F08F708913
:1034000010F0140F3CD0009909BA21F0FF039DF889
:1034100003100B433B6001991B1409BA21F0FF0212
:103420009DF807105B430A437A6002999DF80B40B0
:1034300009BA21F0FF012143B960039C091424BAA1
:1034400024F0FF0C9DF80F4012144CEA040CC7F84E
:103450000CC04FEA2C47494302FB023207FB07111D
:1034600011441024A1F17061B1F1007F04D901F081
:1034700087F9A5F800A0BEE7298841F4807129806A
:103480004206694611D50A19A41D13885BBAA8F82B
:10349000003053885BBAA8F80230928852BAA8F874
:1034A00004202A8842F008022A8010F4C07F11D03C
:1034B0000A19A41D13885BBAA9F8003053885BBAB7
:1034C000A9F80230928852BAA9F804202A8842F05A
:1034D00070022A80800716D00C44E07800F0C00506
:1034E00000F03F016078C00706D0C80801F007016E
:1034F0003268491C02B190476078000703D57168B3
:1035000009B1A80988470C9800F09AFD002073E7DC
:10351000700000202DE9FF41044603A800F0FAFEE8
:10352000BDF80C00410CC3032F48028902F00300D0
:10353000550754F8200000D54042C2F3C105960655
:1035400054F8255000D56D42C2F38116D20554F8C7
:10355000264000D56442A0FB0367C21702FB03723A
:1035600000FB0120820042EA9670A5FB0367EA1780
:1035700002FB037205FB0122950045EA9672A4FB4B
:103580000367E51705FB037304FB01318B0043EA76
:103590009671030E8DF80030030C8DF80130030A8C
:1035A0008DF802308DF80300100E8DF80400100C19
:1035B0008DF80500100A8DF80600080E8DF8080039
:1035C000080C8DF80900080A8DF80A008DF807200C
:1035D0008DF80B106A460C214FF4257001F010FC99
:1035E00004B0BDE8F08100007000002030B5044652
:1035F00013A285B007CA8DE807004FF0FF35C82C2D
:1036000016D8C820B0FBF4F1491E080A8DF80C004A
:103610008DF80D1003AA022140F2162001F0F0FBF4
:1036200030B96A460C2140F6C12001F0E9FB10B127
:10363000284605B030BD054884810020F9E7000028
:10364000FEF2ABC4AAF1DFDFBBAFDFDF700000200A
:10365000F8B53049098901F0030250F822404A07C1
:1036600000D56442C1F3C1028B0650F8222000D578
:103670005242C1F3811350F82330C80500D55B4294
:10368000254984FB0140850045EA947082FB014294
:10369000A40F44EA820483FB0121950F45EA8105CA
:1036A000010E8DF80010010C8DF80110010A8DF843
:1036B00002108DF803006A4604214FF4747001F083
:1036C0009FFB4FF0FF3688B9200E8DF80000200CCC
:1036D0008DF80100200A8DF802008DF803406A463B
:1036E00004214FF4757001F08BFB08B13046F8BD32
:1036F000280E8DF80000280C8DF80100280A8DF89E
:1037000002008DF803506A4604214FF4767001F0F0
:1037100077FBF8BD7000002009E3CA022DE9FF41E4
:1037200004463CA004F00303006802903AA000683D
:1037300003903AA006683AA0056802A8C15C8DF81B
:103740000010C4F3C101425C8DF80120C4F3811262
:10375000805C8DF8020003A8C35C8DF80430415CE6
:103760008DF80510805C8DF806006A46032140F252
:10377000264001F045FB4FF0FF37E0BB01AA0321D3
:1037800040F22A4001F03CFBA8BBCDE90065600790
:103790000BD59DF8000040F001008DF800009DF869
:1037A000040040F001008DF80400A0060BD59DF840
:1037B000010040F001008DF801009DF8050040F087
:1037C00001008DF80500E0050BD59DF8020040F0E2
:1037D00001008DF802009DF8060040F001008DF810
:1037E00006006A4603214FF4886001F009FB10B916
:1037F00001AA032100E004E040F2314001F000FBA7
:1038000018B1384604B0BDE8F081064804810020B4
:10381000F8E700004CCD6C000CC92C003656760041
:1038200026466600700000204FF47A7290FBF2F09A
:1038300008B54843010E8DF80010010C8DF80110F9
:10384000010A8DF802108DF803006A4604214FF436
:10385000AE7001F0D5FA08BD0521B0FBF1F008B556
:10386000010A8DF800108DF801006A4602214FF41C
:10387000AD7001F0C5FA08BD0521B0FBF1F008B547
:10388000010A8DF800108DF801006A4602214FF4FC
:10389000AC7001F0B5FA08BD08B500218DF8001034
:1038A000C10702D030218DF80010810705D59DF8A1
:1038B000001041F00C018DF80010400705D59DF86F
:1038C000000040F003008DF800006A4601214FF42B
:1038D000A47001F095FA08BD08B560B1042800D9BC
:1038E0000420401E8DF800006A46012140F24F106E
:1038F00001F086FA08BD0120F3E700002DE9FC4144
:10390000054640074FF0FF367CD0B1F5C86F79D837
:10391000084602F005FA3E4902F0ECF8074601A815
:1039200000F0DAFC9DF80400022806D004280DD02F
:1039300008282ED0102865D134E00E21384602F038
:10394000A6FB02F0B5F984B2324907E00D213846F2
:1039500002F09DFB02F0ACF92F4984B2384602F028
:10396000F3F902F0A5F9210A8DF8001080B28DF864
:103970000140010A8DF802108DF80300E8076C463B
:1039800020D0224602214FF4EA7001F039FAC8BB78
:1039900011E00C21384602F07AFB02F089F984B27A
:1039A0001E49DBE70B21384602F071FB02F080F97B
:1039B00084B21B49D2E7A21C02214FF4927001F09D
:1039C0001FFAF8B9A8070DD56A4602214FF4EC702A
:1039D00001F016FAB0B9A21C02214FF4947001F064
:1039E0000FFA78B9680710D56A4602214FF4EE70D5
:1039F00001F006FA30B9A21C02214FF4967001F0D2
:103A0000FFF910B13046BDE8FC810020FBE7000063
:103A100000004843000040460000C045000040450B
:103A20000000C0440521B0FBF1F008B5010A8DF893
:103A300000108DF801006A4602214FF4EF7001F08A
:103A4000DFF908BD0521B0FBF1F008B5010A8DF8DA
:103A500000108DF801006A4602214FF4ED7001F06C
:103A6000CFF908BD2DE9FE430646264801AB0422E6
:103A700040680D210078FEF75FFD10B10720BDE81A
:103A8000FE839DF804101C2000EAD1029DF8071067
:103A9000DFF87490C1F301131A438DF800209DF8EC
:103AA0000520C1F3810300EAD2021A438DF80120F8
:103AB0009DF8062001F0030100EAD200084300242B
:103AC000124F8DF80200A0466D46285D10B146F8F1
:103AD00024900AE046F824800DE000BF56F8240048
:103AE000394602F031F946F82400285D401E10F0F6
:103AF000FF002855F2D1641CE4B2032CE5D300206A
:103B0000BDE700001C0000207B14AE3E1D5A843F20
:103B10002DE9FE4F05460120C14E8DF800004FF003
:103B200000088DF8018030680C461746817C70686B
:103B30006B4602220078FEF78CFD4FF0FF3A00281A
:103B40007AD1C820FDF780FC8DF8008030686B4684
:103B50000122C17B70680078FEF77BFD0028EFD161
:103B600030686B460122417970680078FEF771FD7C
:103B70000028E5D130686B460122817C70680078AE
:103B8000FEF767FD0028DBD130686B460122C17D5E
:103B900070680078FEF75DFD0028D1D130686B4673
:103BA0000122017970680078FEF753FD0028C7D123
:103BB0004FF00C098DF8009030686B4601220179B6
:103BC00070680078FEF745FD002835D10F20FDF71D
:103BD0003BFCB06A6B460122407A8DF800003068E9
:103BE000817870680078FEF734FD002824D1B06A2F
:103BF0006B460122007A8DF80000306841787068C9
:103C00000078FEF726FD002873D1B06A807A0FB1E4
:103C100040F0E0008DF8000030686B4601228179A9
:103C200070680078FEF715FD002862D12FB1B06AE8
:103C3000C07A40F0E00001E04AE018208DF8000072
:103C400030686B460122C17970680078FEF701FD8B
:103C5000F0BB17B1C820FDF7F7FB40208DF800003E
:103C600030686B460122017970680078FEF7F1FC3C
:103C700070BB78208DF8000030686B4601224179D6
:103C800070680078FEF7E5FC10BB3220FDF7DCFB26
:103C90008DF80080306847466B4641797068012294
:103CA0000078FEF7D6FC98B931687068B046897A1A
:103CB00000786B460222FEF73FFC48B9BDF80000D1
:103CC000AF6040BAB0FBF9F06F60C6B22F6000E0A1
:103CD0000FE0A76067602760002739E0D8F8001080
:103CE000D8F804006B46C97A00780C22FEF724FC51
:103CF00010B15046BDE8FE8FBDF80000236840BA01
:103D000002B2BDF80200BDF804101A44226040BAA5
:103D1000626800B21044606049BAA06809B2084401
:103D2000A060BDF806002B6840BA02B2BDF80800DA
:103D30001A4440BA01B2BDF80A002A606A6840BA63
:103D400011446960A96800B208447F1CFFB2A860F2
:103D5000B742C3D328688322C117090441EA10413E
:103D600000040023FCF73CFA32460023FCF738FA43
:103D7000286068688322C117090441EA10410004E1
:103D80000023FCF72DFA32460023FCF729FA68607D
:103D9000A8688322C117090441EA104100040023E6
:103DA000FCF71EFA32460023FCF71AFAA8602068D6
:103DB0004FF40065C117090441EA104100042A4686
:103DC0000023FCF70DFA32460023FCF709FA2060C5
:103DD00060682A46C117090441EA10410004002323
:103DE000FCF7FEF932460023FCF7FAF96060A068A0
:103DF0002A46C117090441EA104100040023FCF7D8
:103E0000EFF932460023FCF7EBF9A060002802DD51
:103E1000A0F5803001E000F58030A060002069E767
:103E20001C0000202DE9F84F81462E4888460025C9
:103E300040686B46032200780D21FEF77DFB10B130
:103E40000720BDE8F88F9DF80000002400F01F0057
:103E50008DF800009DF801006FF00F0B00F01F00BF
:103E60008DF801009DF802006E4600F01F008DF8ED
:103E700002004FF0010A00BF59F8241058F824003E
:103E8000081A00D5404201F033FF594602F0FFF80E
:103E90000746305DC0B1144802E0144901F054FFF8
:103EA000315D491E11F0FF013155F6D1014638460A
:103EB00001F020FE4FF07E5102F012F80C4920F084
:103EC0000040884205DC07E00A483844B0F1D97F59
:103ED00002D90AFA04F00543641C032CCCDB284603
:103EE000AFE700001C0000200000C84154E3853FFC
:103EF000295C0F3E0000E0BE00B5024600F00DF860
:103F00000346D01C00F009F843EAC003901D00F0FE
:103F100004F843EA801080B200BD90F90010002937
:103F200002DD4FF00000704702DA4FF004007047E6
:103F300090F90110002902DD4FF00100704702DA0C
:103F40004FF00500704790F90200002802DD4FF0A5
:103F50000200704702DA4FF0060070474FF007008A
:103F600070470000FDF71EFDFEF7BAFCFEF79AFB56
:103F7000FEF7D8FBFEF712FCFEF7F6FBFEF784FA1D
:103F800000F058F9002110231DA20846FEF764FC3A
:103F90001E4C0A20FDF758FA1C4A0832111F081F50
:103FA00000F07AF8206801F011FD02460B4618A1D6
:103FB0001B48FCF739F91023194A02210020FEF7AB
:103FC0004BFC606801F002FD02460B4615A1144847
:103FD000FCF72AF91023124A04210020FEF73CFCCA
:103FE000A06801F0F3FC02460B4612A10C48FCF756
:103FF0001BF910230A4A06210020FEF72DFCC8E712
:10400000496E697420537563657373005400002012
:1040100070697463683A252E326620202000000003
:1040200080000020726F6C6C3A252E3266202020B2
:10403000000000007961773A252E326620202000AA
:10404000704700002DE9F041124C20F001010025DD
:1040500094F8240010B10020BDE8F081A07A4FF060
:10406000FF3668B10840277C2074884200D035466E
:1040700041B1012000F02EFF00F082FB38B127741F
:104080003046E9E7207D00B1012000F023FF2846FB
:10409000E2E700001C0000202DE9F74F8EB00CA9CC
:1040A00002A8CDE900010BAB03AA09A907A8FFF7F5
:1040B0008FF918B1012011B0BDE8F08FBDF80800EC
:1040C000C0057DD5039801F013FE6FF01D04214655
:1040D00001F0DDFF8246049801F00AFE214601F05E
:1040E000D6FF8146059801F003FE214601F0CFFF7F
:1040F0008046069801F0FCFD214601F0C8FF054608
:104100000121504601F0C3FF0646414601F01CFE66
:1041100004464FF04041484601F016FE0746294646
:1041200001F012FE214601F07DFC01F04FFCFEF78C
:10413000F7FC4FF0663B5A463D4B01F06DF900F03D
:1041400031FF0E9908600121404601F0A0FF414671
:10415000009001F0F9FD04463846494601F0F4FDAF
:10416000214601F0BDFE4FF07E5101F05BFC01F0F5
:104170002DFC07460C463046494601F0E5FD064653
:104180002946009801F0E0FD314601F04BFC01F0BA
:104190001DFC3A462346FEF70BFF5A46244B01F01E
:1041A0003BF900F0FFFE0F9908602946084601F030
:1041B000CBFD07464146084601F0C6FD064600E035
:1041C00034E04946084601F0BFFD04465146084622
:1041D00001F0BAFD214601F025FC314601F080FED8
:1041E000394601F07DFE01F0F1FB06460C462946FA
:1041F000504601F0A9FD05464146484601F0A4FDA0
:10420000294601F00FFC012101F041FF01F0DEFB26
:1042100032462346FEF7CCFE5A46054B01F0FCF829
:1042200000F0C0FE10990860002044E7022042E739
:1042300066A64C4010B5FEF737F800F0F1F808B16B
:104240000A2010BD782000F07FFD10F0FF0F01D094
:10425000012010BD7820FFF7F5FE10F0FF0F01D010
:10426000022010BD642000F02FFD10F0FF0F01D0E0
:10427000032010BDFFF7A2F810F0FF0F01D00420BB
:1042800010BD1448FFF738FEFFF748FA10F0FF0F93
:1042900001D0052010BD40F27310FEF767FF10F04B
:1042A000FF0F01D0062010BD6420FFF79FF910F02A
:1042B000FF0F01D0072010BD00F0CCFD08B1082091
:1042C00010BD012000F026FC10F0FF00F8D00920FE
:1042D00010BD0000480000200D494A7A42B1012A71
:1042E00008D0022A0FD0032A0FD04FF0FF307047BA
:1042F000022200E004220270C97C11B11106C90D2E
:104300000170002070470822F5E71022F3E7000053
:104310001C0000200F494A7A42B1012A09D0022A22
:1043200011D0032A12D04FF0FF3070474FF4804273
:1043300001E041F69C720280C97C11B1C2F34E01CA
:104340000180002070474FF48052F4E74FF4006280
:10435000F1E700001C0000200B49097A39B101295E
:1043600007D002290AD003290BD0002103E0FA214B
:1043700001E04FF4FA710180002070474FF47A7128
:10438000F9E74FF4FA61F6E71C0000200A49097AC0
:1043900041B1012908D002290AD003290AD04FF0DF
:1043A000FF307047054900E0054901600020704773
:1043B0000449FAE70449F8E71C0000200000034321
:1043C0000000834233330342333383410C49C97ABB
:1043D000072913D2DFE801F01204060A0C0E1000C0
:1043E000BC2100E062210180002070472A21FAE709
:1043F0001421F8E70A21F6E70521F4E70021F2E7A6
:104400001C000020054991F8242012B14FF0FF3024
:104410007047C98901800020704700001C000020FF
:104420002DE9FC41464C80208DF8000020686B4649
:104430000122817C60680078FEF70BF94FF0FF37AE
:10444000002875D16420FCF7FFFF00258DF800508F
:1044500020686B460122817C60680078FEF7F9F8DD
:10446000002865D120686B460622817D606800784F
:10447000FEF762F800285BD19DF805009DF8031057
:10448000C007400F01F0010140EA41009DF8011012
:104490004FF0010601F00101084304D0012831D09A
:1044A000022810D044E020686B460122C178606881
:1044B0000078FEF741F8D8BB9DF8000010F00F001F
:1044C00036D004281ED0E574FF2004F80A0F4FF6FA
:1044D000FF7104F8020C04F8010C6070A180A07157
:1044E0002072A67026766576E572A572E560256174
:1044F0006561A576E576A5834FF4FA6000F046FB8A
:10450000B0B901E0E674DFE7022000F061FA78B9A3
:104510002A2000F0A3FB58B9322000F0D5FB38B9AF
:104520000020FFF78FFD18B9002000F085FA10B1C8
:104530003846BDE8FC81002000F006FC0020F8E7CA
:104540001C0000202DE9FF4FDFF89480064685B05F
:1045500098F8250015460F464FF0FF39B0BBAFB3B2
:10456000002420E0301B102800DD102080B283469C
:104570003A1901469246204600F042FC30BB6A469A
:104580005946204600F0D2F800BB50465A466946CC
:10459000FBF7E5FE20B16FF0010009B0BDE8F08F38
:1045A00004EB0B0084B2B442DCD3280A8DF810006F
:1045B0008DF81150D8F80000444604AB817ED8F83D
:1045C000040002220078FEF744F808B14846E4E708
:1045D000012084F825000898E0840020DDE7000031
:1045E0001C0000202DE9F84305464FF0FF3928282C
:1045F00044D80727284C00267DB1012000F0FCFAA2
:1046000020208DF800004FF00108012D17D0052D56
:1046100018D88DF8018005201FE0002000F0ECFA8A
:104620008DF800608DF8017020686B460222817C55
:1046300060680078FEF70DF800BB267529E08DF85C
:104640000160E8E7142D04D802208DF801000A204B
:1046500003E003208DF80100142000F0FFFA9DF81C
:1046600001006B4607EB80108DF8010020680222E4
:10467000817C60680078FDF7ECFF10B14846BDE82A
:10468000F8830820A072267384F814800020FFF7B6
:10469000D9FC0020F3E700001C0000202DE9F843BE
:1046A000214C0646174694F8240089464FF0FF38FF
:1046B00090B3A07A80B320686B460222817A60684A
:1046C0000078FDF739FF38BBBDF8000045BAB542A8
:1046D00002D2002038701FE060684188B5EB510FAE
:1046E00011D9216800786B46497C0122FDF724FF2F
:1046F00090B99DF80000C00605D500F041F86FF0B4
:104700000100BDE8F8832068F2B24B46C17A6068C8
:104710000078FDF711FF08B14046F2E7B5FBF6F06F
:10472000401E38700020ECE71C000020F8B5160091
:104730000D464FF0FF371FD0104CA17AE1B1010AAE
:104740008DF80010C0B28DF80100411960684289EF
:10475000914211D8216800786B46097E0222FDF74C
:1047600078FF48B92068EAB23346417D6068007836
:10477000FDF7E2FE002800D03846F8BD1C000020FE
:10478000F8B5564C4FF0FF36A07A00287DD00025B2
:104790008DF8005020686B460122C17B606800786C
:1047A000FDF757FF002870D120686B460122417940
:1047B00060680078FDF74DFF002866D120686B46E1
:1047C0000122017960680078FDF743FF00285CD181
:1047D00094F82400E0B30C208DF8000020686B46AC
:1047E0000122017960680078FDF733FF002872D15B
:1047F0003220FCF729FEC0208DF80000A07AC00707
:1048000002D0E0208DF8000020686B46012201797B
:1048100060680078FDF71DFF00285CD1607C18B14E
:1048200002208DF8000001E08DF8005020686B46F2
:104830000122C17B60680078FDF70BFF28BB8DF873
:10484000005020686B4601224179606800783EE0A4
:10485000FFE704208DF8000020686B4601220179F3
:1048600060680078FDF7F5FE78B9A07C90B9A07A71
:10487000C0070FD05FF060008DF8000020686B4625
:10488000012201796068007800E024E0FDF7E1FE94
:1048900008BB01E04020EFE73220FCF7D5FD607C4B
:1048A00018B101208DF8000001E08DF8005020685B
:1048B0006B460122C17B60680078FDF7CAFE50B9E3
:1048C0002068064B01224179606810330078FDF7BB
:1048D000C0FE002800D03046F8BD00001C000020BB
:1048E0002DE9F047394C82468AB094F824000F46EF
:1048F00020B1002000F00EF9012600E0002607A8F4
:10490000FFF72AFD06A8FFF7E7FC09A8FFF75EFD01
:1049100008A8FFF777FD94F80A9094F81080002516
:10492000002239465046FFF7F3F810B16D1C022DF6
:10493000F6DB022D1AD00025012203A96846FFF7F5
:10494000E7F810B16D1C022DF6DB022D0ED003A985
:104950003846FEF7A5F8C7B269465046FFF762FA37
:1049600010F0FF0F4FF0000502D002E0002503E039
:1049700001250FB945F00205FF2020726072E07238
:104980004FF6FF71E181A072207401202073BDF801
:104990001C0000F0FBF89DF8180000F019F8BDF8B5
:1049A000240000F05BF9BDF8200000F08DF94846C6
:1049B00000F0CAF94046FFF745FB16B1012000F0B0
:1049C000A9F80AB02846BDE8F08700001C000020C6
:1049D00038B5184C4FF0FF35A17A19B3022806D02C
:1049E000042806D008280ED010281BD10DE0002086
:1049F00000E008208DF80000607A9DF80010B0EB10
:104A0000D10F04D005E01020F4E71820F2E70020D1
:104A100038BD20686B460122C17960680078FDF7D7
:104A200018FE08B1284638BD9DF80000C008607225
:104A3000EDE700001C000020F8B5354C0546A07CD1
:104A4000A84201D10020F8BD31484FF0FF366B4637
:104A5000D0E900104FF001020979007835B3FDF775
:104A60006BFD70BB9DF800006B4620F020008DF8B8
:104A7000000020680122017960680078FDF7E9FDF7
:104A8000F8B90320FCF7E0FC02208DF8000094F850
:104A9000220078B382202BE020686B460122017D42
:104AA00060680078FDF7D5FD58B92EE0FDF744FDAC
:104AB00038B9A07AC0079DF8000003D040F020006C
:104AC00002E00CE020F020008DF8000020686B462A
:104AD0000122017960680078FDF7BBFD08B130461E
:104AE000F8BD0320FCF7B0FC94F8220000B1802050
:104AF0008DF8000094F823000028CDD09DF8000028
:104B000040F030008DF80000C6E7A5749AE7000079
:104B10001C00002038B51C4C94F8241081421DD094
:104B2000002500B394F82500D0B1002000F0D2F9A0
:104B30000020FFF781FFE08C00F0C6F88DF80050F0
:104B400060686B46012200782321FDF782FD012079
:104B500084F8240000F0BEF9FFF712FE002038BDF3
:104B60004FF0FF3038BD002000F0B4F9207C8DF804
:104B7000000060686B46012200782321FDF769FD83
:104B800084F82450E8E700001C00002038B5194CD8
:104B90004FF0FF35A17A31B3FA2809D0B0F5FA7F8A
:104BA00008D0B0F57A7F0FD0B0F5FA6F1BD10DE0C9
:104BB000002000E008208DF80000207A9DF8001009
:104BC000B0EBD10F04D005E01020F4E71820F2E795
:104BD000002038BD20686B4601228179606800782A
:104BE000FDF737FD08B1284638BD9DF80000C00824
:104BF0002072EDE71C00002038B5174C054694F8EC
:104C00002300A84201D1002038BD0DB1302000E0C2
:104C100000208DF80000A07C28B19DF8000040F035
:104C200002008DF8000094F8220028B19DF80000E1
:104C300040F080008DF8000020686B460122017D65
:104C400060680078FDF705FD10B14FF0FF3038BD0A
:104C500084F82350D7E700001C00002038B5194C19
:104C60004FF0FF35A17A31B3BC2801D3012010E009
:104C7000622801D302200CE02A2801D3032008E097
:104C8000142801D3042004E00A2801D3052000E001
:104C900006208DF80000E07A9DF80010884201D1CE
:104CA000002038BD20686B4601228178606800785A
:104CB000FDF7CFFC08B1284638BD9DF80000E07232
:104CC000EEE700001C000020F8B51E4D04464FF032
:104CD000FF37A87A48B395F8240030BB287D4FF4FD
:104CE0007A7648B164B1282C03D8E0B2FFF77AFC99
:104CF00026E00020FFF776FC042C05D2042406E011
:104D00000020FFF76FFCF9E7B44200D93446B6FB48
:104D1000F4F0401E8DF8000028686B4601224178AF
:104D200068680078FDF795FC08B13846F8BD9DF835
:104D30000000401CB6FBF0F0E8814008FFF78EFF52
:104D40000020F8BD1C000020F8B5054610F0700FDB
:104D50004FF0000601D0012004E015B18DF800608D
:104D600002E040208DF80000244C6B4601222068B0
:104D7000817C60680078FDF76CFC4FF0FF3760BB0A
:104D80009DF8000020F0400020738DF80060680658
:104D900002D404208DF80000A80605D49DF8000078
:104DA00040F002008DF80000E80605D49DF80000F0
:104DB00040F001008DF80000280705D49DF80000A0
:104DC00040F038008DF8000020686B460122C17C5D
:104DD00060680078FDF73DFC10B1A6723846F8BD5A
:104DE00025B1082D02D00020FFF706FFA572267519
:104DF0003220FCF729FB0020F8BD00001C00002039
:104E0000F8B516000D464FF0FF371FD0104CA17AB1
:104E1000E1B1010A8DF80010C0B28DF8010041190E
:104E200060684289914211D8216800786B46097EFA
:104E30000222FDF70EFC48B92068EAB23346417DF4
:104E400060680078FDF705FC002800D03846F8BD02
:104E50001C00002010B588B0694604A8FFF740FD8B
:104E6000032802D0012008B010BD07A8FFF78EFA72
:104E7000049800F03DFF07990C4600F065FF00F034
:104E8000FBFE0490059800F033FF214600F05CFF24
:104E900000F0F2FE0590069800F02AFF214600F08F
:104EA00053FF00F0E9FE069004A8FEF7D1FB03A82B
:104EB000FFF730FABDF80C000099414300910199C9
:104EC000414301910299414368460291FEF722FB5A
:104ED0000020C8E7F8B5144C0146224694F8246037
:104EE000D2E9000200235D1E56B179B1022111E022
:104EF000C17B10786B460122FDF7ABFB68B90EE071
:104F0000A67A56B111B1617C61B902E08DF800302A
:104F1000EEE701218DF80010EAE72846F8BD9DF87C
:104F2000000060740020F8BD1C0000202DE9F04155
:104F300006460F4600F07AFB041E0D4618BF0120FE
:104F4000284320F00040C0F17F6000F1E040C00F36
:104F50000ED0301C18BF0120384320F00040C0F1B3
:104F60007F6000F1E040C00F04BF0120FBF7D1FAE1
:104F700020462946BDE8F08110B500290AD00878FE
:104F8000002807D005487844FBF74AFE002801D0E6
:104F9000002010BD0248784410BD000066290000C2
:104FA0005E29000021F00042A2F16052B2F5801F9C
:104FB00001F0004328BFD2F17F6C0BD95FEA001CDF
:104FC00043EAC20242EB507018BF704728BF20F07E
:104FD00001007047B2F5801FBCBF184670474FEA0A
:104FE000410C1CF5001F02D2084600F074BF70B5DA
:104FF00000F0BCFA00000089FFF7F6BF4FF0004058
:10500000A0F580007047000010B591EA030F48BF7B
:1050100083F0004300F1F883841A71EB030C05D28E
:10502000121943EB0C03001B61EB0C01DFF824E1C8
:105030004FEA1154A4EB135C1EEA430F18BF9EEA1B
:10504000445F73D023EA0E03DCF1200E21EA045101
:1050500043F4801332D322FA0CFE10EB0E0023FA35
:105060000CFE41EB0E01CCF1200E03FA0EFE10EB0C
:105070000E0051F10001B1F5801FCCF1200E32D2AB
:1050800001EB045112FA0EF2BDE8104058BF704710
:10509000401C38BF5FEA420218BF7047002814BFA7
:1050A00020F0010041F100014FEA410313F5001F18
:1050B00038BF7047A1F1C04100F0A6BA012A43EB06
:1050C0000302ACF1200CDCF11F0E32BF4FF0000EDA
:1050D00023FA0CF310EB030041EB0451B4EB115F26
:1050E000D0D0A1EB045101F5801149085FEA3000EE
:1050F00001EB04510ED350F1000038BF12FA0EFE3E
:1051000008D1BDE81040C9E7401C38BF5FEA420241
:10511000CAD1C3E7BDE810404FEA410313F5001FB1
:1051200038BF7047A1F1C04100F06EBA9EEA445FFB
:1051300008D011EA5E0FBDE8104004BF01F0004145
:1051400000207047BDE8104070B500F00FFA00BFB6
:1051500064FBBE3E0000E0FF02494FF0000000F09B
:1051600036BF00BF0000F87F2DE9C04130B4DFF842
:10517000A0C23CEA111418BF3CEA131400F0EC8002
:1051800081EA03051CEA111444EAD57418BF1CEA2D
:10519000131500F0C780A4EB05044FF0004545EA65
:1051A000C12145EAC32341EA505143EA525304F175
:1051B0007F74994204F500344FEAC0204FEAC222BE
:1051C00008BF904200F09C804FEA13650FF2401632
:1051D000765D4FEA134506FB05F7C7F1807706FBBE
:1051E00007F74FEAD737A7FB03687642C8F5803840
:1051F000A7FB06CE38BFA8F1010807FB08E64FF071
:10520000000EA6FB028CE6FB03CEDCF1000CCEF117
:10521000004E38BFAEF1010EA6FB0C584FF0000750
:105220004FF00005E6FB0E87A1FB08C6A0FB07CEEA
:1052300016EB0E0645F10005E1FB076515F1E04EA2
:105240007EBFA4F580345FEA46066D4116F1800703
:1052500045F100054FEA17274FEA066647EA05675A
:10526000A6F1DE46B6F1805F4FEA15251FD9384614
:1052700024F0010C05EBC471BCF1FE6F01EB0C11C5
:1052800002D8F0BCBDE8008124425CBF01F5801E5D
:105290009EEAC47F02D4F0BCBDE80081244238D429
:1052A000F0BCA1F1C041BDE8004100F0ADB94FEA4A
:1052B000D22242EA43524FEAD323A7FB02864FEAA7
:1052C000D02040EA415007FB03661EEA0E0F4FEA6A
:1052D000D12105FB026658BFA6EB0056B6EB00567F
:1052E0004FEA520E4EEAC37E18EB0E0E56EB530EEB
:1052F000BDD518EB02085E417F1C55F10005B6E7ED
:105300004FF480154FF000074FF000064FF00008F3
:10531000ADE7F0BC4FF0000001F1C04101F00041E9
:10532000BDE8008111EA0C1F0CEA131500D00CE057
:1053300013EA0C1F00F025804FF00000F0BC81EA5A
:10534000030101F00041BDE80081F0BCBDE800416F
:1053500081EA030100F058B9F0BCBDE8004170B526
:1053600000F004F9097EFC3E00F007B881EA030171
:105370004FF0000001F00041704781EA030100F0A6
:1053800043B9F0BCBDE800414FF00000214970472F
:10539000FFFDFBF9F7F5F4F2F0EEEDEBE9E8E6E4FA
:1053A000E3E1E0DEDDDBDAD8D7D5D4D3D1D0CFCD81
:1053B000CCCBCAC8C7C6C5C4C2C1C0BFBEBDBCBBBA
:1053C000BAB9B8B7B6B5B4B3B2B1B0AFAEADACABB5
:1053D000AAA9A8A8A7A6A5A4A3A3A2A1A09F9F9E8F
:1053E0009D9C9C9B9A999998979796959594939341
:1053F000929191908F8F8E8E8D8C8C8B8B8A8989D8
:10540000888887878685858484838382828181805A
:105410000000FF070000F87FDFF848C170B51CEA04
:10542000111E1EBF1CEA13159EEA0C0F95EA0C0F05
:1054300000F06F8081EA030423EA4C134EEAD47E25
:1054400021EA4C1141F4801143F48013AE44A1FBD6
:10545000024CA0FB0365AEF17F7E361955EB0C05BF
:10546000A1FB034C4CF10003A0FB021C16EB0C0645
:10547000654153F10003094218BF46F0010613F4D9
:10548000007F0BD14FEA03314FEA0530340341EA84
:10549000155140EA16506FF003020AE04FEAC321AB
:1054A0004FEAC520F40241EA555140EA56506FF0E8
:1054B000020202EB2E4201EB025585EACE710AD0C0
:1054C0005FEA440C18BF24F0004450F1000041F1A1
:1054D000000120EAD47040F2FE7C624500D270BD2B
:1054E000A84214BF4FF080444FF04044002E08BF44
:1054F0000024BEF1806FA8BFA1F1C041BDE870409B
:1055000080F282804FF0000001F1C04101F00041C3
:1055100070479EEA0C0F0CEA131518BF95EA0C0FA2
:1055200006D04FF0000081EA030E0EF0004170BD7E
:1055300000F01CF88900013E00F007B800F009B83F
:105540004FEA430C5FEA5C5C08D081EA030100F09B
:105550005BB84FEA410C5FEA5C5CF6D14FF00000AB
:10556000014970470000FF070000F87F0EF1020EAE
:105570002EF0030E5EF8046B364205D4012A43EB8D
:10558000030515F5001F12D8012841EB010C1CF58D
:10559000001F0CD80ED14FEAD17C15F5001F0CEB83
:1055A0004C0C0CF1020C08BF4CEBD37C04E04FF028
:1055B000080C01E04FEAD37C0CEB4C0526FA05F60B
:1055C00006F00706B6F1040C06D20EEB860CBDE819
:1055D00070404CF0010C6047DFE80CF0090B020250
:1055E0004FF000414FF00000A1F5002170BD1946B9
:1055F0001046012851EB010418BFD4F5001484BFF4
:10560000002001F0004170BD0808A0F500114FEA2C
:105610003101704791EA030F10B581F000413FF569
:10562000FBAC83F0004300F0EFB800002DE9F0413F
:1056300001F5801CBCF5001FC0F2C3804FEA115C6D
:1056400021EA0C510CF1FD0C41F480115FEA5C0C75
:105650000CF5C07C01D3400049413DA4890241EAD8
:10566000905187028E0E0A0CA45D04FB04F602FB27
:1056700006F6C6F14046A4FB0662F60D46EA42264F
:1056800006FB06F4A4FB01235242C3F1404338BF9A
:105690005B1EA6FB02420024E6FB0324D20B42EA77
:1056A0004446A6FB0623A1FB02E2A3FB07E4A418E1
:1056B0004FF0000252F10002E3FB01426442C2F1EA
:1056C000404E38BFAEF1010EA6FB04234FF000029E
:1056D000E6FB0E32A2FB03464FF00004B61954F16C
:1056E0000004E2FB0264A1FB06E6A4FB07E816EB5C
:1056F00008064FF0000858F10008E4FB0168764204
:10570000C8F1405838BFA8F10108A2FB06E4A3FB8A
:1057100008E52D194FF0000454F10004E2FB085491
:10572000A1FB05E6A7FB04E818EB06084FF000060E
:1057300056F10006E1FB048618F1200556F100063B
:10574000A809A8F11B08B10908F03F08B8F10A0F31
:1057500040EA86601CD901EB0C51BDE8F08100BF26
:10576000FCF5EEE8E2DDD8D3CFCBC7C3C0BDB9B6F8
:10577000B4B1AEACA9A7A5A3A19F9D9B9A989695FD
:105780009392908F8D8C8B89888786858483828184
:10579000A0FB006800FB01F208EB4208B8EB872889
:1057A00007D5341858EB0104D5D5401C51F1000140
:1057B000D1E7341A78EB0104CDD4401E71F1000119
:1057C000C9E75FEA4C0C5FEA9C5C0DD105D34FF052
:1057D000000001F00041BDE8F081BDE8F04170B586
:1057E000FFF7C4FE6DDBFFBEBDE8F0414FF00000E7
:1057F000004970470000F87F10B591EA030F48BFD9
:1058000083F000433FF508AC841A71EB030C07D218
:1058100012198CF0004C43EB0C03001B61EB0C01E4
:10582000DFF8A4E14FEA1154A4EB135C1EEA430F26
:1058300018BF9EEA445F00F0B08023EA6E03524234
:1058400021EA0451C3EB6E0338BF5B1EDCF1200E6E
:1058500025D322FA0CFE10EB0E0043FA0CFE41EBAE
:105860000E01CCF1200E03FA0EFE10EB0E0051F1EA
:105870000001CCF1200E29D412FA0EF201EB0451F2
:10588000BDE8104058BF7047401C1CBFB2F1004F2C
:10589000704700280CBF491C20F00100704712EB34
:1058A000020E43EB030218BF4FF0010E4EEA420214
:1058B000ACF1200CDCF11E0E54D943FA0CFE10EBB7
:1058C0000E0051F1FF31CCF11E0ED5D50EF1010EB7
:1058D00012FA0EFE404141EB010101EB445C5FEA2C
:1058E0005C5C10D910EBDE7001EB045138BFBEF1E7
:1058F000004FBDE8104018BF704700280CBF491C7E
:1059000020F00100704730D24FEAD42C11F500117D
:1059100024F400641BD0B1FA81F20B3AA41AA41E3D
:10592000D2F12003914030FA03F31943904001EB88
:10593000CC71002C01EB0451BDE81040A8BF7047AA
:1059400001F1C0414FF0000001F000417047B0FA92
:1059500080F310FA03F100D110BDE41A173C48059A
:10596000C90AE4E701EB045110BD491001EB0451F1
:10597000BDE810404FEA300002E04FF000017047F0
:105980004A0008BF0042F8D0B2F5001F28BF704798
:1059900001F000414FF0000070479EEA445F07D0DD
:1059A00011EA5E0FBDE8104004BF002100207047DF
:1059B000BDE8104070B5FFF7D9FD00BF40DFF63EEF
:1059C00083F00041104670470000E0FF43004FEABB
:1059D000D30C4FEA3C0C43401FBF40070CF1605111
:1059E00013F0FE4F70471CF0006F03D100200CF045
:1059F000004170470CF0004343EA507010B540EA94
:105A0000CC0000F022FA00BF000000924FEA000133
:105A1000FFF7FABD4FF000414FF00000A1F5002163
:105A20007047000090EA010F48BF81F0004100F18B
:105A30005E82421A3CBF801A89184FEAD0524FF05A
:105A40007F4C1CEA410FA2EBD15318BF9CEA026FB6
:105A500000F03B804FF0004C4CEA00204CEA012162
:105A600021FA03FC10EB0C0C1ED202F1FF325FEAAC
:105A70001C2040EBC25038BF70471CF07F0F4FEA2C
:105A8000400C18BFBCF17F4F38BF7047C3F12003F3
:105A9000994008BF20F00100BCF17F4F38BF70472C
:105AA000A0F1C04000F017BA4FEA3C00000A40EBFA
:105AB000C25028BF1CF0FF0F4FEA400CE6D018BFC1
:105AC000BCF17F4F38BF7047EAE79CEA026F05D010
:105AD00010EA5C0F08BF00F00040704710B500F0FE
