:020000040800F2
:10000000E00600208901000827110008C50D00083E
:10001000251100088F020008A71300080000000047
:100020000000000000000000000000004F13000866
:1000300091020008000000004D1300085113000851
:10004000A3010008A3010008A3010008A301000800
:10005000A3010008A3010008A3010008A3010008F0
:10006000A3010008A3010008A3010008A3010008E0
:10007000A3010008A3010008A3010008A3010008D0
:10008000A3010008A3010008A3010008A3010008C0
:10009000A3010008A3010008A3010008A3010008B0
:1000A000A3010008A3010008A3010008A3010008A0
:1000B000A3010008A3010008A3010008A301000890
:1000C000A3010008A3010008A3010008A301000880
:1000D000A3010008A3010008A3010008A301000870
:1000E000A3010008A3010008A301000800F002F822
:1000F00000F03AF80AA090E8000C82448344AAF188
:100100000107DA4501D100F02FF8AFF2090EBAE885
:100110000F0013F0010F18BFFB1A43F0010318473B
:10012000381D0000581D0000103A24BF78C878C15F
:10013000FAD8520724BF30C830C144BF04680C60ED
:10014000704700000023002400250026103A28BF35
:1001500078C1FBD8520728BF30C148BF0B60704739
:100160001FB51FBD10B510BD00F058F81146FFF7C0
:10017000F7FF01F043F900F076F803B4FFF7F2FF60
:1001800003BC00F07DF8000009488047094800479B
:10019000FEE7FEE7FEE7FEE7FEE7FEE7FEE7FEE737
:1001A000FEE7FEE704480549054A064B7047000094
:1001B000A5130008ED000008E0000020E006002084
:1001C000E0020020E00200204FF0000200B51346DC
:1001D00094469646203922BFA0E80C50A0E80C5067
:1001E000B1F12001BFF4F7AF090728BFA0E80C5018
:1001F00048BF0CC05DF804EB890028BF40F8042B11
:1002000008BF704748BF20F8022B11F0804F18BF7D
:1002100000F8012B7047704770477047754600F033
:100220002BF8AE4605006946534620F00700854688
:1002300018B020B5FFF7B6FFBDE820404FF000062C
:100240004FF000074FF000084FF0000B21F00701BE
:10025000AC46ACE8C009ACE8C009ACE8C009ACE801
:10026000C0098D46704710B50446AFF300802046A4
:10027000BDE81040FFF781BF0048704780000020B4
:1002800001491820ABBEFEE7260002007047FEE7DA
:10029000704772B6FEE7000070B5044600F0FEF845
:1002A0000546601C02D004480078044400F0F6F8CB
:1002B000401BA042FAD370BD1C0000202DE9F84F6E
:1002C000DFF8B8910024A9F1040B23460F2709F1A8
:1002D000040AABF1040EC9E00125A5402A40AA4258
:1002E0007DD1674ED1F804C0ACEB0608B44532D0DE
:1002F00014DCBCF1030F3AD009DCBCF1000F2AD0AA
:10030000BCF1010F1CD0BCF1020F31D11DE0BCF1DA
:10031000110F17D0BCF1120F2AD119E0B8F5881FC0
:1003200019D006DCB8F5803F15D0B8F5801F1FD175
:1003300011E0B8F5001F0ED0B8F5041F18D10AE07F
:10034000CB6815E0CB681B1D12E0CB6808330FE0CB
:10035000CB680C330CE08B682BB1012B4FF00803FA
:1003600003D0456104E0042302E0056100E00023BE
:10037000FF2A01D8064601E000F104064FEA840591
:1003800001D9A5F12005D6F8008007FA05FC28EA76
:100390000C0803FA05F548EA0508C6F800804D6820
:1003A000ED0062D5374DAE6946F00106AE61AD692C
:1003B00024F0030605F001050095334D06EB050C0E
:1003C000DCF80850A607360F07FA06F825EA0805F4
:1003D000DFF8B880404503D14FF0000817E044E053
:1003E000DFF8AC80404502D14FF001080FE0DFF8A4
:1003F000A480404502D14FF0020808E0DFF8988061
:10040000404502D14FF0030801E04FF0040808FA1C
:1004100006F848EA0508CCF808804D68D9F800606D
:10042000ED024D4601D5164300E096432E604D681F
:10043000DAF80060AD02554601D5164300E0964358
:100440002E604D68DBF80060AD035D4601D51643B4
:1004500000E096432E604D68DEF80060ED037546BF
:1004600001D5164300E096432E60641C0D682A46B1
:10047000E5407FF431AFBDE8F88F0000080401408B
:10048000000011100010024000000140000801406F
:10049000000C014000100140001401400148806838
:1004A000704700001C00002070B5040025D094F8AF
:1004B0003D00002520B984F83C50204600F050F95A
:1004C000242084F83D002068016821F001010160CA
:1004D0002068016841F4004101602068016821F44E
:1004E0000041016000F094FA4D4A6168914201D8E0
:1004F0004C4900E04C49884201D2012070BD4B4973
:100500002368B0FBF1F15E6826F03F060E435E60A3
:100510006368934206D94FF4967359434FF47A7344
:10052000B1FBF3F12368491C1E6A26F03F063143F4
:1005300019626168914210D84900401EB0FBF1F287
:10054000521CC2F30B02042A01D2042022E0B0FBA9
:10055000F1F0401CC0F30B001CE0A268F2B301EB09
:10056000C10303EB0116431EB3FBF6F35B1C43F41C
:1005700080431B0549D092B301EBC10202EB01118C
:10058000401EB0FBF1F0401CC0F30B0040F4804073
:1005900040F400402168CA694CF6FF739A43104347
:1005A000C861D4E9071001432068026822F0C00244
:1005B00011430160D4E9030101432068826848F2D5
:1005C000FF339A4311438160D4E905010843216850
:1005D000CA6822F0FF021043C86001E00EE016E096
:1005E0002068016841F0010101602564202084F841
:1005F0003D00256384F83E50002070BD01EB4106AC
:10060000431EB3FBF6F35B1CB3E70120C2E701EB2B
:100610004101401EB0FBF1F0401CC0F30B00B7E7F6
:10062000A086010080841E0000093D0040420F00AA
:100630002DE9FF4F83B09A46DDE9119793460446B2
:10064000DDF84080FFF72AFF054694F83D0020289A
:100650007FD11923012240492046009500F04AFC31
:10066000002876D194F83C00012872D0012084F84B
:100670003C0020680168C90703D1016841F001010D
:1006800001602068016821F400610160212084F884
:100690003D00402084F83E0000262664C4F82480F3
:1006A000A4F82A90608D20852C48E062CDE9007581
:1006B00053465A462046049900F09CFB70B930E03E
:1006C0002A463946204600F0BBFC58B1206C04286D
:1006D00004D12068016841F400710160012007B075
:1006E000BDE8F08F606A216800780861606A401C8C
:1006F0006062218D491E89B22185628D521E6285FC
:1007000022685369DB435B070BD469B10078106141
:10071000606A401C6062208D401E2085608D401EF6
:100720006085208D0028CBD12A463946204600F02E
:10073000B5FB0028CAD154F83D0B016841F40071A3
:100740000160202004F81E09E67766770020C6E7DE
:10075000FFE70220C3E70000020010000000FFFFD7
:1007600010B586B0002100910191029103910068BB
:100770001349884222D1134CA06940F00800A061BF
:10078000A069694600F0080004904FF440700090A2
:1007900012200190032003900B48FFF78FFD0B48B8
:1007A000416841F0E06141F002014160E06940F4DC
:1007B0000010E061E06900F40010049006B010BD84
:1007C0000054004000100240000C014000000140B5
:1007D0000248816802781144816070471C00002043
:1007E000074810B5016841F010010160032000F0D6
:1007F00067F80F2000F006F800F024F8002010BD84
:100800000020024070B50D4D04464FF47A712878EF
:10081000B1FBF0F00A490968B1FBF0F000F0BEFA54
:1008200048B9102C07D200222146501E00F028F8AB
:1008300000206C6070BD012070BD00001C00002015
:10084000280000200C4808B5816941F00101816150
:10085000816901F001010091C16941F08051C161DC
:10086000C06900F0805000900448416821F0E061C8
:1008700041F00071416008BD0010024000000140DD
:10088000F0B40E4B1B680C46C3F30223C3F10705FB
:10089000042D00D90425191D072901D2002300E0E9
:1008A000DB1E012606FA05F1491E214099409E40B3
:1008B000761E16403143F0BC00F090BD0CED00E018
:1008C000064900F0070208684FF6FF03184040EAA7
:1008D0000220034A10430860704700000CED00E05E
:1008E0000000FA052DE9F0470F46050061D0434EA0
:1008F000306800F00700B84209D2306820F00700E5
:1009000038433060306800F00700B84251D12868A1
:100910003B4C810712D5400703D5606840F4E06086
:1009200060602878000703D5606840F4605060601C
:100930006068A96820F0F000084360602878C0076C
:1009400028D06868012810D02168022810D08907B3
:1009500000292EDA616821F0030101436160FFF78D
:100960009DFD804641F288390DE021688903EFE75B
:100970008901EDE7FFF792FDA0EB0801494502D997
:100980000320BDE8F0876068696800F00C00B0EBF8
:10099000810FEFD1306800F00700B8420BD9306802
:1009A00020F0070038433060306800F00700B8429C
:1009B00001D00120E5E72878400705D56068E9689F
:1009C00020F4E060084360602878000706D560687E
:1009D000296920F4605040EAC100606000F028F806
:1009E0006168084AC1F30311515CC84006490860B8
:1009F00006480068FFF706FF0020C2E7002002401B
:100A0000001002403E1E00082800002020000020A8
:100A10000448054900684968044AC1F30221515C51
:100A2000C840704728000020001002404E1E0008F9
:100A30000E4A51680E4801F00C03042B11D0082B0C
:100A40000FD10C48C1F38343C903C05C0AD5516878
:100A5000084AC1F34041921E515C054A5043B0FB25
:100A6000F1F070470449484370470000001002400D
:100A700000127A002E1E000800093D002DE9F84FF3
:100A8000040070D02078C04DC00749D06868C0F31A
:100A90008100012807D06868C0F38100022809D1CD
:100AA0006868C00306D52868800339D560680028C7
:100AB000E7D035E06068B0F5803F0BD010B1B0F5FD
:100AC000A02F11D0286820F480302860286820F4F6
:100AD000802002E0286840F480302860606890B18F
:100AE000FFF7DCFC06460AE0286840F48020286016
:100AF000F0E700BFFFF7D2FC801B642873D828689A
:100B00008003F7D50CE0FFF7C9FC064605E000BFFF
:100B1000FFF7C4FC801B6428F0D828688003F7D452
:100B200020789A4E80074FF001094FF0000839D520
:100B3000686810F00C0F07D06868C0F381000228C5
:100B400009D16868C00306D42868800714D52069D5
:100B5000012808D110E02069B0B1C6F80090FFF775
:100B60009DFC074605E00AE1FFF798FCC01B022840
:100B7000C4D828688007F7D52868616920F0F80094
:100B800040EAC10028600DE0C6F80080FFF786FC4F
:100B9000074604E0FFF782FCC01B022823D8286820
:100BA0008007F7D4207800072CD57948A169D9B1FE
:100BB000C0F80090FFF772FC074604E0FFF76EFCF8
:100BC000C01B02280FD8686A8007F7D571484FF418
:100BD000FA510068B0FBF1F0009000BF0098411E90
:100BE0000091FAD20EE080E0C0F80080FFF756FCDA
:100BF000074604E0FFF752FCC01B022875D8686A5C
:100C00008007F7D42078400760D5E8690027C00046
:100C100008D4E86940F08050E861E869012700F0F5
:100C2000805000905C480168C90513D40168834670
:100C300041F480710160FFF731FC824606E000BF9D
:100C4000FFF72CFCA0EB0A0064284ED8DBF800006C
:100C5000C005F5D5E06801280AD008B1052813D0F1
:100C6000286A20F001002862286A20F0040002E0CF
:100C7000286A40F001002862E06841F2883B98B1A0
:100C8000FFF70CFC82460BE0286A40F00400286263
:100C9000EEE700BFFFF702FCA0EB0A0159455AD866
:100CA000286A8007F6D50CE0FFF7F8FB824605E0DE
:100CB000FFF7F4FBA0EB0A0159454CD8286A8007DE
:100CC000F6D41FB1E86920F08050E861E06988B38C
:100CD0006968C1F38101022944D00228C6F8608006
:100CE00004D0FFF7DBFB044638E034E0FFF7D6FB27
:100CF000074604E0FFF7D2FBC01B02282BD8286868
:100D00008001F7D4206AB0F5803F05D16868A168FA
:100D100020F4003008436860D4E90801084369689A
:100D200021F4741108436860C6F86090FFF7B6FBC1
:100D3000044606E025E000BFFFF7B0FB001B0228D9
:100D400009D828688001F7D51BE000BFFFF7A6FB94
:100D5000001B022802D90320BDE8F88F2868800113
:100D6000F4D40EE00128F7D06868226A00F48031DC
:100D7000914204D1616A00F47010884201D00120D0
:100D8000EAE70020E8E700000010024000004242CD
:100D900080044242280000200070004010B5401E30
:100DA000B0F1807F01D3012010BD4FF0E0246061DD
:100DB0000F21601700F012FB0020A06107202061C6
:100DC000002010BDFEE701684A69D24352050FD4E6
:100DD0006FF480624A61002140F8301F2022427384
:100DE0008173026942F004020261017301207047BD
:100DF000002070472DE9F843044600680D46DDE900
:100E0000089701689846164641F4807101604B4688
:100E100000224FF001112046009700F06BF848B116
:100E200020680068C00502D54FF4007020640320DC
:100E3000BDE8F883216805F0FE0008613B464A469C
:100E40001549204600F09EF888B9206841698069FC
:100E500000903A464946204600F0F2F848B1206C2E
:100E6000042804D12068016841F400710160012068
:100E7000DEE7F5B2B8F1010F09D02168300A086148
:100E80003A464946204600F0DBF80028E7D12068C2
:100E900005610020CCE700000200010070B5164695
:100EA0000D4604461EE02046FFF78DFF08B10120E5
:100EB00070BD681C16D0FFF7F1FA801BA84200D85D
:100EC00085B920684069C04340070BD5002044F82D
:100ED000300F20216173A073216941F0200121614D
:100EE0002073E4E720684069C0434007DBD400205A
:100EF00070BD00002DE9F047984617460D460446A0
:100F0000C1F30746DDF820902AE000BFB8F1FF3FAB
:100F100026D0FFF7C3FAA0EB0901414502D8B8F18A
:100F2000000F1DD12068012E16D0806925EA00002F
:100F30000004000C12D00020B84211D1002044F867
:100F4000300F20216173A073216941F020012161DC
:100F500020730120BDE8F0874069E7E70120EBE757
:100F60002068012E0AD0806925EA00000004000CE8
:100F700006D00020B842C9D00020EBE74069F3E773
:100F80000120F7E72DE9F047984616460D4604463E
:100F90004FF000094FF0200AC1F3074723E0206813
:100FA0004069C043400515D42068016841F40071D0
:100FB000016021686FF480604861C4F8309084F863
:100FC0003DA084F83E90216C41F00401216484F836
:100FD0003C9021E0701C06D0FFF760FAA0EB0800FF
:100FE000B04203D816B1012F1FD021E02068012F95
:100FF00015D0806925EA00000004000C18D000BF5D
:1010000044F8309F84F80DA084F80E90216941F0D7
:101010002001216184F80C900120BDE8F08740692F
:1010200025EA00000004000CEAD12068406901E0D4
:101030002068806925EA00000004000CAFD1ECE7CD
:1010400070B516460D4604461EE02046FFF7BBFE6F
:1010500008B1012070BD681C16D0FFF71FFA801B75
:10106000A84200D885B920684069C04300060BD566
:10107000002044F8300F20216173A073216941F0F2
:10108000200121612073E4E720684069C043000625
:10109000DBD4002070BD0000114808B5816941F023
:1010A00010018161816901F010010091816941F0B5
:1010B00020018161816901F020010091816941F085
:1010C00004018161816901F004010091816941F0AD
:1010D00008018161806900F00800009008BD0000EF
:1010E000001002400D4810B50B4901600C494160E9
:1010F00000214FF480428160C0E9031241618161A7
:10110000C1610162FFF7D0F9002803D0BDE81040AB
:10111000FFF7BFB810BD0000005400402C000020B5
:10112000A0860100FEE7FEE770B5002404F1B000E0
:10113000C0B200F0E7F8002000F0E4F8102000F062
:10114000E1F80025002000F0EFF86D1CEDB2802DD5
:10115000F8D3641CE4B2082CE8D370BD10B5C820E5
:10116000FFF79AF8BDE8104000F01EB910B504462C
:10117000B031C8B200F0C6F8102040EA141000F0F8
:10118000C1F804F00F00BDE8104000F0BBB800004B
:101190002DE9F04115460E460746FFF7E7FF0E48DA
:1011A000002400EB8515285D00F0BEF8641CE4B255
:1011B000102CF8D3761CF1B23846FFF7D7FF002485
:1011C000281990F8200000F0AFF8641CE4B2102C4D
:1011D000F6D3BDE8F08100006C1C00082DE9F04159
:1011E000203A00240D468046D6B27F2803D900203D
:1011F0008D1C8046EDB2102B29460FD0FFF7B6FFAD
:10120000164906EB460001EB4005285D00F08CF81E
:10121000641CE4B2062CF8D3BDE8F081FFF7A6FF0A
:101220000F4F00BF04EB0610385C00F07DF8641C23
:10123000E4B2082CF6D36D1CE9B24046FFF796FFE6
:101240005FF0000404EB06103844007A00F06CF8FC
:10125000641CE4B2082CF5D3DEE700006414000837
:101260008C1600082DE9F05F0026DDF828901D4659
:1012700092468B46804634464FEA590723E0281BA6
:10128000401EC1B20A2000F0E5F8BAFBF0F00A21D6
:10129000B0FBF1F201FB120026B9691E8C4201DAA3
:1012A00038B101263030C2B207FB0480C0B24B46D1
:1012B00004E007FB0480C0B24B4620225946FFF7EA
:1012C0008DFF641CE4B2AC42D9D3BDE8F09F2DE998
:1012D000F041984617460E46044600250DE0434669
:1012E00031462046FFF77AFF0834E4B2782C02D961
:1012F0000024B61CF6B26D1CEDB27A5D002AEED168
:10130000BDE8F08101B584B001214FF4807204A8DA
:101310008DE807000B46002278210248FFF788F984
:1013200005B000BD2C00002001B584B001214FF4B0
:10133000807204A88DE807000B46402278210248FD
:10134000FFF776F905B000BD2C000020704770470C
:10135000FFF73EBA10B590B028216846FEF734FF7B
:1013600014210AA8FEF730FF02200090012004900B
:1013700010200024059007946846FFF77FFB08B112
:1013800072B6FEE70F20CDE90A040C940D940021FB
:101390000AA80E94FFF7A6FA002801D072B6FEE75D
:1013A00010B010BD7047FEE7FEB50024094F4FF4A2
:1013B000807501263819CDE9000601230022782125
:1013C00002950548FFF734F9641CE4B21B2CF1D3F5
:1013D000FEBD0000000000202C0000200907090EBF
:1013E000002804DB00F1E02080F80014704700F0D2
:1013F0000F0000F1E02080F8141D704708B5FFF7DA
:10140000EFF9FFF7A7FFFFF747FEFFF76BFEFFF7C8
:10141000A5FEFFF789FE1020002100900623084A50
:101420000846FFF71FFF102306A202210020FFF746
:101430004EFF002204211046FFF7AAFEFEE700003F
:1014400040E2010048656C6C6F20576F726C64213C
:10145000000000000246012000E05043491EC9B2CE
:10146000FBD270470000000000000000002F0000C9
:1014700000000700070000147F147F1400242A7F57
:101480002A120062640813230036495522500000D6
:101490000503000000001C224100000041221C0046
:1014A0000014083E08140008083E0808000000A0C8
:1014B00060000008080808080000606000000020C4
:1014C00010080402003E5149453E0000427F4000A2
:1014D000004261514946002141454B310018141228
:1014E0007F10002745454539003C4A4949300001F5
:1014F0007109050300364949493600064949291E44
:1015000000003636000000005636000000081422A5
:1015100041000014141414140000412214080002A5
:101520000151090600324959513E007C1211127CCA
:10153000007F49494936003E41414122007F4141F7
:10154000221C007F49494941007F09090901003EE9
:101550004149497A007F0808087F0000417F410027
:10156000002040413F01007F08142241007F40409D
:101570004040007F020C027F007F0408107F003E85
:101580004141413E007F09090906003E4151215E6B
:10159000007F091929460046494949310001017F68
:1015A0000101003F4040403F001F2040201F003FFE
:1015B0004038403F006314081463000708700807B0
:1015C00000615149454300007F41410000552A55C3
:1015D0002A55000041417F0000040201020400403E
:1015E0004040404000000102040000205454547860
:1015F000007F484444380038444444200038444480
:10160000487F00385454541800087E09010200181D
:10161000A4A4A47C007F080404780000447D40005A
:10162000004080847D00007F102844000000417F3E
:101630004000007C04180478007C0804047800381A
:101640004444443800FC242424180018242418FCA2
:10165000007C0804040800485454542000043F440B
:101660004020003C4040207C001C2040201C003CCE
:101670004030403C004428102844001CA0A0A07C1E
:10168000004464544C441414141414140000000056
:10169000000000000000000000000000000000F852
:1016A00000000000000000333000000000100C06B5
:1016B000100C0600000000000000000040C0784050
:1016C000C0784000043F04043F040400007088FC1C
:1016D00008300000001820FF211E0000F008F00074
:1016E000E018000000211C031E211E0000F00888E5
:1016F000700000001E2123241927211010160E004F
:10170000000000000000000000000000000000E0F9
:10171000180402000000000718204000000204180E
:10172000E00000000040201807000000404080F06A
:10173000804040000202010F01020200000000F0A0
:10174000000000000101011F010101000000000074
:101750000000000080B070000000000000000000E9
:101760000000000000010101010101010000000072
:101770000000000000303000000000000000000009
:1017800080601804006018060100000000E01008E6
:101790000810E000000F102020100F00001010F8BB
:1017A000000000000020203F2020000000700808FA
:1017B000088870000030282422213000003008887A
:1017C000884830000018202020110E000000C020A2
:1017D00010F8000000070424243F240000F80888C3
:1017E000880808000019212020110E0000E0108850
:1017F00088180000000F112020110E000038080882
:10180000C83808000000003F000000000070880891
:1018100008887000001C222121221C0000E0100812
:101820000810E0000000312222110F00000000C06B
:10183000C000000000000030300000000000008008
:1018400000000000000080600000000000008040F8
:101850002010080000010204081020004040404011
:101860004040400004040404040404000008102064
:1018700040800000002010080402010000704808A9
:101880000808F0000000003036010000C030C82811
:10189000E810E0000718272423140B000000C038CC
:1018A000E0000000203C23020227382008F8888846
:1018B00088700000203F202020110E00C030080852
:1018C00008083800071820202010080008F8080829
:1018D0000810E000203F202020100F0008F8888822
:1018E000E8081000203F20202320180008F88888EE
:1018F000E8081000203F200003000000C030080866
:101900000838000007182020221E020008F80800EE
:101910000008F808203F210101213F20000808F8B5
:10192000080800000020203F2020000000000808D8
:10193000F8080800C08080807F00000008F888C098
:1019400028180800203F20012638200008F8080049
:1019500000000000203F20202020300008F8F80080
:10196000F8F80800203F003F003F200008F830C092
:101970000008F808203F200007183F00E010080882
:101980000810E0000F10202020100F0008F80808B1
:101990000808F000203F210101010000E0100808C4
:1019A0000810E0000F18242438504F0008F88888E9
:1019B00088887000203F2000030C302000708808C9
:1019C000080838000038202121221C00180808F8D7
:1019D000080818000000203F2000000008F8080058
:1019E0000008F808001F202020201F000878880029
:1019F00000C83808000007380E010000F80800F899
:101A00000008F800033C0700073C03000818688042
:101A10008068180820302C03032C30200838C800B8
:101A2000C83808000000203F200000001008080807
:101A3000C83808002038262120201800000000FEA9
:101A4000020202000000007F40404000000C30C055
:101A500000000000000000010638C0000002020281
:101A6000FE000000004040407F0000000000040233
:101A7000020204000000000000000000000000005E
:101A8000000000008080808080808080000202044E
:101A90000000000000000000000000000000808046
:101AA000808000000019242222223F2008F80080B4
:101AB00080000000003F112020110E000000008077
:101AC00080800000000E1120202011000000008006
:101AD0008088F800000E112020103F200000808038
:101AE00080800000001F222222221300008080F04C
:101AF000888888180020203F202000000000808077
:101B000080808000006B94949493600008F80080BB
:101B100080800000203F210000203F200080989816
:101B2000000000000020203F202000000000008076
:101B30009898000000C08080807F000008F80000B6
:101B400080808000203F24022D302000000808F80B
:101B5000000000000020203F2020000080808080C6
:101B600080808000203F20003F20003F8080008058
:101B700080800000203F210000203F200000808066
:101B800080800000001F202020201F008080008017
:101B90008000000080FFA12020110E0000000080C6
:101BA00080808000000E112020A0FF8080808000B7
:101BB0008080800020203F212000010000008080E4
:101BC000808080000033242424241900008080E0D9
:101BD000808000000000001F2020000080800000A6
:101BE00000808000001F202020103F208080800087
:101BF0000080808000010E30080601008080008097
:101C0000008080800F300C030C300F0000808000BB
:101C1000808080000020312E0E31200080808000E6
:101C20000080808080818E70180601000080808096
:101C3000808080000021302C222130000000000034
:101C4000807C020200000000003F40400002027C55
:101C5000800000000040403F000000000000000045
:101C6000FF00000000000000FF000000000004145E
:101C700064040CB4020242330200000000000000C1
:101C800000000000000000000000000040412111A1
:101C9000090503FF03050911214140000000000070
:101CA0000000000000000000000000001010D0FF45
:101CB000900010919690F090949310000000000016
:101CC000000000000000000000000000040300FF0E
:101CD000000104040404FF040404040000000000E4
:101CE000000000000000000000000000008060F81C
:101CF0000704E4A4A4BFA4A4E404000000000000BE
:101D0000000000000000000000000000010000FFD3
:101D100040407F4A4A4A4A4A7F4040000000000053
:101D20000000000000000000000000000000F88833
:101D3000888888FF88888888F800000000000000F4
:101D400000000000000000000000000000001F086C
:101D50000808087F888888889F80F00000000000BD
:101D60000000000000000000000000000000FE0273
:101D700082828282FA8282828282020000000000D5
:101D800000000000000000000000000080601F4014
:101D9000404040407F404044584040000000000028
:101DA000000000000000000000000000008060F85B
:101DB0000704E4A4A4BFA4A4E404000000000000FD
:101DC000000000000000000000000000010000FF13
:101DD00040407F4A4A4A4A4A7F4040000000000093
:101DE00000000000000000000000000000000000F3
:101DF00000000000000000000000000000000000E3
:101E00000000000000000000000000000000363666
:101E100000000000000000000000000000000000C2
:101E200000000000000000000000000001020203AA
:101E30000405060708090A0B0C0D0E0F1010000010
:101E4000000000000000010203040607080900006A
:101E50000000010203040000781E000800000020BA
:101E60002C00000028010008A41E00082C000020FF
:101E7000B406000044010008AE001040B081FFA18C
:101E8000A6A83FC8D300D580D805D9F1DA12D8303A
:101E90008D14AF00010000001000000000000000E1
:041EA00000127A00B2
:04000005080000ED02
:00000001FF
