:020000040800F2
:10000000B806002089010008B3110008C5100008D7
:10001000B1110008AF0200087714000800000000CA
:10002000000000000000000000000000B711000800
:10003000B102000800000000B5110008B911000865
:10004000A3010008A3010008A3010008A301000800
:10005000A3010008A3010008A3010008A3010008F0
:10006000A3010008A3010008A3010008A3010008E0
:10007000A3010008A3010008A3010008A3010008D0
:10008000A3010008A3010008A3010008A3010008C0
:10009000A3010008A3010008A3010008A3010008B0
:1000A000A301000811120008A3010008A301000821
:1000B000A3010008A3010008A3010008A301000890
:1000C000A3010008A3010008A3010008A301000880
:1000D000A3010008A3010008A3010008A301000870
:1000E000A3010008A3010008A301000800F002F822
:1000F00000F03AF80AA090E8000C82448344AAF188
:100100000107DA4501D100F02FF8AFF2090EBAE885
:100110000F0013F0010F18BFFB1A43F0010318473B
:10012000C0280000E0280000103A24BF78C878C139
:10013000FAD8520724BF30C830C144BF04680C60ED
:10014000704700000023002400250026103A28BF35
:1001500078C1FBD8520728BF30C148BF0B60704739
:100160001FB51FBD10B510BD00F06CF81146FFF7AC
:10017000F7FF01F0C5FC00F08AF803B4FFF7F2FFC7
:1001800003BC00F08DF8000009488047094800478B
:10019000FEE7FEE7FEE7FEE7FEE7FEE7FEE7FEE737
:1001A000FEE7FEE704480549054A064B7047000094
:1001B0000D120008ED000008B8000020B80600206D
:1001C000B8020020B80200204FF0000200B513462C
:1001D00094469646203922BFA0E80C50A0E80C5067
:1001E000B1F12001BFF4F7AF090728BFA0E80C5018
:1001F00048BF0CC05DF804EB890028BF40F8042B11
:1002000008BF704748BF20F8022B11F0804F18BF7D
:1002100000F8012B704770477047704710B500F029
:1002200009F8006810BD10B5044600F003F804603A
:1002300010BD00000048704758000020004870477B
:10024000580000207546FFF7F9FFAE4605006946E5
:10025000534620F00700854618B020B5FFF7A2FFEF
:10026000BDE820404FF000064FF000074FF00008B7
:100270004FF0000B21F00701AC46ACE8C009ACE838
:10028000C009ACE8C009ACE8C0098D46704710B59C
:100290000446AFF300802046BDE81040FFF76DBF75
:1002A00001491820ABBEFEE7260002007047FEE7BA
:1002B000704772B6FEE700002DE9F84FDFF8B891FD
:1002C0000024A9F1040B23460F2709F1040AABF11E
:1002D000040EC9E00125A5402A40AA427DD1674EFF
:1002E000D1F804C0ACEB0608B44532D014DCBCF144
:1002F000030F3AD009DCBCF1000F2AD0BCF1010F8A
:100300001CD0BCF1020F31D11DE0BCF1110F17D090
:10031000BCF1120F2AD119E0B8F5881F19D006DCFC
:10032000B8F5803F15D0B8F5801F1FD111E0B8F5A2
:10033000001F0ED0B8F5041F18D10AE0CB6815E0F5
:10034000CB681B1D12E0CB6808330FE0CB680C3381
:100350000CE08B682BB1012B4FF0080303D04561F3
:1003600004E0042302E0056100E00023FF2A01D835
:10037000064601E000F104064FEA840501D9A5F123
:100380002005D6F8008007FA05FC28EA0C0803FAD5
:1003900005F548EA0508C6F800804D68ED0062D50D
:1003A000374DAE6946F00106AE61AD6924F0030633
:1003B00005F001050095334D06EB050CDCF80850FF
:1003C000A607360F07FA06F825EA0805DFF8B88011
:1003D000404503D14FF0000817E044E0DFF8AC805F
:1003E000404502D14FF001080FE0DFF8A4804045FE
:1003F00002D14FF0020808E0DFF89880404502D1B2
:100400004FF0030801E04FF0040808FA06F848EA44
:100410000508CCF808804D68D9F80060ED024D461B
:1004200001D5164300E096432E604D68DAF800606F
:10043000AD02554601D5164300E096432E604D6847
:10044000DBF80060AD035D4601D5164300E096433E
:100450002E604D68DEF80060ED03754601D5164349
:1004600000E096432E60641C0D682A46E5407FF448
:1004700031AFBDE8F88F0000080401400000111002
:10048000001002400000014000080140000C014043
:1004900000100140001401400148806870470000CE
:1004A0000000002002488168027811448160704792
:1004B00000000020074810B5016841F010010160FC
:1004C000032000F075F80F2000F006F800F024F883
:1004D000002010BD0020024070B50D4D04464FF4C1
:1004E0007A712878B1FBF0F00A490968B1FBF0F0A5
:1004F00000F0BCFA48B9102C07D200222146501E49
:1005000000F036F800206C6070BD012070BD000066
:10051000000000200C0000200C4808B5816941F063
:1005200001018161816901F001010091C16941F01E
:100530008051C161C06900F080500090044841685A
:1005400021F0E06141F00071416008BD00100240FF
:1005500000000140002809DB00F01F02012191404A
:100560004009800000F1E020C0F800117047000051
:10057000F0B40E4B1B680C46C3F30223C3F107050E
:10058000042D00D90425191D072901D2002300E0FC
:10059000DB1E012606FA05F1491E214099409E40C6
:1005A000761E16403143F0BC00F07ABF0CED00E03F
:1005B000064900F0070208684FF6FF03184040EABA
:1005C0000220034A10430860704700000CED00E071
:1005D0000000FA052DE9F0470F46050061D0434EB3
:1005E000306800F00700B84209D2306820F00700F8
:1005F00038433060306800F00700B84251D12868B5
:100600003B4C810712D5400703D5606840F4E06099
:1006100060602878000703D5606840F4605060602F
:100620006068A96820F0F000084360602878C0077F
:1006300028D06868012810D02168022810D08907C6
:1006400000292EDA616821F0030101436160FFF7A0
:1006500023FF804641F288390DE021688903EFE7E6
:100660008901EDE7FFF718FFA0EB0801494502D922
:100670000320BDE8F0876068696800F00C00B0EB0B
:10068000810FEFD1306800F00700B8420BD9306815
:1006900020F0070038433060306800F00700B842AF
:1006A00001D00120E5E72878400705D56068E968B2
:1006B00020F4E060084360602878000706D5606891
:1006C000296920F4605040EAC100606000F018F829
:1006D0006168084AC1F30311515CC84006490860CB
:1006E00006480068FFF7F8FE0020C2E7002002403D
:1006F00000100240AA2800080C000020040000207E
:100700000E4A51680E4801F00C03042B11D0082B3F
:100710000FD10C48C1F38343C903C05C0AD55168AB
:10072000084AC1F34041921E515C054A5043B0FB58
:10073000F1F0704704494843704700000010024040
:1007400000127A009A28000800093D002DE9F84FB0
:10075000040070D02078C04DC00749D06868C0F34D
:100760008100012807D06868C0F38100022809D100
:100770006868C00306D52868800339D560680028FA
:10078000E7D035E06068B0F5803F0BD010B1B0F530
:10079000A02F11D0286820F480302860286820F429
:1007A000802002E0286840F480302860606890B1C2
:1007B000FFF772FE06460AE0286840F480202860B1
:1007C000F0E700BFFFF768FE801B642873D8286835
:1007D0008003F7D50CE0FFF75FFE064605E000BF9B
:1007E000FFF75AFE801B6428F0D828688003F7D4EE
:1007F00020789A4E80074FF001094FF0000839D554
:10080000686810F00C0F07D06868C0F381000228F8
:1008100009D16868C00306D42868800714D5206908
:10082000012808D110E02069B0B1C6F80090FFF7A8
:1008300033FE074605E00AE1FFF72EFEC01B022843
:10084000C4D828688007F7D52868616920F0F800C7
:1008500040EAC10028600DE0C6F80080FFF71CFEEA
:10086000074604E0FFF718FEC01B022823D82868BB
:100870008007F7D4207800072CD57948A169D9B131
:10088000C0F80090FFF708FE074604E0FFF704FEFB
:10089000C01B02280FD8686A8007F7D571484FF44B
:1008A000FA510068B0FBF1F0009000BF0098411EC3
:1008B0000091FAD20EE080E0C0F80080FFF7ECFD76
:1008C000074604E0FFF7E8FDC01B022875D8686AF8
:1008D0008007F7D42078400760D5E8690027C0007A
:1008E00008D4E86940F08050E861E869012700F029
:1008F000805000905C480168C90513D401688346A4
:1009000041F480710160FFF7C7FD824606E000BF39
:10091000FFF7C2FDA0EB0A0064284ED8DBF8000008
:10092000C005F5D5E06801280AD008B1052813D024
:10093000286A20F001002862286A20F0040002E002
:10094000286A40F001002862E06841F2883B98B1D3
:10095000FFF7A2FD82460BE0286A40F004002862FF
:10096000EEE700BFFFF798FDA0EB0A0159455AD802
:10097000286A8007F6D50CE0FFF78EFD824605E079
:10098000FFF78AFDA0EB0A0159454CD8286A800779
:10099000F6D41FB1E86920F08050E861E06988B3BF
:1009A0006968C1F38101022944D00228C6F8608039
:1009B00004D0FFF771FD044638E034E0FFF76CFD2A
:1009C000074604E0FFF768FDC01B02282BD8286803
:1009D0008001F7D4206AB0F5803F05D16868A1682E
:1009E00020F4003008436860D4E9080108436968CE
:1009F00021F4741108436860C6F86090FFF74CFD5D
:100A0000044606E025E000BFFFF746FD001B022874
:100A100009D828688001F7D51BE000BFFFF73CFD2F
:100A2000001B022802D90320BDE8F88F2868800146
:100A3000F4D40EE00128F7D06868226A00F480310F
:100A4000914204D1616A00F47010884201D0012003
:100A5000EAE70020E8E70000001002400000424200
:100A6000800442420C0000200070004010B5401E7F
:100A7000B0F1807F01D3012010BD4FF0E024606110
:100A80000F21601700F00CFD0020A06107202061FD
:100A9000002010BD7047704710B590F83C20012A27
:100AA00022D0012280F83C20CA688C6822F440726F
:100AB00022434C6822F4806222430C6822F40062D4
:100AC00022430C6922F4805222434C6922F40052E2
:100AD0002243C969002322F480420A4301684A6420
:100AE00080F83C30002010BD022010BD70B590F899
:100AF0003C20012A26D0012480F83C40022280F8C4
:100B00003D2003685A689D6822F070060A683243E7
:100B10005A600D4B02689A4208D0B2F1804F05D05E
:100B20000A4B9A4202D00A4B9A4204D1496825F0F6
:100B300080031943916080F83D40002180F83C100B
:100B4000084670BD022070BD002C0140000400402A
:100B50000008004010B50446022249B104290ED015
:100B6000082913D094F84500012816D0012010BDA3
:100B700094F842000128F9D184F842200FE094F85B
:100B800043000128F2D184F8432008E094F844009F
:100B90000128EBD184F8442001E084F845200422A8
:100BA000206800F084FB2068416C41F400414164FE
:100BB0000B492068884208D0B0F1804F05D0094920
:100BC000884202D00849884204D1816801F00701B7
:100BD000062903D0016841F001010160002010BD29
:100BE000002C0140000400400008004010B5040043
:100BF00003D094F83D0010B107E0012010BD0020A3
:100C000084F83C00204600F01FF8022084F83D00E4
:100C1000211D206800F002FB012084F8460084F8C2
:100C20003E0084F83F0084F8400084F8410084F8D6
:100C3000420084F8430084F8440084F8450084F8B6
:100C40003D00002010BD000008B500680B49884237
:100C500012D10B48816941F40061816180690022F1
:100C600000F40060009011461920FFF781FCBDE8F8
:100C700008401920FFF76EBC08BD0000002C0140A1
:100C80000010024070B5044690F83C000025012891
:100C900017D0012684F83C60022084F83D002068CB
:100CA000826822F0770222F47F428260086850282E
:100CB00038D00DDC20284FD005DC90B3102811D19E
:100CC0004AE0022070BD302846D040280AD13BE0DF
:100CD00060282FD070280DD0B0F5805F03D0B0F51C
:100CE000005F12D0012584F83D60002084F83C00AC
:100CF000284670BDCB68D1E90121206800F0E4FAF4
:100D00002068816841F0770109E0CB68D1E90121D1
:100D1000206800F0D9FA2068816841F48041816040
:100D2000E1E719E0CA684968206800F081FB5021BA
:100D3000206806E0CA684968206800F08AFB6021E4
:100D4000206800F0CBFACEE7CA684968206800F056
:100D50006FFB40212068F4E7226801461046F0E767
:100D600070472DE9F04104460068C66805694FF0F8
:100D70000007A90713D5B10711D5F91E016101209C
:100D80002077206880698007204602D0FFF7E8FFBF
:100D900004E000F0B1F8204600F043F92777680737
:100DA00016D5700714D521686FF004000861022081
:100DB00020772068806910F4407F204602D0FFF73A
:100DC000CFFF04E000F098F8204600F02AF92777DA
:100DD000280715D5300713D521686FF00800086182
:100DE000042020772068C0698007204602D0FFF7E2
:100DF000B7FF04E000F080F8204600F012F92777F2
:100E0000E80616D5F00614D521686FF010000861C9
:100E1000082020772068C06910F4407F204602D067
:100E2000FFF79EFF04E000F067F8204600F0F9F8B5
:100E30002777E80708D0F00706D021686FF0010097
:100E40000861204600F03CF9280608D5300606D592
:100E500021686FF0800008612046FFF71BFE6806DE
:100E600008D5700606D521686FF04000086120465D
:100E700000F027F9A8060AD5B00608D521686FF05A
:100E8000200008612046BDE8F041FFF704BEBDE840
:100E9000F081000000B585B0002100910191029120
:100EA00003910068104988421BD11048816941F0C4
:100EB000040181618069694600F0040004904FF4E8
:100EC000C07000900220019003900948FFF7F4F9E8
:100ED0000848416821F0C00141F0E06141F0400163
:100EE000416005B000BD0000002C01400010024030
:100EF0000008014000000140704770B5044690F8BA
:100F00003C0000260D4601280FD0012084F83C004B
:100F10006AB1042A1DD0082A2FD00C2A3FD00126FE
:100F2000002084F83C00304670BD022070BD20686F
:100F300000F0DCF92068816941F0080181612068D6
:100F4000816921F004018161206881692A69114366
:100F500011E0206800F0F2F92068816941F4006135
:100F600081612068816921F48061816120688169E3
:100F70002A6941EA02218161D2E7206800F00AFA79
:100F80002068C16941F00801C1612068C16921F090
:100F90000401C1612068C1692A69114311E0206818
:100FA00000F024FA2068C16941F40061C161206841
:100FB000C16921F48061C1612068C1692A6941EA7F
:100FC0000221C161ACE710B5040003D094F83D00E4
:100FD00010B107E0012010BD002084F83C0020463D
:100FE00000F01EF8022084F83D00211D206800F06A
:100FF00015F9012084F8460084F83E0084F83F008B
:1010000084F8400084F8410084F8420084F84300EA
:1010100084F8440084F8450084F83D00002010BDA9
:101020007047704710B50446022249B104290ED01A
:10103000082913D094F84100012816D0012010BDD2
:1010400094F83E000128F9D184F83E200FE094F88E
:101050003F000128F2D184F83F2008E094F84000D6
:101060000128EBD184F8402001E084F841200122DE
:10107000206800F00FF90F492068884203D1426CC4
:1010800042F4004242642068884208D0B0F1804FA8
:1010900005D00949884202D00849884204D18168B4
:1010A00001F00701062903D0016841F00101016048
:1010B000002010BD002C014000040040000800404A
:1010C00070477047FEE70000054808B5816941F0A8
:1010D00004018161806900F00400009008BD0000F7
:1010E0000010024010B596B000240F941094119493
:1010F000129413941C2108A81494FFF765F820217A
:101100006846FFF761F82948274901600721C0E9CF
:10111000011440F2E731C0E903148021C0E9054120
:10112000FFF764FD08B1FFF7C4F84FF480500F904B
:101130000FA91E48FFF7A6FD08B1FFF7BAF81B4834
:10114000FFF741FF08B1FFF7B4F8139413A917484C
:101150001494FFF7CBFC08B1FFF7ABF86020CDE9A2
:1011600008040A940B940C940D94002208A90F48CB
:101170000E94FFF7C2FE08B1FFF79BF800944FF4FE
:101180000050CDE904400294019403946946074855
:101190000794FFF781FC08B1FFF78BF80348FFF7CE
:1011A00079FE16B010BD0000002C01401000002098
:1011B000FEE7FEE770477047FFF774B910B590B0CF
:1011C00028216846FFF700F814210AA8FEF7FCFF63
:1011D0000220009001200490102000240590079424
:1011E0006846FFF7B3FA08B172B6FEE70F20CDE903
:1011F0000A040C940D9400210AA80E94FFF7EAF952
:10120000002801D072B6FEE710B010BD7047000094
:101210000148FFF7A6BD000010000020F0B50268ED
:10122000194B1A4C1A4D4FF08047984205D0B842DE
:1012300003D0A04201D0A84203D122F070064A6830
:101240003243984205D0B84203D0A04201D0A84210
:1012500003D122F44074CA6822434C6922F0800210
:10126000224302608A68C2620A688262984201D19F
:1012700009690163012141610169C90703D001695D
:1012800021F001010161F0BD002C0140000400408B
:101290000008004010B501F01F030121046A9940C5
:1012A0008C430462016A9A401143016210BD10B57B
:1012B00001F00F030421046A99408C430462016A1F
:1012C0009A401143016210BD10B5846842EA0322BE
:1012D00024F47F440A432243826010BD826822F0D6
:1012E00070020A4342F007018160704730B5036A1B
:1012F000026A22F0010202624268846924F07305E6
:101300000C682C4323F002058B682B430A4DA8423E
:101310000BD123F00805CB6822F440722B434D69B2
:1013200023F0040315438A692A43426084614968B3
:101330004163036230BD0000002C014030B5026AF9
:10134000036A23F010030362436884690D6824F480
:10135000E64444EA05248D6822F0200242EA0512A0
:101360000B4DA8420ED1CD6822F0800242EA051250
:101370004D6923F4406343EA85038D6922F04002FE
:1013800043EA85034360846149688163026230BD3A
:10139000002C014030B5036A026A22F480720262B6
:1013A0004268C46923F4007324F073050C682C436D
:1013B0008D6843EA05230C4DA8420ED1CD6823F475
:1013C000006343EA05234D6922F4405242EA0512C4
:1013D0008D6923F4806342EA05124260C461496862
:1013E000C163036230BD0000002C014030B5046AC7
:1013F000026A22F4805202624268C3690D6823F4D3
:10140000E64343EA05238D6824F4005444EA053496
:10141000064DA84204D14D6922F4804242EA851269
:101420004260C36149680164046230BD002C014020
:1014300010B5036A046A24F001040462846924F08C
:10144000F00444EA021423F00A020A4384610262AF
:1014500010BD10B5036A046A24F0100404628469A4
:1014600023F0A00324F4704444EA023243EA011159
:101470008261016210BDFEE7490050EAC12018BF39
:1014800004204A0D18BF40F0010040F2FF72B2EB99
:10149000515F08BF40F00200012808BF05207047D7
:1014A0000907090E002804DB00F1E02080F8001491
:1014B000704700F00F0000F1E02080F8141D704725
:1014C0002DE9F74F144694B00021C4E90211159993
:1014D000079121F00045C9498D4206DC1599C4E900
:1014E000000117B00020BDE8F08FC549DFF814A354
:1014F000A9423CDD0799C44E0029C44FC44A15993E
:10150000534619DD00F03AFF554506D0C14AC24B9B
:1015100000F034FFC4E900010AE04FF0D352BE4BA3
:1015200000F02CFF32463B4600F028FFC4E90001E2
:1015300017B00120BDE8F08F00F0B4FB554506D090
:10154000B44AB54B00F0AEFBC4E900010AE04FF02D
:10155000D352B14B00F0A6FB32463B4600F0A2FB53
:10156000C4E9000117B04FF0FF30BDE8F08FAB4980
:10157000A942159978DB21F0004183468846A84AA4
:10158000A84B00F0F1FD0022A74B00F08BFB00F010
:1015900091FD099000F0BDFD06460F469C4A53465A
:1015A00000F0E2FD43465A4600F0DCFE80468A46E3
:1015B000984A994B3046394600F0D6FD2A0D012550
:1015C0000B924246534600F0CDFE032DC4E90001C4
:1015D00039D00B98C1F30A51401A05EB4511113966
:1015E000814230DA9148C346784400EB0510CDF8CB
:1015F0000CA00C90D0E900233046394600F0B4FD31
:1016000002460B46049106905846039900F0B6FE38
:1016100080468A4602460B465846039900F0AEFEC5
:10162000049B069A00F0AAFE83460C980391394663
:10163000D0E90223304600F097FD5A46039B00F0A4
:101640009DFE6D1CBDE707980028A2BF099817B042
:10165000BDE8F08F616881F000416160099817B0C2
:101660004042BDE8F08FFFE784461598C1F31301AF
:10167000C0F30A50A0F2F5304FEA601800F01F06E0
:10168000C6F12000139000200690079041F4801EC0
:1016900005206D4676B1664A08EB00017A4452F89F
:1016A000213002EB8101B3404A68139922FA01F11B
:1016B000194305E05F4908EB0002794451F8221014
:1016C000A1FB0E27A1FB0C131A449A4234BF01233D
:1016D000002303EB070A05EB8003D3E901B70F44AE
:1016E0008F4234BF0121002193448B4411B19345B3
:1016F00002D903E0934501D2012100E00021C3E9B2
:1017000001B7514445F82010011EA0F10100C1DCD1
:101710000298059F00F10050800F12900298DDE9B9
:101720000356800000F0F5FC834628460D9100F03A
:1017300007FD6FF01D0201F069F8CDE90E0130469A
:1017400000F0FEFC6FF03D0201F060F880468A4632
:10175000384600F0F5FC6FF05D0201F057F80746DF
:1017600042465346119100F09DFADDE90E2300F048
:1017700099FA5A460D9B00F095FA00250E465A46F6
:1017800028460D9B00F0FAFDDDE90E2300F0F6FD82
:101790004246534600F0F2FD3A46119B00F0E2FD4E
:1017A000DFF898A0244A534600F0DEFC074688463E
:1017B000234A244B3146284600F0D6FC3A4643469D
:1017C00000F070FA074688464FF0A842534631466B
:1017D000284600F0C9FC3A46434600F063FA159AE1
:1017E00012F0004F04D0129A81F00041524212923E
:1017F000C4E90001129817B0BDE8F08FFB21E93F62
:101800007CD90240FB21F93F7370032E8A19A33B58
:10181000000040543163621A61B4D03DFB2139416C
:1018200083C8C96D305FE43F0000E03F041300004F
:101830008012000062120000182D4454FB21F93D73
:101840003326A611460B113C2DE9FF4D21F000482F
:1018500007460C46B8F1795F08DA00F02BFC002847
:1018600001BF0020324904B0BDE8F08D3A4623465E
:101870001046194600F078FC054602462D480E46F3
:101880000B460621784400F05DF82A46334600F006
:101890006BFCDDE9022382468B463846214600F088
:1018A00063FC04460F4652465B462846314600F02C
:1018B0005BFC22463B4600F061FD07468A464FF03E
:1018C000FF322846314600F0A1FF1B4A90450ADA54
:1018D0003A46534600F052FD04B00022BDE8F04DF8
:1018E000134B00F03FBD154A4245A8BFA8F50015AF
:1018F0004FF00004B8BF124D22462B4600F03EFDCB
:101900000646884622462B460020094900F036FD4F
:1019100004460D463A4653463046414600F02EFDF9
:1019200004B022462B46BDE8F04D00F01BBD000080
:101930000000F03F381000003333D33F0000E93F90
:101940000000D23F2DE9F0414F1E00EBC7010446D5
:10195000D1E9000115461E4637F006020DD02A4691
:10196000334600F001FC7F1E04EBC703D3E90023DC
:1019700000F098F937F00602F1D1022F25D0042F9C
:1019800013D0062F18BFBDE8F0812A46334600F079
:10199000EBFBD4E90A2300F085F92A46334600F030
:1019A000E3FBD4E9082300F07DF92A46334600F032
:1019B000DBFBD4E9062300F075F92A46334600F034
:1019C000D3FBD4E9042300F06DF92A46334600F036
:1019D000CBFBD4E9022300F065F92A46334600F038
:1019E000C3FBD4E90023BDE8F04100F05BB900007F
:1019F0002DE9FF4D054621F0004084B00C46B0F1C2
:101A0000795F0BDA2846FFF737FD042808BF00F09E
:101A10006FF8284608B02146BDE8F08D2A460B46EF
:101A2000104600F0A1FB06460F462A46234600F06A
:101A30009BFB804626488A4632463B460521784431
:101A4000FFF780FF83461098029160B3214A224B32
:101A50004046514600F088FBCDE900015A46404619
:101A60005146029B00F080FB82468846DDE9060174
:101A70004FF0FF3200F0CAFE5246434600F07EFCB3
:101A800032463B4600F070FBDDE9062300F076FCB1
:101A9000DDE9002300F072FC08B02A462346BDE8C9
:101AA000F04D00F05FBC0B465A463046394600F018
:101AB0005BFB084A084B00F0F5F84246534600F03D
:101AC00053FB08B02A462346BDE8F04D00F0EAB8C3
:101AD000760F0000495555555555C5BF012200F0F8
:101AE00095BE002213461046114600F08BB9000047
:101AF000024A0020110700F089BE000001FDFFFF2F
:101B0000FEF7D8FCFFF75AFBFFF7DEFAFFF7EAFA19
:101B100000211D48FFF786FA00211B48FFF71AF83D
:101B2000194D1A4EDFF86880DFF86890DFF868A07A
:101B30004FF0FF3BFEF7B0FC00F002FB324643469D
:101B400000F012FB00F07CF800F002FD4A4653461C
:101B500000F00AFB00F024F85A4600F057FE00227D
:101B60000E4B00F09FF800F06BF82F680446F86AFF
:101B700080B2401C00F038FD214600F049FD00F025
:101B800013FD80B27863D5E710000020FCA9F1D2E4
:101B90004D62503F1F85EB51B81E19400000E03FD9
:101BA00000B5254B21F0004287B09A4203DC0022A9
:101BB000134600922BE0214B9A4208D140B94FF0D6
:101BC0000100FEF730FBFFF78CFF07B000BD03DB21
:101BD000FFF784FF07B000BD02AAFFF771FC10F009
:101BE00003014FF001000DD0012914D002291AD0B1
:101BF0000DF1080C9CE80F00FFF726FE07B081F0FE
:101C0000004100BD0DF1080C00909CE80F00FFF7AB
:101C1000EFFE07B000BD0DF1080C9CE80F00FFF7C8
:101C200013FE07B000BD0DF1080C00909CE80F00FA
:101C3000FFF7DEFEE2E70000FB21E93F0000F07F56
:101C400021F00042A2F16052B2F5801F01F0004382
:101C500028BFD2F17F6C0BD95FEA001C43EAC202B5
:101C600042EB507018BF704728BF20F0010070474A
:101C7000B2F5801FBCBF184670474FEA410C1CF5F7
:101C8000001F02D2084600F08ABD70B500F016FBB6
:101C900000000089FFF7F6BF4FF00040A0F580007C
:101CA0007047000010B591EA030F48BF83F000436E
:101CB00000F16C83841A71EB030C05D2121943EB0B
:101CC0000C03001B61EB0C01DFF824E14FEA115417
:101CD000A4EB135C1EEA430F18BF9EEA445F73D067
:101CE00023EA0E03DCF1200E21EA045143F48013B1
:101CF00032D322FA0CFE10EB0E0023FA0CFE41EB5D
:101D00000E01CCF1200E03FA0EFE10EB0E0051F185
:101D10000001B1F5801FCCF1200E32D201EB04514D
:101D200012FA0EF2BDE8104058BF7047401C38BF91
:101D30005FEA420218BF7047002814BF20F001007C
:101D400041F100014FEA410313F5001F38BF70470E
:101D5000A1F1C04100F000BB012A43EB0302ACF14A
:101D6000200CDCF11F0E32BF4FF0000E23FA0CF3F3
:101D700010EB030041EB0451B4EB115FD0D0A1EBA9
:101D8000045101F5801149085FEA300001EB04516C
:101D90000ED350F1000038BF12FA0EFE08D1BDE894
:101DA0001040C9E7401C38BF5FEA4202CAD1C3E70E
:101DB000BDE810404FEA410313F5001F38BF7047DC
:101DC000A1F1C04100F0C8BA9EEA445F08D011EA10
:101DD0005E0FBDE8104004BF01F0004100207047D5
:101DE000BDE8104070B500F069FA00BF64FBBE3E6C
:101DF0000000E0FF02494FF0000000F0D5BC00BF3A
:101E00000000F87F2DE9C04130B4DFF8A0C23CEA01
:101E1000111418BF3CEA131400F0EC8081EA0305AA
:101E20001CEA111444EAD57418BF1CEA131500F01B
:101E3000C780A4EB05044FF0004545EAC12145EAFF
:101E4000C32341EA505143EA525304F17F7499424B
:101E500004F500344FEAC0204FEAC22208BF904286
:101E600000F09C804FEA13650FF24016765D4FEA52
:101E7000134506FB05F7C7F1807706FB07F74FEA26
:101E8000D737A7FB03687642C8F58038A7FB06CE94
:101E900038BFA8F1010807FB08E64FF0000EA6FBCB
:101EA000028CE6FB03CEDCF1000CCEF1004E38BF15
:101EB000AEF1010EA6FB0C584FF000074FF00005E5
:101EC000E6FB0E87A1FB08C6A0FB07CE16EB0E06AD
:101ED00045F10005E1FB076515F1E04E7EBFA4F575
:101EE00080345FEA46066D4116F1800745F1000532
:101EF0004FEA17274FEA066647EA0567A6F1DE466E
:101F0000B6F1805F4FEA15251FD9384624F0010C41
:101F100005EBC471BCF1FE6F01EB0C1102D8F0BCF3
:101F2000BDE8008124425CBF01F5801E9EEAC47FAB
:101F300002D4F0BCBDE80081244238D4F0BCA1F149
:101F4000C041BDE8004100F007BA4FEAD22242EAA0
:101F500043524FEAD323A7FB02864FEAD02040EA40
:101F6000415007FB03661EEA0E0F4FEAD12105FB25
:101F7000026658BFA6EB0056B6EB00564FEA520E6B
:101F80004EEAC37E18EB0E0E56EB530EBDD518EB82
:101F900002085E417F1C55F10005B6E74FF480153D
:101FA0004FF000074FF000064FF00008ADE7F0BC1F
:101FB0004FF0000001F1C04101F00041BDE8008197
:101FC00011EA0C1F0CEA131500D00CE013EA0C1FE9
:101FD00000F025804FF00000F0BC81EA030101F021
:101FE0000041BDE80081F0BCBDE8004181EA030189
:101FF00000F0B2B9F0BCBDE8004170B500F05EF988
:10200000097EFC3E00F007B881EA03014FF00000B2
:1020100001F00041704781EA030100F09DB9F0BC76
:10202000BDE800414FF0000021497047FFFDFBF97A
:10203000F7F5F4F2F0EEEDEBE9E8E6E4E3E1E0DEFB
:10204000DDDBDAD8D7D5D4D3D1D0CFCDCCCBCAC86D
:10205000C7C6C5C4C2C1C0BFBEBDBCBBBAB9B8B794
:10206000B6B5B4B3B2B1B0AFAEADACABAAA9A8A887
:10207000A7A6A5A4A3A3A2A1A09F9F9E9D9C9C9B55
:102080009A99999897979695959493939291919000
:102090008F8F8E8E8D8C8C8B8B8A89898888878791
:1020A0008685858484838382828181800000FF0706
:1020B0000000F87F4FEA41034FEA5353A3F58063D2
:1020C000D3F11E03C8BFD3F1210C0CDD4FF0004249
:1020D00042EAC12242EA505232FA03FC8CEAE17C25
:1020E000ACEBE1707047102BC4BF0020704703F5C4
:1020F000787CBCF1FF3F04D06FF0004282EA2100FF
:10210000704770B500F0DAF84992248000207047DB
:10211000F2E710F0004248BF4042B0FA80F310FAF4
:1021200003F10AD0C3F11D0303F580634FEA415068
:1021300002EB035202EBD12170474FF000007047D1
:10214000B0FA80F310FA03F10AD0C3F11D0303F5CE
:1021500080634FEA41504FEA035202EBD1217047AE
:102160004FF0000070470000DFF848C170B51CEA6E
:10217000111E1EBF1CEA13159EEA0C0F95EA0C0FE8
:1021800000F06F8081EA030423EA4C134EEAD47E08
:1021900021EA4C1141F4801143F48013AE44A1FBB9
:1021A000024CA0FB0365AEF17F7E361955EB0C05A2
:1021B000A1FB034C4CF10003A0FB021C16EB0C0628
:1021C000654153F10003094218BF46F0010613F4BC
:1021D000007F0BD14FEA03314FEA0530340341EA67
:1021E000155140EA16506FF003020AE04FEAC3218E
:1021F0004FEAC520F40241EA555140EA56506FF0CB
:10220000020202EB2E4201EB025585EACE710AD0A2
:102210005FEA440C18BF24F0004450F1000041F183
:10222000000120EAD47040F2FE7C624500D270BD0D
:10223000A84214BF4FF080444FF04044002E08BF26
:102240000024BEF1806FA8BFA1F1C041BDE870407D
:1022500080F282804FF0000001F1C04101F00041A6
:1022600070479EEA0C0F0CEA131518BF95EA0C0F85
:1022700006D04FF0000081EA030E0EF0004170BD61
:1022800000F01CF88900013E00F007B800F009B822
:102290004FEA430C5FEA5C5C08D081EA030100F07E
:1022A0005BB84FEA410C5FEA5C5CF6D14FF000008E
:1022B000014970470000FF070000F87F0EF1020E91
:1022C0002EF0030E5EF8046B364205D4012A43EB70
:1022D000030515F5001F12D8012841EB010C1CF570
:1022E000001F0CD80ED14FEAD17C15F5001F0CEB66
:1022F0004C0C0CF1020C08BF4CEBD37C04E04FF00B
:10230000080C01E04FEAD37C0CEB4C0526FA05F6ED
:1023100006F00706B6F1040C06D20EEB860CBDE8FB
:1023200070404CF0010C6047DFE80CF0090B020232
:102330004FF000414FF00000A1F5002170BD19469B
:102340001046012851EB010418BFD4F5001484BFD6
:10235000002001F0004170BD0808A0F500114FEA0F
:102360003101704791EA030F10B581F000413FF54C
:10237000A1AC83F0004300F009B8000010B591EA69
:10238000030F48BF83F000433FF594AC841A71EB10
:10239000030C07D212198CF0004C43EB0C03001B0A
:1023A00061EB0C01DFF8A4E14FEA1154A4EB135CDC
:1023B0001EEA430F18BF9EEA445F00F0B08023EA94
:1023C0006E03524221EA0451C3EB6E0338BF5B1E19
:1023D000DCF1200E25D322FA0CFE10EB0E0043FA9E
:1023E0000CFE41EB0E01CCF1200E03FA0EFE10EBB9
:1023F0000E0051F10001CCF1200E29D412FA0EF298
:1024000001EB0451BDE8104058BF7047401C1CBF91
:10241000B2F1004F704700280CBF491C20F00100AA
:10242000704712EB020E43EB030218BF4FF0010E90
:102430004EEA4202ACF1200CDCF11E0E54D943FAF4
:102440000CFE10EB0E0051F1FF31CCF11E0ED5D574
:102450000EF1010E12FA0EFE404141EB010101EBBB
:10246000445C5FEA5C5C10D910EBDE7001EB045158
:1024700038BFBEF1004FBDE8104018BF70470028BC
:102480000CBF491C20F00100704730D24FEAD42C19
:1024900011F5001124F400641BD0B1FA81F20B3A5B
:1024A000A41AA41ED2F12003914030FA03F3194379
:1024B000904001EBCC71002C01EB0451BDE81040C1
:1024C000A8BF704701F1C0414FF0000001F000418A
:1024D0007047B0FA80F310FA03F100D110BDE41A8E
:1024E000173C4805C90AE4E701EB045110BD491047
:1024F00001EB0451BDE810404FEA300002E04FF01C
:10250000000170474A0008BF0042F8D0B2F5001F32
:1025100028BF704701F000414FF0000070479EEA6D
:10252000445F07D011EA5E0FBDE8104004BF0021F0
:1025300000207047BDE8104070B5FFF7BFFE00BF38
:1025400040DFF63E83F00041104670470000E0FF98
:1025500043004FEAD30C4FEA3C0C43401FBF4007F7
:102560000CF1605113F0FE4F70471CF0006F03D167
:1025700000200CF0004170470CF0004343EA50701B
:1025800010B540EACC0000F0C4F800BF0000009293
:102590004FEA0001FFF7E0BE4FF000414FF00000AE
:1025A000A1F5002170470000C10DD1F19E0206DBAC
:1025B0004FEA002343F0004323FA02F07047004241
:1025C00007D54FEA4001B1F1FE4F02D24FF00000B3
:1025D000704710B500F09DF84992248000207047A4
:1025E0006FEA200070470000B0FA80F310FA03F29F
:1025F000C3F19D030AD0D90501EB1220530638BF61
:10260000704700F1010008BF20F001007047000092
:102610004FF47F0C1CEAD0121EBF1CEAD11392EAC1
:102620000C0F93EA0C0F00F0478090EA010F48BFAF
:1026300042F480724FF0004C4CEA00204CEA012139
:1026400002EB0302A0FB0113A2F50002002918BF50
:1026500043F001035B0028BF4FEA330342EB224201
:102660005FEA132C4CEBC2502EBFBCEB436FB2F5AC
:102670007C0F70474FEA036CBCF1004F08BF20F09D
:102680000100B2F57C0F38BF70470BD582F0FF0216
:1026900012F5803FC8BF704700F1C040D8BF00F0BE
:1026A0000040704700F5000C5FEA4C0C48BF7047D3
:1026B000B0F1C04000F073B890EA010F0CEAD113FA
:1026C00048BF42F48072624538BF634504D280EA55
:1026D000010000F00040704710B500F01AF800BF8C
:1026E0008900013E00F007B800F009B85FEA410C2C
:1026F0005FEA1C6C08D080EA010000F050B85FEA85
:10270000400C5FEA1C6CF6D14FF00040A0F5800051
:1027100070470EF1020E2EF0030E5EF8044B2442B9
:1027200004D44FEA4102B2F17F4F11D84FEA40037F
:10273000B3F17F4F0CD80ED14FEAD07CB2F17F4F6E
:102740000CEB4C0C0CF1020C08BF4CEBD17C04E000
:102750004FF0080C01E04FEAD17C0CEB4C0324FA5B
:1027600003F404F00704B4F1040C06D20EEB840C5D
:10277000BDE810404CF0010C6047DFE80CF00708A2
:1027800002024FF00040A0F5800010BD0846420054
:1027900018BFD2F1807288BF00F0004010BDFF2149
:1027A00041EAD050C00570470CF00F03092B08BF59
:1027B000082000F059800A2B0BD0082B18BF704757
:1027C00008BF1CF0400F0AD04FF000004FF000018E
:1027D00070471CF0400F18BF4FF0004070471CF0CE
:1027E000100F08D020F0704300F07F4242EAD3017E
:1027F0004FEA4370704700F0604021F07F4242EAA8
:10280000000201F07F4040EA727070474FF0FF0C09
:102810004CF4E06C1CEA11531CBF9CEA030C944579
:10282000C2BFDA4201EB02517047002B0DD0BCF160
:10283000000F0FD0002A01F00041A4BF41F0E04199
:1028400041F07F614FF00000704701F000414FF010
:102850000000704750EA01334FF09B0C18BF4CF05A
:10286000806C7FF4C7AA70471CF4801F11D01CF441
:10287000E02F03D06FEACC31490070474FF0405051
:10288000EFF3008222F0704242EA000282F30088F5
:1028900070474FF00000704701020203040506076D
:1028A00008090A0B0C0D0E0F1010000000000000AC
:1028B00000000102030406070809000000000000F0
:1028C0004C5555555555A53F7751C1166CC156BF4E
:1028D0009015CB19A001FA3EAD529C804F7E92BE5E
:1028E000C4B1B4BD9EEE213ED43888BEE9FAA8BD7D
:1028F00000004054FB21F93F3163621A61B4D03DBE
:102900000000601A61B4D03D7370032E8A19A33B96
:102910000000002E8A19A33BC14920259A837B39E8
:1029200000000000000000006E83F9A22915444E4B
:10293000D15727FCC0DD34F5999562DB4190433CCB
:10294000AB6351FE61C5BBDE3A6E24B7E0D24D42A7
:10295000EA2E49061C92D1091CEB1DFE3EA729B1A7
:10296000F53582E88444BB2E26709CE9417E5FB435
:1029700039D69139F43953838B5F849C3B28F9BD58
:10298000FF97F81F0F9805DE8B112FEF1F6D0A5A66
:10299000CF7E366DB709CB27663F464F2DEA5F9E47
:1029A000C7BA27757BF1E5EBF739073DEA92528A02
:1029B000B15FFB6B085D8D1FA6F810111111813FEF
:1029C000D561C119A0012ABF7DFEB157E31DC73EE5
:1029D000EB9C2B8AE6E55ABE7CD5CF5A3AD9E53D29
:1029E000002A000800000020100000002801000854
:1029F000102A000810000020A8060000440100086A
:102A000001000000100000000000000000127A0029
:04000005080000ED02
:00000001FF
