:020000040800F2
:10000000B8060020890100081B100008E70E000850
:10001000191000088F0200080312000800000000F9
:100020000000000000000000000000001F10000899
:1000300091020008000000001D10000821100008B7
:10004000A3010008A3010008A3010008A301000800
:10005000A3010008A3010008A3010008A3010008F0
:10006000A3010008A3010008A3010008A3010008E0
:10007000A3010008A3010008A3010008A3010008D0
:10008000A3010008A3010008A3010008A3010008C0
:10009000A3010008A3010008A3010008A3010008B0
:1000A000A3010008A3010008A3010008A3010008A0
:1000B000A3010008A3010008A3010008A301000890
:1000C000A3010008A3010008A3010008A301000880
:1000D000A3010008A3010008A3010008A301000870
:1000E000A3010008A3010008A301000800F002F822
:1000F00000F03AF80AA090E8000C82448344AAF188
:100100000107DA4501D100F02FF8AFF2090EBAE885
:100110000F0013F0010F18BFFB1A43F0010318473B
:10012000D0140000F0140000103A24BF78C878C141
:10013000FAD8520724BF30C830C144BF04680C60ED
:10014000704700000023002400250026103A28BF35
:1001500078C1FBD8520728BF30C148BF0B60704739
:100160001FB51FBD10B510BD00F058F81146FFF7C0
:10017000F7FF01F057F800F076F803B4FFF7F2FF4D
:1001800003BC00F07DF8000009488047094800479B
:10019000FEE7FEE7FEE7FEE7FEE7FEE7FEE7FEE737
:1001A000FEE7FEE704480549054A064B7047000094
:1001B00075100008ED000008B8000020B806002007
:1001C000B8020020B80200204FF0000200B513462C
:1001D00094469646203922BFA0E80C50A0E80C5067
:1001E000B1F12001BFF4F7AF090728BFA0E80C5018
:1001F00048BF0CC05DF804EB890028BF40F8042B11
:1002000008BF704748BF20F8022B11F0804F18BF7D
:1002100000F8012B7047704770477047754600F033
:100220002BF8AE4605006946534620F00700854688
:1002300018B020B5FFF7B6FFBDE820404FF000062C
:100240004FF000074FF000084FF0000B21F00701BE
:10025000AC46ACE8C009ACE8C009ACE8C009ACE801
:10026000C0098D46704710B50446AFF300802046A4
:10027000BDE81040FFF781BF0048704758000020DC
:1002800001491820ABBEFEE7260002007047FEE7DA
:10029000704772B6FEE700002DE9F84FDFF8B8911D
:1002A0000024A9F1040B23460F2709F1040AABF13E
:1002B000040EC9E00125A5402A40AA427DD1674E1F
:1002C000D1F804C0ACEB0608B44532D014DCBCF164
:1002D000030F3AD009DCBCF1000F2AD0BCF1010FAA
:1002E0001CD0BCF1020F31D11DE0BCF1110F17D0B1
:1002F000BCF1120F2AD119E0B8F5881F19D006DC1D
:10030000B8F5803F15D0B8F5801F1FD111E0B8F5C2
:10031000001F0ED0B8F5041F18D10AE0CB6815E015
:10032000CB681B1D12E0CB6808330FE0CB680C33A1
:100330000CE08B682BB1012B4FF0080303D0456113
:1003400004E0042302E0056100E00023FF2A01D855
:10035000064601E000F104064FEA840501D9A5F143
:100360002005D6F8008007FA05FC28EA0C0803FAF5
:1003700005F548EA0508C6F800804D68ED0062D52D
:10038000374DAE6946F00106AE61AD6924F0030653
:1003900005F001050095334D06EB050CDCF808501F
:1003A000A607360F07FA06F825EA0805DFF8B88031
:1003B000404503D14FF0000817E044E0DFF8AC807F
:1003C000404502D14FF001080FE0DFF8A48040451E
:1003D00002D14FF0020808E0DFF89880404502D1D2
:1003E0004FF0030801E04FF0040808FA06F848EA65
:1003F0000508CCF808804D68D9F80060ED024D463C
:1004000001D5164300E096432E604D68DAF800608F
:10041000AD02554601D5164300E096432E604D6867
:10042000DBF80060AD035D4601D5164300E096435E
:100430002E604D68DEF80060ED03754601D5164369
:1004400000E096432E60641C0D682A46E5407FF468
:1004500031AFBDE8F88F0000080401400000111022
:10046000001002400000014000080140000C014063
:1004700000100140001401400AB1016170470904F5
:10048000FBE7000001488068704700000000002082
:1004900002488168027811448160704700000020A2
:1004A000074810B5016841F010010160032000F019
:1004B00067F80F2000F006F800F024F8002010BDC7
:1004C0000020024070B50D4D04464FF47A71287833
:1004D000B1FBF0F00A490968B1FBF0F000F0AEFAA8
:1004E00048B9102C07D200222146501E00F028F8EF
:1004F00000206C6070BD012070BD00000000002075
:100500000C0000200C4808B5816941F001018161AF
:10051000816901F001010091C16941F08051C1611F
:10052000C06900F0805000900448416821F0E0610B
:1005300041F00071416008BD001002400000014020
:10054000F0B40E4B1B680C46C3F30223C3F107053E
:10055000042D00D90425191D072901D2002300E02C
:10056000DB1E012606FA05F1491E214099409E40F6
:10057000761E16403143F0BC00F044BE0CED00E0A6
:10058000064900F0070208684FF6FF03184040EAEA
:100590000220034A10430860704700000CED00E0A1
:1005A0000000FA052DE9F0470F46050061D0434EE3
:1005B000306800F00700B84209D2306820F0070028
:1005C00038433060306800F00700B84251D12868E5
:1005D0003B4C810712D5400703D5606840F4E060CA
:1005E00060602878000703D5606840F46050606060
:1005F0006068A96820F0F000084360602878C007B0
:1006000028D06868012810D02168022810D08907F6
:1006100000292EDA616821F0030101436160FFF7D0
:1006200031FF804641F288390DE021688903EFE708
:100630008901EDE7FFF726FFA0EB0801494502D944
:100640000320BDE8F0876068696800F00C00B0EB3B
:10065000810FEFD1306800F00700B8420BD9306845
:1006600020F0070038433060306800F00700B842DF
:1006700001D00120E5E72878400705D56068E968E2
:1006800020F4E060084360602878000706D56068C1
:10069000296920F4605040EAC100606000F018F859
:1006A0006168084AC1F30311515CC84006490860FB
:1006B00006480068FFF706FF0020C2E7002002405E
:1006C00000100240DE1500080C000020040000208D
:1006D0000E4A51680E4801F00C03042B11D0082B70
:1006E0000FD10C48C1F38343C903C05C0AD55168DC
:1006F000084AC1F34041921E515C054A5043B0FB89
:10070000F1F0704704494843704700000010024070
:1007100000127A00CE15000800093D002DE9F84FBF
:10072000040070D02078C04DC00749D06868C0F37D
:100730008100012807D06868C0F38100022809D130
:100740006868C00306D52868800339D5606800282A
:10075000E7D035E06068B0F5803F0BD010B1B0F560
:10076000A02F11D0286820F480302860286820F459
:10077000802002E0286840F480302860606890B1F2
:10078000FFF780FE06460AE0286840F480202860D3
:10079000F0E700BFFFF776FE801B642873D8286857
:1007A0008003F7D50CE0FFF76DFE064605E000BFBD
:1007B000FFF768FE801B6428F0D828688003F7D410
:1007C00020789A4E80074FF001094FF0000839D584
:1007D000686810F00C0F07D06868C0F38100022829
:1007E00009D16868C00306D42868800714D5206939
:1007F000012808D110E02069B0B1C6F80090FFF7D9
:1008000041FE074605E00AE1FFF73CFEC01B022857
:10081000C4D828688007F7D52868616920F0F800F7
:1008200040EAC10028600DE0C6F80080FFF72AFE0C
:10083000074604E0FFF726FEC01B022823D82868DD
:100840008007F7D4207800072CD57948A169D9B161
:10085000C0F80090FFF716FE074604E0FFF712FE0F
:10086000C01B02280FD8686A8007F7D571484FF47B
:10087000FA510068B0FBF1F0009000BF0098411EF3
:100880000091FAD20EE080E0C0F80080FFF7FAFD98
:10089000074604E0FFF7F6FDC01B022875D8686A1A
:1008A0008007F7D42078400760D5E8690027C000AA
:1008B00008D4E86940F08050E861E869012700F059
:1008C000805000905C480168C90513D401688346D4
:1008D00041F480710160FFF7D5FD824606E000BF5C
:1008E000FFF7D0FDA0EB0A0064284ED8DBF800002B
:1008F000C005F5D5E06801280AD008B1052813D055
:10090000286A20F001002862286A20F0040002E032
:10091000286A40F001002862E06841F2883B98B103
:10092000FFF7B0FD82460BE0286A40F00400286221
:10093000EEE700BFFFF7A6FDA0EB0A0159455AD824
:10094000286A8007F6D50CE0FFF79CFD824605E09B
:10095000FFF798FDA0EB0A0159454CD8286A80079B
:10096000F6D41FB1E86920F08050E861E06988B3EF
:100970006968C1F38101022944D00228C6F8608069
:1009800004D0FFF77FFD044638E034E0FFF77AFD3E
:10099000074604E0FFF776FDC01B02282BD8286825
:1009A0008001F7D4206AB0F5803F05D16868A1685E
:1009B00020F4003008436860D4E9080108436968FE
:1009C00021F4741108436860C6F86090FFF75AFD7F
:1009D000044606E025E000BFFFF754FD001B022897
:1009E00009D828688001F7D51BE000BFFFF74AFD52
:1009F000001B022802D90320BDE8F88F2868800177
:100A0000F4D40EE00128F7D06868226A00F480313F
:100A1000914204D1616A00F47010884201D0012033
:100A2000EAE70020E8E70000001002400000424230
:100A3000800442420C0000200070004010B5401EAF
:100A4000B0F1807F01D3012010BD4FF0E024606140
:100A50000F21601700F0D6FB0020A0610720206165
:100A6000002010BD70B590F83C20012A26D001244A
:100A700080F83C40022280F83D2003685A689D6857
:100A800022F070060A6832435A600D4B02689A429F
:100A900008D0B2F1804F05D00A4B9A4202D00A4BDF
:100AA0009A4204D1496825F080031943916080F887
:100AB0003D40002180F83C10084670BD022070BD0A
:100AC000002C0140000400400008004010B5040064
:100AD00003D094F83D0010B107E0012010BD0020C4
:100AE00084F83C00204600F01FF8022084F83D0006
:100AF000211D206800F0C0FA012084F8460084F827
:100B00003E0084F83F0084F8400084F8410084F8F7
:100B1000420084F8430084F8440084F8450084F8D7
:100B20003D00002010BD000000B585B000210091FF
:100B300001910291039100680E49884217D10E4835
:100B4000816941F400618161816901F4006104916E
:100B5000816941F0040181618069694600F0040007
:100B600004904FF4807000900448FFF795FB05B0A7
:100B700000BD0000002C01400010024000080140B0
:100B800070B5044690F83C000025012817D00126D6
:100B900084F83C60022084F83D002068826822F0DE
:100BA000770222F47F4282600868502838D00DDC3A
:100BB00020284FD005DC90B3102811D14AE0022044
:100BC00070BD302846D040280AD13BE060282FD0A5
:100BD00070280DD0B0F5805F03D0B0F5005F12D063
:100BE000012584F83D60002084F83C00284670BD53
:100BF000CB68D1E90121206800F087FA206881687C
:100C000041F0770109E0CB68D1E90121206800F0CB
:100C10007CFA2068816841F480418160E1E719E055
:100C2000CA684968206800F082FA5021206806E00E
:100C3000CA684968206800F0B7FA6021206800F0AF
:100C40006EFACEE7CA684968206800F070FA402161
:100C50002068F4E7226801461046F0E72DE9F041EC
:100C6000054690F83C0000260C46012810D00120D3
:100C700085F83C0072B1042A1CD0082A2CD00C2A1A
:100C800050D00126002085F83C003046BDE8F081B8
:100C90000220FBE7D4E90012E368286800F058FA64
:100CA0002868816921F00C01816128688169A26846
:100CB00011430FE0D4E90012E368286800F086FAD7
:100CC0002868816921F44061816128688169A2688E
:100CD00041EA02218161D5E72868D4E9002C277B0D
:100CE000036A016A21F480710162C16923F400730F
:100CF00021F0030141EA0C0121F0F00C39074FF417
:100D000000774CEA116107EA02221A43C1610262CC
:100D10002868C16921F00C01C1612868C169A26815
:100D200011432BE02868D4E90021E768036AD0F872
:100D300020C02CF4805CC0F820C0D0F81CC023F484
:100D400000532CF4407C4CEA012121F4704C4FF606
:100D5000FF7101EA07314FF4005741EA0C0107EA3D
:100D600002321A43C16102622868C16921F44061FC
:100D7000C1612868C169A26841EA0221C16181E7B5
:100D800010B5040003D094F83D0010B107E0012035
:100D900010BD002084F83C00204600F01EF8022020
:100DA00084F83D00211D206800F066F9012084F8D8
:100DB000460084F83E0084F83F0084F8400084F840
:100DC000410084F8420084F8430084F8440084F829
:100DD000450084F83D00002010BD704710B5044662
:100DE00051B104290DD0082910D094F8410094F88D
:100DF0004520012811D10EE094F83E0094F84220DD
:100E0000F7E794F83F0094F84320F2E794F84000A5
:100E100094F84420EDE7012A01D0012010BD022002
:100E200019B3042926D0082929D084F8410084F870
:100E300045000122206800F05BF9134920688842D0
:100E400008D0B0F1804F05D01049884202D0104937
:100E5000884204D1816801F00701062903D00168A6
:100E600041F001010160002010BD84F83E0084F8CB
:100E70004200DEE784F83F0084F84300D9E784F8B5
:100E8000400084F84400D4E7002C014000040040F6
:100E90000008004030B504460D460068002200F00E
:100EA00027F92068016A41F21112114207D1016A43
:100EB0009210114203D1016821F001010160012269
:100EC00045B1042D09D0082D0AD004F8412F227114
:100ED000002030BD04F83E2FF9E704F83F2FF6E775
:100EE00004F8402FF3E7FEE7F0B585B000241B4877
:100EF0000094019402940394816941F0100181618E
:100F0000816901F010010491816941F0040181615E
:100F10008069012200F00400114E55030490294617
:100F20003046FFF7A9FA0F4F002201213846FFF79C
:100F3000A3FA1120CDE90050022569463046CDE9DB
:100F40000245FFF7A9F9012001AA009082E83100CB
:100F500069463846FFF7A0F905B0F0BD0010024021
:100F6000001001400008014010B58AB00024294853
:100F700004940594069407940894099400940194A9
:100F800002942349039401600721C0E901144FF63C
:100F9000FF71C0E903148021C0E90541FFF796FD08
:100FA00008B1FFF776F94FF48050049004A919486E
:100FB000FFF7E6FD08B1FFF76CF91648FFF7E0FE12
:100FC00008B1FFF766F9089408A912480994FFF7D9
:100FD00049FD08B1FFF75DF90120CDE90040029419
:100FE000002269460B480394FFF738FE08B1FFF76B
:100FF00050F9022000900190042269460548FFF74D
:101000002DFE002801D0FFF744F90AB010BD000002
:10101000002C014010000020FEE7FEE770477047FB
:10102000FFF736BA10B590B028216846FFF7CCF824
:1010300014210AA8FFF7C8F80220009001200490AC
:1010400010200024059007946846FFF767FB08B15D
:1010500072B6FEE70F20CDE90A040C940D9400212E
:101060000AA80E94FFF79EFA002801D072B6FEE798
:1010700010B010BD70470000F0B50268194B1A4C53
:101080001A4D4FF08047984205D0B84203D0A04295
:1010900001D0A84203D122F070064A683243984238
:1010A00005D0B84203D0A04201D0A84203D122F417
:1010B0004074CA6822434C6922F0800222430260D5
:1010C0008A68C2620A688262984201D10969016332
:1010D000012141610169C90703D0016921F00101C2
:1010E0000161F0BD002C01400004004000080040F8
:1010F00010B501F01F030121046A99408C4304627A
:10110000016A9A401143016210BD10B5846842EA39
:10111000032224F47F440A432243826010BD826884
:1011200022F070020A4342F007018160704710B557
:10113000036A046A24F001040462846924F0F00460
:1011400044EA021423F00A020A438461026210BDD9
:1011500070B5056A046A24F00104046284690F4EC4
:10116000B04208D0B0F1804F05D00D4EB04202D051
:101170000C4EB04203D124F00304144301E044F0C8
:1011800001041A0724F0F00444EA126225F00A036D
:1011900001F00A0119438261016270BD002C014017
:1011A000000400400008004010B5036A046A24F0FF
:1011B00010040462846923F0A00324F4704444EA18
:1011C000023243EA01118261016210BD30B5046A46
:1011D000056A25F010050562856925F4407545EA24
:1011E000022222F470454FF6FF7202EA033224F025
:1011F000A0032A43A02404EA011119438261016279
:1012000030BDFEE70907090E002804DB00F1E020ED
:1012100080F80014704700F00F0000F1E02080F823
:10122000141D7047FFF73CF9FFF7FCFEFFF75CFE6B
:10123000FFF79AFEDFF8C880324C00276FF00209F2
:101240006FF0040A4FF4005B206847622168C1F820
:1012500010902168C1F810A000212A48FFF7BEFDB8
:1012600004212848FFF7BAFD0122114645464046B1
:10127000FFF702F90220401C0A28FCD300220121BA
:101280002846FFF7F9F80026FFF7FCF800F13205D1
:101290000AE0216808690969C0F34000C1F38001D0
:1012A000084201D0012603E0FFF7ECF8A842F0D392
:1012B00000211448FFF7EEFD04211248FFF7EAFD74
:1012C000002EC1D02168486B896B80B289B2081AA0
:1012D00000F028F80C4900F03DF80C4900F03AF80D
:1012E0004FF0FF3100F034F90949884201DA002259
:1012F00000E0012259460748FFF7BEF8A4E70000C6
:101300000008014010000020BD3786350000AA43C8
:10131000CDCC4C3E00100140014800F0E7B800BFC2
:101320000000C07F10F0004148BF4042B0FA80F397
:1013300010FA03F2C3F19D030BD051EAC35101EB44
:101340001220530638BF704700F1010008BF20F09B
:10135000010070474FF47F0C1CEAD0121EBF1CEA3C
:10136000D11392EA0C0F93EA0C0F00F0478090EA39
:10137000010F48BF42F480724FF0004C4CEA00204D
:101380004CEA012102EB0302A0FB0113A2F50002CB
:10139000002918BF43F001035B0028BF4FEA330365
:1013A00042EB22425FEA132C4CEBC2502EBFBCEB47
:1013B000436FB2F57C0F70474FEA036CBCF1004FEE
:1013C00008BF20F00100B2F57C0F38BF70470BD585
:1013D00082F0FF0212F5803FC8BF704700F1C040A5
:1013E000D8BF00F00040704700F5000C5FEA4C0CDD
:1013F00048BF7047B0F1C04000F073B890EA010FE9
:101400000CEAD11348BF42F48072624538BF63458D
:1014100004D280EA010000F00040704710B500F0EF
:101420001AF800BF8900013E00F007B800F009B8C3
:101430005FEA410C5FEA1C6C08D080EA010000F012
:1014400050B85FEA400C5FEA1C6CF6D14FF00040E8
:10145000A0F5800070470EF1020E2EF0030E5EF82C
:10146000044B244204D44FEA4102B2F17F4F11D819
:101470004FEA4003B3F17F4F0CD80ED14FEAD07C36
:10148000B2F17F4F0CEB4C0C0CF1020C08BF4CEB93
:10149000D17C04E04FF0080C01E04FEAD17C0CEB6A
:1014A0004C0324FA03F404F00704B4F1040C06D24C
:1014B0000EEB840CBDE810404CF0010C6047DFE8F7
:1014C0000CF0070802024FF00040A0F5800010BDAC
:1014D0000846420018BFD2F1807288BF00F0004079
:1014E00010BDFF2141EAD050C00570470CF00F033A
:1014F000092B08BF082000F051800A2B0BD0082BC5
:1015000018BF704708BF1CF0400F0AD04FF0000012
:101510004FF0000170471CF0400F18BF4FF0004023
:1015200070471CF0100F08D020F0704300F07F428D
:1015300042EAD3014FEA4370704700F0604021F067
:101540007F4242EA000201F07F4040EA7270704739
:101550004FF0FF0212EAD0521CBF92F0FF038B4201
:10156000C2BFD14200EBC1507047002A0AD0002B05
:101570000BD0002900F00040A4BF40F0FE4040F432
:101580000000704700F00040704743024FF00B0C22
:1015900018BF4CF0806C7FF4BFAE70471CF4801F06
:1015A00011D01CF4E02F03D06FEACC314900704712
:1015B0004FF04050EFF3008222F0704242EA000206
:1015C00082F3008870474FF0000070470102020369
:1015D0000405060708090A0B0C0D0E0F1010000079
:1015E00000000000000001020304060708090000D3
:1015F000101600080000002010000000280100085C
:101600002016000810000020A80600004401000871
:1016100001000000100000000000000000127A002D
:04000005080000ED02
:00000001FF
