:020000040800F2
:1000000030070020A1010008FF250008ED240008AA
:10001000FD25000855130008CF2800080000000047
:10002000000000000000000000000000032600089F
:1000300057130008000000000126000805260008EC
:10004000BB010008BB010008BB010008BB010008A0
:10005000BB010008BB010008BB010008BB01000890
:10006000BB010008BB010008BB010008BB01000880
:10007000BB010008BB010008BB010008BB01000870
:10008000BB010008BB010008BB010008BB01000860
:10009000BB010008BB010008BB010008BB01000850
:1000A000BB010008BB010008BB010008BB01000840
:1000B000BB010008BB010008BB010008BB01000830
:1000C000BB010008BB010008BB010008BB01000820
:1000D000BB010008BB010008BB010008BB01000810
:1000E000BB010008BB010008BB01000800F002F8DA
:1000F00000F047F80AA090E8000C82448344AAF17B
:100100000107DA4501D100F03CF8AFF2090EBAE878
:100110000F0013F0010F18BFFB1A43F0010318473B
:100120003C2D00005C2D0000103A24BF78C878C137
:10013000FAD8520724BF30C830C144BF04680C60ED
:10014000704700000023002400250026103A28BF35
:1001500078C1FBD8520728BF30C148BF0B60704739
:10016000662902F01186002070471FB500F04AFB97
:1001700004000020002102F01DFCE0601FBD10B54E
:1001800010BD00F03FFC1146FFF7EFFF02F0CCFB83
:1001900000F05DFC03B4FFF7F2FF03BC00F0A0FC2D
:1001A0000948804709480047FEE7FEE7FEE7FEE70B
:1001B000FEE7FEE7FEE7FEE7FEE7FEE70448054947
:1001C000054A064B7047000071260008ED00000844
:1001D00030010020300700203003002030030020D1
:1001E0000FB41CB5074B06AA7B44694600900598DE
:1001F00000F0EFFA0020694600F0FEFA1CBC5DF842
:1002000014FB00000D0600002DE9F0474FF0000A36
:1002100089460446C0F820A02046E16888470028A7
:1002200076D0252806D0D4E901219047206A401CC9
:100230002062F1E7E168204600258847C4F81CA049
:1002400006460027C4F818A02A2E09D0304602F02E
:1002500063FB38B304EB8708303EC8F8186019E038
:1002600059F8041B204604EB87029161E168884736
:10027000012F064618D1E069002820DA25F0200574
:100280001DE0D8F8180000EB800006EB4000303885
:10029000C8F818002046E1688847064602F03CFB93
:1002A0000028EED1012F0AD02E2E08D12046E16879
:1002B00088477F1C0646022F45F02005C4DBA06955
:1002C000002803DA404245F00105A061E80701D0AB
:1002D00025F01005B6B1A6F14100192802D8203644
:1002E00045F400654A463146204625604D46FFF7F5
:1002F00037FF58B1012806D0ED1D25F0070000F1A9
:10030000080989E704E005F1040985E730468AE732
:10031000206ABDE8F08710B5431C02E010F8011B0D
:1003200071B18107FAD14FF0013202C88C1A8C43A7
:1003300014EAC211F9D0C01A0A0603D0C01E10BDBB
:10034000C01A10BD0A0401D0801E10BD0902FCD0E5
:10035000401E10BD4FF0000200B51346944696466D
:10036000203922BFA0E80C50A0E80C50B1F12001C8
:10037000BFF4F7AF090728BFA0E80C5048BF0CC076
:100380005DF804EB890028BF40F8042B08BF7047D4
:1003900048BF20F8022B11F0804F18BF00F8012B46
:1003A000704770477047704770472DE9FF4F0C4604
:1003B0001E464FF0FF378BB0D2E90001DDF86080B8
:1003C0000A908A46C1F30A5505B93D460021084600
:1003D0004FF00000BAF1000F00F4400005DA00EB26
:1003E00080004FF4400101EA50004FEA9059B9F102
:1003F000010F00DDB9460A9850EA4A000ED044F6D3
:100400001050A5F2FF3545432F14B8F1000F1ED050
:100410007542291E1EDDC9F100021CE0B8F1010F72
:100420004FF0000001D0302103E0F24305E02154F9
:10043000401CB042FBDB30460022002121540B99C6
:10044000C1F80880C1E900200FB0BDE8F08FBD1BE6
:100450006D1CDEE74A4600DA694206A800F05CFA45
:1004600006AB93E8070003AB83E8070050460A9900
:1004700000F03DFB8DE80700A0F500501F3800900C
:100480000398002D0ADD42F21F014A46084400236A
:1004900003A90390684600F0A6FD09E0A0F500500E
:1004A0004A461F38002303A90390684600F0B0FDB8
:1004B0008DE807000004000C03D04FF0FF30410826
:1004C00000E01046B8F1000F03D00022009215465C
:1004D0001EE0751E05D400F099F9303262556D1E8C
:1004E000F9D5B3460122084302D000227F1C04E064
:1004F0002078302801D100227F1E002A099784D05D
:100500001DE0112D07DA00F081F9303262556D1CC3
:1005100050EA0102F5D1084302D00098C8B10EE0BC
:100520000021681E05E0235C625C63542254401E77
:10053000491C8142F7DBAB46A81B401E09900020F6
:1005400004F80B000B98099AC0F80880C0E9002B4A
:100550007AE711264FF0000857E72DE9F04F88465B
:100560000446D21D22F0070191B0D1E90001CDE986
:100570000A0102F0ADF902460B98C00F01D02D2000
:1005800007E02068810701D52B2002E0202101EA45
:10059000C000032A099001D0072A05DB0346414623
:1005A000204600F079F90BE12078800601D5E0695A
:1005B00000E00620B8F1650F814606D0B8F1660F5D
:1005C00018D0B8F1670F70D131E00020B9F1110FE8
:1005D000009001DB112301E009F101030AAA01A93E
:1005E0000CA8FFF7E2FEDDE90C70002609F1010519
:1005F000834647E001204B4600904FF000470AAA8F
:1006000001A90CA8FFF7D1FEDDE90DB00C995D46FC
:10061000002610B909F101000D18B9EB050003D44B
:10062000C0F1FF3609F10105A5EB09002BE0B9F196
:10063000010F01DA4FF001090020B9F1110F00900C
:10064000484601DD112300E003460AAA01A90CA8CF
:10065000FFF7ABFEDDE90C704D460026834620789F
:1006600000070AD4AB4500DA5D4601A8012D04DD80
:10067000411911F8011C302907D04F4502DA17F152
:10068000040F04DA012082460FE06D1EEEE7002F12
:1006900002DCED1B3E4403E0781CA84200DD7D1C1B
:1006A000B81B00F1010A4FF000472078000703D47F
:1006B000AA4501DB4FF0FF3A0021B7F1004F0DF1E1
:1006C00043088DF8431024D002202B23002F01DA99
:1006D0007F422D230A21021EA0F1010000DC5FB140
:1006E00097FBF1FC97FBF1F201FB1C7C17460CF128
:1006F000300C08F801CDEEE7A8F101000370218865
:10070000090501D5452100E06521A0F1010800F8A7
:10071000011C09980FA9A1EB0807FF1D00B10120DA
:10072000411901EBEA70A1693844081A401EA06122
:100730002078C00602D42046AFF30080099828B183
:10074000D4E901219047206A401C20622078C0062D
:1007500022D52046AFF300801EE0002E04DBB34517
:1007600002DD01A8805D00E03020D4E9012190473E
:10077000206A401C2062761CAAF101005FEA000A90
:100780000AD100F03FF8C0680168405CD4E901215B
:100790009047206A401C2062281EA5F10105DCDC80
:1007A00007E0D4E9012118F8010B9047206A401CAA
:1007B0002062381EA7F10107F3DC2046AFF300806A
:1007C000032011B041E6000001694A1C026108786B
:1007D000704700B58FB0CDE9013100210591054981
:1007E0007944CDE9031011466846FFF70DFD0FB0BF
:1007F00000BD0000E5FFFFFF0A6802F8010B0A6078
:100800007047000000487047F000002030B5B0F19C
:100810000A024FEA900E71F100034EEA817EB0EBBE
:100820000E0061EB91014FEA101E4EEA017E10EBC3
:100830000E0041EB11114FEA102E4EEA016E10EB43
:100840000E0041EB11214FEA104E4EEA014E10EB23
:100850000E0041EB1141401841F100014FEAD00078
:1008600040EA41704FEAD10110EB80054FEA810464
:1008700044EA907444EB01046D1944EB0404521BE8
:10088000A3414FF0000348BF0A3200D530BD401CE1
:1008900041F1000130BD00002DE9F0411F46044642
:1008A00003260168072A01F4006004DB08B116A5DD
:1008B00005E016A503E008B115A500E015A521F097
:1008C00010002060A069C01EA0610FB1401EA06191
:1008D0002046AFF300804FB1D4E90121384690475C
:1008E000206A401C2062C01C206206E0206AFAE7F1
:1008F000D4E9012115F8010B9047761EF8D2204665
:10090000AFF30080BDE8F0814E414E006E616E0095
:10091000494E4600696E66002DE9F047814616464D
:100920008AB0354878440DC88DE80D0032487844C7
:10093000801C03AC0DC884E80D0041F69B300844D0
:10094000372190FBF1F290FBF1F5A5F1800501FB59
:1009500012041B3C02D56442012000E00020DFF8B5
:1009600098A080460027FA44AAF1BE0A0EE0E007EC
:100970000AD03246684607EB470101230AEB8101A2
:1009800000F046FB8DE8070064107F1C002CEED1C0
:10099000194F7F44AE3F19E0E80715D007EB04106C
:1009A0000DF1180A90E80E008AE80E00C068F042C7
:1009B00001D1981908903246012306A903A800F036
:1009C00027FB03AB83E807006D10641C002DE3D107
:1009D0004FF0010332466946B8F1000F03A802D078
:1009E00000F001FB01E000F013FBC9E90001C9F8C8
:1009F00008200AB0BDE8F0871C25000000487047B9
:100A0000D00000207546FFF7F9FFAE4605006946A5
:100A1000534620F00700854618B020B5FFF7CEFBFF
:100A2000BDE820404FF000064FF000074FF00008EF
:100A30004FF0000B21F00701AC46ACE8C009ACE870
:100A4000C009ACE8C009ACE8C0098D46704710B5D4
:100A50000446AFF300802046BDE81040FFF79ABB84
:100A60004FF0013C50F8042B51F8043B9A4221D13D
:100A7000A2EB0C03934313EACC1317D150F8042BC9
:100A800051F8043B9A4215D1A2EB0C03934313EAAD
:100A9000CC130BD150F8042B51F8043B9A4209D1E6
:100AA000A2EB0C03934313EACC13DBD04FF000000E
:100AB000704700BFD01A01BAB1FA81F101F01801F4
:100AC00022FA01F0CB40C1F12001DBB2C0B2C01A62
:100AD0002CFA01F3D11A914311EAC311E6D1704700
:100AE00001491820ABBEFEE72600020070475FEA0E
:100AF000400C08BF91F0000F4FEA8C234FEAC1224F
:100B000043EA51514FEA1C5018BF00F5F0404FEA3C
:100B1000300018BF41F000415FEA6C5C00F02980B2
:100B2000BCF1FF3F08BF40F080407047130C06BF88
:100B300012044FF0100C4FF0000C130E04BF120201
:100B40000CF1080C130F04BF12010CF1040C930FED
:100B500004BF92000CF1020CD30F04BF52000CF141
:100B6000010C11464FF00002A0F11F00A0EB0C0099
:100B7000704711F0004F08BF704731F000413FF45B
:100B8000D5AF0B0C06BF09044FF0100C4FF0000C52
:100B90000B0E04BF09020CF1080C0B0F04BF090176
:100BA0000CF1040C8B0F04BF89000CF1020CCB0F6D
:100BB00004BF49000CF1010CCCF12003A0EB0C00A8
:100BC00022FA03F302FA0CF241EA030100F10100F8
:100BD000704720F07F4C80EA030023F07F47ACEBA6
:100BE000070303F57C5300F0004003F1FF032DE9F8
:100BF00080494FEA154B09B44FEA144325EA0B4EDE
:100C000024EA03480FF2042606EB132749083E782E
:100C10005FEA320203FB0667C7F5000707FB06F62B
:100C20004FEA54374FEAD64606F1020607FB066C38
:100C3000CCF1005C4FEA1C472CEA074C07FB06F49A
:100C40000CFB06F504EB15464FEA961634BF002060
:100C50004FF000404FEAD13706FB07FC4FEA1C4C2F
:100C60000CFB0BF7D21B03FB0CF761EB07010CFB32
:100C70000EF7B0EB074072EB17420CFB08F734BFDE
:100C8000A2EB0742B2EB074261EB17414FEA0C447B
:100C90004FEA910706FB07FC4FEA1C4C0CFB0BF7D5
:100CA000B0EBC74072EB573203FB0CF734BFA2EB3B
:100CB000C742B2EBC74261EB57310CFB0EF7B0EB0A
:100CC000C70072EB57720CFB08F734BFA2EBC702E8
:100CD000B2EBC70261EB5771039F4FEA816141EAB2
:100CE000921104EBCC044FEAD1374FEA826206FB43
:100CF00007FC42EA90124FEA80604FEA1C4C0CFB62
:100D00000BF7D21B03FB0CF761EB07010CFB0EF793
:100D1000B0EB074072EB17420CFB08F734BFA2EBB5
:100D20000742B2EB074261EB17414FEA8C554FEA9D
:100D3000910704EB9C2406FB07FC4FEA1C4C0CFBC0
:100D40000BF7B0EBC74072EB573203FB0CF734BF25
:100D5000A2EBC742B2EBC74261EB57310CFB0EF777
:100D6000B0EBC70072EB57720CFB08F734BFA2EB75
:100D7000C702B2EBC70261EB577115EB4C254FEA86
:100D8000816141EA92114FEA82624FEAD13742EA29
:100D9000901206FB07FC44F100044FEA80604FEA22
:100DA0001C4C0CFB0BF7D21B03FB0CF761EB070190
:100DB0000CFB0EF7B0EB074072EB17420CFB08F789
:100DC00034BFA2EB0742B2EB074261EB174115EBD0
:100DD0001C154FEA813141EA92414FEA823242EAE0
:100DE00090424FEA80304FEA0C7644F1000448EA22
:100DF00003434EEA0B484FF0000EB2EB080C71EBC8
:100E0000030724BF624639464EEB0E0E4FF0000B2F
:100E10000018524149414BEB0B0BB2EB080C71EB44
:100E200003077BF1000B24BF624639464EEB0E0EE2
:100E30004FF0000B0018524149414BEB0B0BB2EB4A
:100E4000080C71EB03077BF1000B24BF62463946A7
:100E50004EEB0E0E51EA020718BF46F0010616EBE4
:100E60000E7655F1000254F1000103D5BDE8890169
:100E7000BDE80088BDE88901BDE80048B6195241C7
:100E800041EB0101A3F10103704780807F7E7D7CEF
:100E90007B7A7978777676757473727171706F6E0C
:100EA0006E6D6C6C6B6A6A696868676666656464B7
:100EB000636362616160605F5F5E5E5D5D5C5C5B41
:100EC0005B5A5A59595858575756565555555454B0
:100ED000535352525251515050504F4F4F4E4E4D0E
:100EE0004D4D4C4C4C4B4B4B4A4A4A49494948485A
:100EF000484747474746464645454544444444439A
:100F000043434342424242414141002B9C4630D43C
:100F100077002BD01CB54FEA370703B44FF0100011
:100F20004FF01001BAF1000F06D0BCF1000FDCBF8A
:100F300040F0080040F008014FF000000FBCBDE891
:100F400010400BF1010BBBF1010F08BF5FEA17075F
:100F500022BF12F1010211F101014FF0004143F1F2
:100F6000000300F0004043EA00007047F9D357083F
:100F7000D0E746EA064613F1400F4FEA16461FDD5A
:100F800013F1200FDFBF16430A46002120335B42D6
:100F9000BED0C3F1200746EA064602FA07F74FEA39
:100FA000164646EA0706C3F1200722FA03F201FAC1
:100FB00007F721FA03F14FF0000342EA0702A7E71F
:100FC00046EA020646EA06464FEA164646EA0106A1
:100FD000BCBF46EA0646360C4FF000034FF0000255
:100FE0004FF0000194E72DE9804C9A46934670B487
:100FF00091E8380007C831EA400C48BF34EA430C96
:1010000003D5FFF7E6FDFFF780FFF0BCBDE8008CDD
:101010002DE9804C9A46934670B491E8380007C891
:1010200010F0804F08BF13F0804F03D100F005F897
:10103000FFF76BFFF0BCBDE8008C20F07F4780EA33
:10104000030023F07F4C07EB0C03A3F57C5300F067
:101050000040A3F1FE0392F0000F00F0B38095F082
:10106000000F00F077802DE901494FEA11404FEA67
:10107000144621EA004800FB06FC24EA064708FB68
:1010800006F607FB08F800FB07F718EB06484CEBE1
:10109000164C4FEA124B18EB07484FEA15464CEB3B
:1010A000174022EA0B4E0BFB06FC25EA06470EFB17
:1010B00006F607FB0EFE0BFB07F71EEB064E4CEB8E
:1010C000164C4FF000061EEB074E4CEB174B18EB7F
:1010D0000B0840F1000018EB0E0B58EB000840F134
:1010E00000008F1A4FF000013CBFC943661B14BFBC
:1010F000B5EB040C00213CBFC943F61B4FEA174473
:101100004EEA8E0E27EA04454FEA1C4704FB0762AD
:101110002CEA074C05FB07F70CFB05F604FB0CFC5F
:1011200016EB074642EB174216EB0C4642EB1C420D
:101130001BEB060658EB0202414146EA9E0601D52A
:10114000BDE80189B619524141EB0101A3F1010348
:10115000BDE801894FEA14454FEA114724EA0546E4
:1011600021EA074C05FB07F406FB07F70CFB06F129
:1011700005FB0CFC11EB074144EB17444FEA124707
:1011800011EB0C4144EB1C4422EA074C05FB07F22F
:1011900006FB07F70CFB06F605FB0CFC16EB0746F7
:1011A00042EB174216EB0C4642EB1C456A1854F111
:1011B000000148BF7047B619524141EB0101A3F14C
:1011C0000103704795F0000F37D04FEA11424FEA04
:1011D000144721EA024624EA074C02FB07F106FB0A
:1011E00007F70CFB06F402FB0CFC14EB074441EB85
:1011F00017414FEA154714EB0C4441EB1C4125EA1B
:10120000074C02FB07F506FB07F70CFB06F602FB93
:101210000CFC16EB074645EB174516EB0C4645EB69
:101220001C42121951F1000148BF7047B6195241D2
:1012300041EB0101A3F1010370474FEA14454FEA66
:10124000114724EA054621EA074C05FB07F106FB96
:1012500007F70CFB06F24FF0000605FB0CFC12EB47
:10126000074241EB174112EB0C4251EB1C4148BFC6
:101270007047921841EB0101A3F101037047000090
:1012800070B5044600688168C943C90717D18168F1
:1012900021F00101816000F08BFB05460AE000BFF0
:1012A00000F086FB401B022804D920688068C043F8
:1012B000C00706D020688068C043C007F0D0002077
:1012C00070BDA06A40F01000A062E06A40F001002A
:1012D000E062012070BD0000F8B5002604460096CB
:1012E00000688168C943C9072DD0816841F00101B8
:1012F0008160164816490068B0FBF1F000E0401E1E
:1013000000900028FBD100F053FB054616E000BF1B
:1013100000F04EFB401B022810D920688068C043B3
:10132000C0070BD0A06A40F01000A062E06A40F055
:101330000100E06284F824600120F8BD2068806824
:10134000C043C007E4D10020F8BD00000C0000201D
:1013500040420F00FEE7704772B6FEE7F8B5002482
:10136000009490F824202546012A12D0012280F80A
:1013700024204A681F23072A0DD20668776B521E65
:1013800002EB820293409F430B6893401F437763B5
:1013900019E00220F8BD06680D2A0AD2376BD21F69
:1013A00002EB820293409F430B6893401F433763D5
:1013B00009E0F76A0D3A02EB820293409F430B6803
:1013C00093401F43F7620A68072306680A2A0AD374
:1013D000F7680A3A02EB420293409F438B689340BE
:1013E0001F43F76008E0376902EB420293409F43D6
:1013F0008B6893401F4337610A68102A01D0112A75
:1014000020D1124B02689A4217D193681B0219D45B
:10141000936843F4000393600968102912D10C49C2
:101420000C4A0968B1FBF2F101EB8101490000E0CF
:10143000491E00910029FBD104E0816A41F020019E
:101440008162012480F824502046F8BD0024014028
:101450000C00002040420F000068C06C7047000084
:101460002DE9F0414FF0000704003D467ED0A06A10
:10147000002628B9E66284F82460204600F07EF851
:101480002046FFF7FDFEA16AC90600D420B1A06A7C
:1014900040F01000A06269E0A16A21F4885141F097
:1014A0000201A1626268E169237B0A4347EA4301C2
:1014B0000A43A1684FF48077B94209D0012907D0C7
:1014C0005FF0000194F814C0BCF1010F02D00AE0F3
:1014D0003946F7E7F3B1A36A43F02003A362E36A56
:1014E00043F00103E3622368D3F804C02CF4694C91
:1014F0004CEA010CC3F804C021688B68DFF870C0A7
:1015000003EA0C0313438B60A168B9420BD0012995
:1015100009D00CE0DFF85CC0A3690CEB43330B434C
:1015200043F40061DFE7218A0D05A5F580152168E8
:10153000CB6A23F470032B43CB62216889680E4B7E
:101540001940914208D1E662A16A21F0020141F0FE
:101550000101A162BDE8F081A06A20F0020040F024
:101560001000A062E06A40F00100E0620120F1E7B3
:10157000FDF7E1FF00E0FFFFFE0E1FFF00B585B0A5
:101580000021009101910291039100680E49884267
:1015900018D10E48816941F400718161816901F4BB
:1015A00000710491816941F004018161806969469B
:1015B00000F00400049001200090032001900448F2
:1015C00000F006F905B000BD002401400010024003
:1015D000000801402DE9F84300270D460446009716
:1015E00000F0E6F9804620688168C90508D5A06A40
:1015F00040F02000A06284F824700120BDE8F88348
:101600004168C90503D4C06A10F4700F2AD00220C3
:1016100000F05EFA3B490968B1FBF0F62068036907
:1016200039490B424FEA61014FEAA1121FD1C36849
:101630004FEA611C13EA0C0F19D103690B4225D143
:10164000C068104222D1142023E0681C0AD02DB1BA
:1016500000F0AEF9A0EB0800A84203D920680068AA
:10166000800725D5206800688007EED52DE0036946
:101670000B4202D1C168114206D0026923490A42D5
:1016800006D1C068084203D1542002E0292000E0BE
:10169000FC204643009816E0681C11D02DB100F0E4
:1016A00087F9A0EB0800A8420AD90098B04207D2F7
:1016B000A06A40F00400A06284F8247003209DE733
:1016C0000098401C0090B042E6D321686FF01200F1
:1016D0000860A06A40F40070A06220688068C0F3CF
:1016E000424007280CD1207B50B9A06A20F48070BA
:1016F000A062A06AC00403D4A06A40F00100A06206
:1017000000207BE70C000020244992244992240009
:1017100070B5044690F8240001280DD0012084F80B
:1017200024002046FFF7D8FD02004FF0000005D04E
:1017300084F82400104670BD022070BDA16A40F2FA
:101740000123994341F48071A1621F4D23681F4911
:10175000AB4218D10E6816F4702F14D0A66A46F466
:101760008016A6620E68760505D5A66A26F4005690
:1017700046F48056A662A66AF6040AD5E66A26F002
:101780000606E66206E0A66A26F48016A6625E6891
:10179000E9E7E06284F824006FF002001860206836
:1017A0008368C3F34243072B05D1A84208D10968D7
:1017B00011F4702F04D0816841F480118160B9E781
:1017C000816841F4A001F9E70028014004240140A8
:1017D0002DE9F84FDFF8B8910024A9F1040B234656
:1017E0000F2709F1040AABF1040EC9E00125A54059
:1017F0002A40AA427DD1674ED1F804C0ACEB06085E
:10180000B44532D014DCBCF1030F3AD009DCBCF192
:10181000000F2AD0BCF1010F1CD0BCF1020F31D156
:101820001DE0BCF1110F17D0BCF1120F2AD119E045
:10183000B8F5881F19D006DCB8F5803F15D0B8F58B
:10184000801F1FD111E0B8F5001F0ED0B8F5041F9E
:1018500018D10AE0CB6815E0CB681B1D12E0CB68FD
:1018600008330FE0CB680C330CE08B682BB1012BF5
:101870004FF0080303D0456104E0042302E0056152
:1018800000E00023FF2A01D8064601E000F104062B
:101890004FEA840501D9A5F12005D6F8008007FAA2
:1018A00005FC28EA0C0803FA05F548EA0508C6F81D
:1018B00000804D68ED0062D5374DAE6946F00106F7
:1018C000AE61AD6924F0030605F001050095334DC6
:1018D00006EB050CDCF80850A607360F07FA06F8E9
:1018E00025EA0805DFF8B880404503D14FF000082D
:1018F00017E044E0DFF8AC80404502D14FF001082A
:101900000FE0DFF8A480404502D14FF0020808E064
:10191000DFF89880404502D14FF0030801E04FF016
:10192000040808FA06F848EA0508CCF808804D686B
:10193000D9F80060ED024D4601D5164300E096430C
:101940002E604D68DAF80060AD02554601D51643A9
:1019500000E096432E604D68DBF80060AD035D4605
:1019600001D5164300E096432E604D68DEF8006016
:10197000ED03754601D5164300E096432E60641CC6
:101980000D682A46E5407FF431AFBDE8F88F0000CE
:101990000804014000001110001002400000014046
:1019A00000080140000C01400010014000140140FB
:1019B00001488068704700000000002002488168EC
:1019C000027811448160704700000020074810B57C
:1019D000016841F010010160032000F067F80F205A
:1019E00000F006F800F024F8002010BD00200240AE
:1019F00070B50D4D04464FF47A712878B1FBF0F0C4
:101A00000A490968B1FBF0F000F096FB48B9102CC8
:101A100007D200222146501E00F028F800206C60FA
:101A200070BD012070BD0000000000200C000020EF
:101A30000C4808B5816941F001018161816901F0BB
:101A400001010091C16941F08051C161C06900F09C
:101A5000805000900448416821F0E06141F000713D
:101A6000416008BD0010024000000140F0B40E4B80
:101A70001B680C46C3F30223C3F10705042D00D9EC
:101A80000425191D072901D2002300E0DB1E0126D1
:101A900006FA05F1491E214099409E40761E1640E7
:101AA0003143F0BC00F028BF0CED00E0064900F027
:101AB000070208684FF6FF03184040EA0220034A75
:101AC00010430860704700000CED00E00000FA05CC
:101AD00010B501460020234C012922D0022939D01B
:101AE00010291DD161682268D20119D51E48C1F3A1
:101AF0008342C903805C0AD561681B4AC1F3404137
:101B0000921E515C194AB2FBF1F1484301E01849B9
:101B100048436168490203D440000321B0FBF1F05F
:101B200010BD226AC2F30121012903D1920701D518
:101B3000C80310BD022905D1626A920702D549F691
:101B4000404010BD0329FCD121688903F9D54FF22B
:101B5000244010BD00F02AF96168C1F38131491CAD
:101B60004900DBE700100240A02D000800127A00B7
:101B700000093D002DE9F84305460078354CC007C3
:101B800054D0E0690026C00008D4E06940F08050DD
:101B9000E061E069012600F0805000902E48016865
:101BA000C90512D40168804641F480710160FFF7D5
:101BB000FFFE074605E000BFFFF7FAFEC01B6428E2
:101BC00023D8D8F80000C005F6D5206A10F440707C
:101BD00021D0A98801F4407181421CD0206A1F499C
:101BE000012220F440700A6000220A602062C007CF
:101BF00011D0FFF7DDFE074641F2883808E000BF4C
:101C0000FFF7D6FEC11B414502D90320BDE8F8838A
:101C1000206A8007F4D5206A696820F44070084380
:101C200020621EB1E06920F08050E06128788007D2
:101C300005D56068A96820F44040084360602878B2
:101C4000C00605D56068E96820F48000084360603C
:101C50000020DBE7001002400070004040044242D8
:101C60002DE9F0470F46050061D0434E306800F083
:101C70000700B84209D2306820F0070038433060CE
:101C8000306800F00700B84251D128683B4C81070A
:101C900012D5400703D5606840F4E06060602878A2
:101CA000000703D5606840F4605060606068A96810
:101CB00020F0F000084360602878C00728D06868EA
:101CC000012810D02168022810D0890700292EDAB7
:101CD000616821F0030101436160FFF769FE8046FE
:101CE00041F288390DE021688903EFE78901EDE7CA
:101CF000FFF75EFEA0EB0801494502D90320BDE8CD
:101D0000F0876068696800F00C00B0EB810FEFD1DC
:101D1000306800F00700B8420BD9306820F00700A7
:101D200038433060306800F00700B84201D001202D
:101D3000E5E72878400705D56068E96820F4E060A9
:101D4000084360602878000706D56068296920F498
:101D5000605040EAC100606000F038F86168084AED
:101D6000C1F30311515CC840064908600648006889
:101D7000FFF73EFE0020C2E70020024000100240B4
:101D8000B02D00080C000020040000200448054984
:101D900000684968044AC1F30221515CC840704799
:101DA0000C00002000100240C02D00080448054926
:101DB00000684968044AC1F3C221515CC8407047B9
:101DC0000C00002000100240C02D00080E4A51688F
:101DD0000E4801F00C03042B11D0082B0FD10C4836
:101DE000C1F38343C903C05C0AD55168084AC1F3F3
:101DF0004041921E515C054A5043B0FBF1F07047E0
:101E000004494843704700000010024000127A0065
:101E10008E2D000800093D002DE9F84F040070D018
:101E20002078C04DC00749D06868C0F38100012800
:101E300007D06868C0F38100022809D16868C00330
:101E400006D52868800339D560680028E7D035E0DA
:101E50006068B0F5803F0BD010B1B0F5A02F11D065
:101E6000286820F480302860286820F4802002E070
:101E7000286840F480302860606890B1FFF798FDD2
:101E800006460AE0286840F480202860F0E700BF9A
:101E9000FFF78EFD801B642873D828688003F7D570
:101EA0000CE0FFF785FD064605E000BFFFF780FD6B
:101EB000801B6428F0D828688003F7D420789A4ED5
:101EC00080074FF001094FF0000839D5686810F01D
:101ED0000C0F07D06868C0F38100022809D1686838
:101EE000C00306D42868800714D52069012808D1CA
:101EF00010E02069B0B1C6F80090FFF759FD074621
:101F000005E00AE1FFF754FDC01B0228C4D8286889
:101F10008007F7D52868616920F0F80040EAC10021
:101F200028600DE0C6F80080FFF742FD074604E098
:101F3000FFF73EFDC01B022823D828688007F7D48E
:101F4000207800072CD57948A169D9B1C0F8009054
:101F5000FFF72EFD074604E0FFF72AFDC01B02280D
:101F60000FD8686A8007F7D571484FF4FA510068B6
:101F7000B0FBF1F0009000BF0098411E0091FAD232
:101F80000EE080E0C0F80080FFF712FD074604E095
:101F9000FFF70EFDC01B022875D8686A8007F7D4CA
:101FA0002078400760D5E8690027C00008D4E869B8
:101FB00040F08050E861E869012700F0805000900F
:101FC0005C480168C90513D40168834641F48071F7
:101FD0000160FFF7EDFC824606E000BFFFF7E8FC7A
:101FE000A0EB0A0064284ED8DBF80000C005F5D548
:101FF000E06801280AD008B1052813D0286A20F02B
:1020000001002862286A20F0040002E0286A40F0FB
:1020100001002862E06841F2883B98B1FFF7C8FCF4
:1020200082460BE0286A40F004002862EEE700BF19
:10203000FFF7BEFCA0EB0A0159455AD8286A800771
:10204000F6D50CE0FFF7B4FC824605E0FFF7B0FCE4
:10205000A0EB0A0159454CD8286A8007F6D41FB175
:10206000E86920F08050E861E06988B36968C1F3ED
:102070008101022944D00228C6F8608004D0FFF70D
:1020800097FC044638E034E0FFF792FC074604E092
:10209000FFF78EFCC01B02282BD828688001F7D4DC
:1020A000206AB0F5803F05D16868A16820F400304F
:1020B00008436860D4E908010843696821F4741191
:1020C00008436860C6F86090FFF772FC044606E0BB
:1020D00025E000BFFFF76CFC001B022809D8286828
:1020E0008001F7D51BE000BFFFF762FC001B022850
:1020F00002D90320BDE8F88F28688001F4D40EE0EF
:102100000128F7D06868226A00F48031914204D136
:10211000616A00F47010884201D00120EAE70020D3
:10212000E8E7000000100240000042428004424202
:102130000C0000200070004010B5401EB0F1807F00
:1021400001D3012010BD4FF0E02460610F21601722
:1021500000F0D2FB0020A06107202061002010BD0C
:1021600070B590F83C20012A26D0012480F83C402C
:10217000022280F83D2003685A689D6822F07006AC
:102180000A6832435A600D4B02689A4208D0B2F195
:10219000804F05D00A4B9A4202D00A4B9A4204D192
:1021A000496825F080031943916080F83D40002183
:1021B00080F83C10084670BD022070BD002C014024
:1021C000000400400008004010B5040003D094F85B
:1021D0003D0010B107E0012010BD002084F83C0054
:1021E000204600F01FF8022084F83D00211D2068E1
:1021F00000F040FA012084F8460084F83E0084F89C
:102200003F0084F8400084F8410084F8420084F8DC
:10221000430084F8440084F8450084F83D00002021
:1022200010BD000008B500680649884208D106487C
:10223000C16941F00201C161C06900F00200009073
:1022400008BD0000000400400010024090F83D105E
:10225000012901D001207047022180F83D1000685B
:102260000B49884208D0B0F1804F05D00949884217
:1022700002D00949884204D1816801F0070106298A
:1022800003D0016841F001010160002070470000A7
:10229000002C0140000400400008004070B50446D6
:1022A00090F83C000025012817D0012684F83C60F6
:1022B000022084F83D002068826822F0770222F430
:1022C0007F4282600868502838D00DDC20284FD02B
:1022D00005DC90B3102811D14AE0022070BD3028EF
:1022E00046D040280AD13BE060282FD070280DD07E
:1022F000B0F5805F03D0B0F5005F12D0012584F8FF
:102300003D60002084F83C00284670BDCB68D1E9D0
:102310000121206800F0EAF92068816841F0770126
:1023200009E0CB68D1E90121206800F0DFF92068DD
:10233000816841F480418160E1E719E0CA68496839
:10234000206800F0E5F95021206806E0CA68496875
:10235000206800F0EEF96021206800F0D1F9CEE7A6
:10236000CA684968206800F0D3F940212068F4E782
:10237000226801461046F0E770B5040004D094F8D6
:102380004100002510B106E0012070BD84F84050E6
:10239000204600F023F8242084F841002068C1681A
:1023A00021F40051C160204600F0FCF92068016969
:1023B00021F4904101612068416921F02A014161C5
:1023C0002068C16841F40051C1606564202084F830
:1023D000410084F842006563002070BD30B585B0CF
:1023E00000240094019402940394006814498842E4
:1023F00024D11448816941F480418161816901F4EB
:1024000080410491816941F00401816180690E4D30
:1024100000F0040004904FF400700090022001903E
:102420000320039069462846FFF7D2F92815CDE925
:102430000004694628460294FFF7CAF905B030BD8A
:102440000038014000100240000801402DE9F84327
:10245000044690F84100984616460D46202802D0C2
:102460000220BDE8F88385B17EB1002060642120A0
:1024700084F84100FFF79CFAA6848146E684A068B0
:102480002027B0F5805F02D003E00120E9E7206952
:1024900010B12E4600250EE000260CE080212046DB
:1024A00000F0DCF9A8B9C6B116F8010B2168486044
:1024B000E08C401EE084E08C4B464FF00002CDF8EB
:1024C00000800028EAD14FF04001204600F0C6F914
:1024D00040B184F841700320C3E735F8020BC0F324
:1024E0000800E3E784F841700020BAE7FEE7000047
:1024F0003EB5002410480094019402940D49846074
:10250000016004730475012505614FF400214460E6
:10251000C161FEF7A5FF08B1FEF71EFFCDE900453A
:10252000694605480295FEF719FF002801D0FEF71D
:1025300013FF3EBD0024014010000020054808B5EF
:10254000816941F004018161806900F0040000901C
:1025500008BD00000010024010B586B000241848E5
:102560000094019402940394049414490594016026
:102570000721C0E9011440F2E731C0E903148021CA
:102580008161FFF721FE08B1FEF7E6FE4FF48050AF
:10259000009069460A48FFF781FE08B1FEF7DCFEAD
:1025A0002020CDE9040404A90548FFF7D9FD00283F
:1025B00001D0FEF7D1FE06B010BD000000040040BF
:1025C000400000200C4810B50A4901604FF4E13189
:1025D0004160002181600C22C160C0E90412816168
:1025E000C161FFF7C9FE002803D0BDE81040FEF727
:1025F000B3BE10BD0038014088000020FEE7FEE7B2
:1026000070477047FFF7DAB930B593B028216846B4
:10261000FDF7A0FE14210AA8FDF79CFE002401206E
:102620000F940225049000951020119405901094A9
:10263000129407946846FFF7EFFB08B172B6FEE705
:102640000F20CDE90A040C940D9400210AA80E94E1
:10265000FFF706FB08B172B6FEE70FA80F951194BD
:10266000FFF788FA002801D072B6FEE713B030BD3C
:1026700070470000F0B50268194B1A4C1A4D4FF024
:102680008047984205D0B84203D0A04201D0A8426A
:1026900003D122F070064A683243984205D0B8420E
:1026A00003D0A04201D0A84203D122F44074CA68EA
:1026B00022434C6922F08002224302608A68C2628F
:1026C0000A688262984201D109690163012141616E
:1026D0000169C90703D0016921F001010161F0BD61
:1026E000002C0140000400400008004010B5846840
:1026F00042EA032224F47F440A432243826010BD4D
:10270000826822F070020A4342F00701816070473C
:1027100010B5036A046A24F001040462846924F099
:10272000F00444EA021423F00A020A4384610262BC
:1027300010BD10B5036A046A24F0100404628469B1
:1027400023F0A00324F4704444EA023243EA011166
:102750008261016210BD01680C3151E8002F22F442
:10276000907241E80023002BF5D10168143151E843
:10277000002F22F0010241E80023002BF5D1016B6C
:10278000012909D101680C3151E8002F22F0100213
:1027900041E80023002BF5D1202180F842100021D0
:1027A0000163704770B5044600680169E26821F46E
:1027B0004051114301612169A068084361690843E0
:1027C0002168CA6841F20C639A430243CA602068D8
:1027D0004169A26921F44071114341611E49206899
:1027E000884202D1FFF7E2FA01E0FFF7CFFA00EBEF
:1027F000C00101EB0012606864218000B2FBF0F3BD
:10280000B3FBF1F36FF018067343B2FBF0F5B2FBC4
:10281000F0F605EB8305322303EB0515B5FBF1F567
:10282000B6FBF1F605F0F00505EB0615B2FBF0F688
:10283000B2FBF0F0B0FBF1F06FF01802504306EB82
:10284000800003EB0010B0FBF1F0216800F00F00F6
:102850002844886070BD0000003801402DE9F8432D
:10286000984617460D460446089E24E0701C22D068
:10287000FFF79EF8A0EB0800B0421AD8CEB120684E
:10288000C168490717D5802D15D0402D13D0016898
:10289000C94309070FD4016800254068009020460D
:1028A000FFF759FF0820606484F840500120BDE81C
:1028B000F8830320FBE72068006835EA000004D0B5
:1028C0000020B842D2D00020F1E70120F9E7FEE76E
:1028D000490050EAC12018BF04204A0D18BF40F03B
:1028E000010040F2FF72B2EB515F08BF40F00200FE
:1028F000012808BF052070470907090E002804DBDE
:1029000000F1E02080F80014704700F00F0000F1A3
:10291000E02080F8141D704730380A2801D20120C9
:10292000704700207047000088B0FFF74FF8FFF7AE
:102930006BFEFFF703FEFFF7DBFDFFF743FEFFF73C
:102940000BFE1548FFF782FC1448FEF7E1FE144D1C
:10295000144E4FF0FF3421461048FEF73BFE0F485F
:10296000FEF77AFD00F030F9294600F041F93146D2
:1029700000F068F800F03AF802460B460AA16846F3
:10298000FDF72EFC6846FDF7C6FC82B22346694679
:102990000748FFF75BFDDEE7400000201000002045
:1029A0003333534000F07F45252E33660A00000084
:1029B0008800002010B500290AD00878002807D028
:1029C00005487844FEF74CF8002801D0002010BDDF
:1029D0000248784410BD0000BA040000B2040000B0
:1029E0000808A0F500114FEA3101704743004FEA93
:1029F000D30C4FEA3C0C43401FBF40070CF1605121
:102A000013F0FE4F70471CF0006F03D100200CF054
:102A1000004170470CF0004343EA507010B540EAA3
:102A2000CC0000F066F900BF000000924FEA000100
:102A3000FFF7D6BF4FF000414FF00000A1F5002195
:102A4000704700004FF47F0C1CEAD0121EBF1CEA36
:102A5000D11392EA0C0F93EA0C0F00F0858090EAF4
:102A6000010F48BF42F4807240F4000C41F40000B2
:102A70002CF07F4120F07F4000B58142A2EB0302A1
:102A80000FF2081CACEB504EC0F100009EF800E0C5
:102A90004FEA4E0E00FB0EFC38BF49004FEA2C1CDB
:102AA00002F5FA020CFB0EF34FEACE1E4FEA112C90
:102AB0004FEAC1210EEB635E42EB22420EFB0CFC9F
:102AC0004FEA1C5300FB03114FEA112C4FEA01316E
:102AD0000EFB0CFC4FEADC4C00FB0C11C14228BF82
:102AE00009184CEB03335DF804EB10EB410143EBA9
:102AF000C250B2F57C0F38BF704729D512F0F00FE5
:102B00001CBF00F1C04000F000407047008182838C
:102B10008485868788898B8C8D8E8F9192939596EC
:102B200097999A9C9D9FA0A2A3A5A7A8AAACAEB076
:102B3000B2B3B5B7B9BCBEC0C2C5C7C9CCCED1D47B
:102B4000D7D9DCDFE2E6E9ECF0F3F7FAFE000000AB
:102B50004FEA400C0CF1807CBCF17E4F28BF7047DF
:102B6000B0F1C04000F00BB990EA010F0CEAD113AC
:102B700048BF42F48072624538BF634507D213F400
:102B80007F0F16D080EA010000F00040704710B5BA
:102B900000F0AFF8097EFC3E00F005B880EA0100C5
:102BA00000F00040704780EA010000F0004000F0B3
:102BB000E6B812F47F0F04BF0248704780EA0100B4
:102BC00000F0DDB80000C07FB0FA80F310FA03F225
:102BD000C3F19D030AD0D90501EB1220530638BF7B
:102BE000704700F1010008BF20F0010070470000AD
:102BF0004FF47F0C1CEAD0121EBF1CEAD11392EADC
:102C00000C0F93EA0C0F00F0478090EA010F48BFC9
:102C100042F480724FF0004C4CEA00204CEA012153
:102C200002EB0302A0FB0113A2F50002002918BF6A
:102C300043F001035B0028BF4FEA330342EB22421B
:102C40005FEA132C4CEBC2502EBFBCEB436FB2F5C6
:102C50007C0F70474FEA036CBCF1004F08BF20F0B7
:102C60000100B2F57C0F38BF70470BD582F0FF0230
:102C700012F5803FC8BF704700F1C040D8BF00F0D8
:102C80000040704700F5000C5FEA4C0C48BF7047ED
:102C9000B0F1C04000F073B890EA010F0CEAD11314
:102CA00048BF42F48072624538BF634504D280EA6F
:102CB000010000F00040704710B500F01AF800BFA6
:102CC0008900013E00F007B800F009B85FEA410C46
:102CD0005FEA1C6C08D080EA010000F050B85FEA9F
:102CE000400C5FEA1C6CF6D14FF00040A0F580006C
:102CF00070470EF1020E2EF0030E5EF8044B2442D4
:102D000004D44FEA4102B2F17F4F11D84FEA400399
:102D1000B3F17F4F0CD80ED14FEAD07CB2F17F4F88
:102D20000CEB4C0C0CF1020C08BF4CEBD17C04E01A
:102D30004FF0080C01E04FEAD17C0CEB4C0324FA75
:102D400003F404F00704B4F1040C06D20EEB840C77
:102D5000BDE810404CF0010C6047DFE80CF00708BC
:102D600002024FF00040A0F5800010BD084642006E
:102D700018BFD2F1807288BF00F0004010BDFF2163
:102D800041EAD050C0057047FDF7E7BB01020203DE
:102D90000405060708090A0B0C0D0E0F101001029E
:102DA00002030405060708090A0B0C0D0E0F10108C
:102DB00000000000000000000102030406070809EB
:102DC000000000000102030402400000000000A017
:102DD0000000000005400000000000C800000000E6
:102DE0000C4000000000409C000000001940000062
:102DF0000020BCBE0000000034400000BFC91B8E94
:102E000000000004B5400000504BCFD06607E2CF71
:102E1000010000006C4100003E8251AADFEEA734A1
:102E200001000000D9420000DCB5A0E23A301F9753
:102E3000FFFFFFFFB4450000FD25A0C8E9A3C14F77
:102E4000FFFFFFFFFF3F00000000008000000000C8
:102E5000FF3F00000000008000000000982E0008E6
:102E6000000000201000000028010008A82E000823
:102E70001000002020070000440100081C00000092
:102E800043000000F8FFFFFF0C0000000E000000F0
:102E90000F0000002E0000000100000010000000E4
:082EA0000000000000127A009E
:04000005080000ED02
:00000001FF
